{
  "contractName": "HNFT",
  "abi": [
    {
      "inputs": [
        {
          "internalType": "string",
          "name": "_name",
          "type": "string"
        },
        {
          "internalType": "string",
          "name": "_symbol",
          "type": "string"
        }
      ],
      "stateMutability": "nonpayable",
      "type": "constructor"
    },
    {
      "anonymous": false,
      "inputs": [
        {
          "indexed": true,
          "internalType": "address",
          "name": "owner",
          "type": "address"
        },
        {
          "indexed": true,
          "internalType": "address",
          "name": "approved",
          "type": "address"
        },
        {
          "indexed": true,
          "internalType": "uint256",
          "name": "tokenId",
          "type": "uint256"
        }
      ],
      "name": "Approval",
      "type": "event"
    },
    {
      "anonymous": false,
      "inputs": [
        {
          "indexed": true,
          "internalType": "address",
          "name": "owner",
          "type": "address"
        },
        {
          "indexed": true,
          "internalType": "address",
          "name": "operator",
          "type": "address"
        },
        {
          "indexed": false,
          "internalType": "bool",
          "name": "approved",
          "type": "bool"
        }
      ],
      "name": "ApprovalForAll",
      "type": "event"
    },
    {
      "anonymous": false,
      "inputs": [
        {
          "indexed": true,
          "internalType": "address",
          "name": "from",
          "type": "address"
        },
        {
          "indexed": true,
          "internalType": "address",
          "name": "to",
          "type": "address"
        },
        {
          "indexed": true,
          "internalType": "uint256",
          "name": "tokenId",
          "type": "uint256"
        }
      ],
      "name": "Transfer",
      "type": "event"
    },
    {
      "inputs": [
        {
          "internalType": "address",
          "name": "to",
          "type": "address"
        },
        {
          "internalType": "uint256",
          "name": "tokenId",
          "type": "uint256"
        }
      ],
      "name": "approve",
      "outputs": [],
      "stateMutability": "nonpayable",
      "type": "function"
    },
    {
      "inputs": [
        {
          "internalType": "address",
          "name": "owner",
          "type": "address"
        }
      ],
      "name": "balanceOf",
      "outputs": [
        {
          "internalType": "uint256",
          "name": "",
          "type": "uint256"
        }
      ],
      "stateMutability": "view",
      "type": "function"
    },
    {
      "inputs": [
        {
          "internalType": "uint256",
          "name": "tokenId",
          "type": "uint256"
        }
      ],
      "name": "getApproved",
      "outputs": [
        {
          "internalType": "address",
          "name": "",
          "type": "address"
        }
      ],
      "stateMutability": "view",
      "type": "function"
    },
    {
      "inputs": [
        {
          "internalType": "address",
          "name": "owner",
          "type": "address"
        },
        {
          "internalType": "address",
          "name": "operator",
          "type": "address"
        }
      ],
      "name": "isApprovedForAll",
      "outputs": [
        {
          "internalType": "bool",
          "name": "",
          "type": "bool"
        }
      ],
      "stateMutability": "view",
      "type": "function"
    },
    {
      "inputs": [],
      "name": "name",
      "outputs": [
        {
          "internalType": "string",
          "name": "",
          "type": "string"
        }
      ],
      "stateMutability": "view",
      "type": "function"
    },
    {
      "inputs": [
        {
          "internalType": "uint256",
          "name": "tokenId",
          "type": "uint256"
        }
      ],
      "name": "ownerOf",
      "outputs": [
        {
          "internalType": "address",
          "name": "",
          "type": "address"
        }
      ],
      "stateMutability": "view",
      "type": "function"
    },
    {
      "inputs": [
        {
          "internalType": "address",
          "name": "from",
          "type": "address"
        },
        {
          "internalType": "address",
          "name": "to",
          "type": "address"
        },
        {
          "internalType": "uint256",
          "name": "tokenId",
          "type": "uint256"
        }
      ],
      "name": "safeTransferFrom",
      "outputs": [],
      "stateMutability": "nonpayable",
      "type": "function"
    },
    {
      "inputs": [
        {
          "internalType": "address",
          "name": "from",
          "type": "address"
        },
        {
          "internalType": "address",
          "name": "to",
          "type": "address"
        },
        {
          "internalType": "uint256",
          "name": "tokenId",
          "type": "uint256"
        },
        {
          "internalType": "bytes",
          "name": "data",
          "type": "bytes"
        }
      ],
      "name": "safeTransferFrom",
      "outputs": [],
      "stateMutability": "nonpayable",
      "type": "function"
    },
    {
      "inputs": [
        {
          "internalType": "address",
          "name": "operator",
          "type": "address"
        },
        {
          "internalType": "bool",
          "name": "approved",
          "type": "bool"
        }
      ],
      "name": "setApprovalForAll",
      "outputs": [],
      "stateMutability": "nonpayable",
      "type": "function"
    },
    {
      "inputs": [
        {
          "internalType": "bytes4",
          "name": "interfaceId",
          "type": "bytes4"
        }
      ],
      "name": "supportsInterface",
      "outputs": [
        {
          "internalType": "bool",
          "name": "",
          "type": "bool"
        }
      ],
      "stateMutability": "view",
      "type": "function"
    },
    {
      "inputs": [],
      "name": "symbol",
      "outputs": [
        {
          "internalType": "string",
          "name": "",
          "type": "string"
        }
      ],
      "stateMutability": "view",
      "type": "function"
    },
    {
      "inputs": [
        {
          "internalType": "uint256",
          "name": "tokenId",
          "type": "uint256"
        }
      ],
      "name": "tokenURI",
      "outputs": [
        {
          "internalType": "string",
          "name": "",
          "type": "string"
        }
      ],
      "stateMutability": "view",
      "type": "function"
    },
    {
      "inputs": [
        {
          "internalType": "address",
          "name": "from",
          "type": "address"
        },
        {
          "internalType": "address",
          "name": "to",
          "type": "address"
        },
        {
          "internalType": "uint256",
          "name": "tokenId",
          "type": "uint256"
        }
      ],
      "name": "transferFrom",
      "outputs": [],
      "stateMutability": "nonpayable",
      "type": "function"
    },
    {
      "inputs": [],
      "name": "getIssuer",
      "outputs": [
        {
          "internalType": "address",
          "name": "",
          "type": "address"
        }
      ],
      "stateMutability": "view",
      "type": "function"
    },
    {
      "inputs": [],
      "name": "getPrice",
      "outputs": [
        {
          "internalType": "uint256",
          "name": "",
          "type": "uint256"
        }
      ],
      "stateMutability": "view",
      "type": "function"
    },
    {
      "inputs": [
        {
          "internalType": "uint256",
          "name": "_price",
          "type": "uint256"
        }
      ],
      "name": "setPrice",
      "outputs": [
        {
          "internalType": "bool",
          "name": "",
          "type": "bool"
        }
      ],
      "stateMutability": "nonpayable",
      "type": "function"
    },
    {
      "inputs": [
        {
          "internalType": "address",
          "name": "from",
          "type": "address"
        },
        {
          "internalType": "address",
          "name": "to",
          "type": "address"
        }
      ],
      "name": "transferBuy",
      "outputs": [],
      "stateMutability": "nonpayable",
      "type": "function"
    },
    {
      "inputs": [
        {
          "internalType": "address",
          "name": "mainSmartContractAddress",
          "type": "address"
        }
      ],
      "name": "burn",
      "outputs": [],
      "stateMutability": "nonpayable",
      "type": "function"
    }
  ],
  "bytecode": "0x60806040523480156200001157600080fd5b50604051620036bc380380620036bc833981810160405281019062000037919062000789565b818181600090816200004a919062000a59565b5080600190816200005c919062000a59565b50505033600760006101000a81548173ffffffffffffffffffffffffffffffffffffffff021916908373ffffffffffffffffffffffffffffffffffffffff160217905550620000b3336000620000bb60201b60201c565b505062000e63565b620000dd828260405180602001604052806000815250620000e160201b60201c565b5050565b620000f383836200014f60201b60201c565b6200010860008484846200039560201b60201c565b6200014a576040517f08c379a0000000000000000000000000000000000000000000000000000000008152600401620001419062000bc7565b60405180910390fd5b505050565b600073ffffffffffffffffffffffffffffffffffffffff168273ffffffffffffffffffffffffffffffffffffffff1603620001c1576040517f08c379a0000000000000000000000000000000000000000000000000000000008152600401620001b89062000c39565b60405180910390fd5b620001d2816200053960201b60201c565b1562000215576040517f08c379a00000000000000000000000000000000000000000000000000000000081526004016200020c9062000cab565b60405180910390fd5b6200022b6000838360016200058260201b60201c565b6200023c816200053960201b60201c565b156200027f576040517f08c379a0000000000000000000000000000000000000000000000000000000008152600401620002769062000cab565b60405180910390fd5b6001600360008473ffffffffffffffffffffffffffffffffffffffff1673ffffffffffffffffffffffffffffffffffffffff16815260200190815260200160002060008282540192505081905550816002600083815260200190815260200160002060006101000a81548173ffffffffffffffffffffffffffffffffffffffff021916908373ffffffffffffffffffffffffffffffffffffffff160217905550808273ffffffffffffffffffffffffffffffffffffffff16600073ffffffffffffffffffffffffffffffffffffffff167fddf252ad1be2c89b69c2b068fc378daa952ba7f163c4a11628f55a4df523b3ef60405160405180910390a4620003916000838360016200058860201b60201c565b5050565b6000620003be8473ffffffffffffffffffffffffffffffffffffffff166200058e60201b60201c565b156200052c578373ffffffffffffffffffffffffffffffffffffffff1663150b7a02620003f0620005b160201b60201c565b8786866040518563ffffffff1660e01b815260040162000414949392919062000d80565b6020604051808303816000875af19250505080156200045357506040513d601f19601f8201168201806040525081019062000450919062000e31565b60015b620004db573d806000811462000486576040519150601f19603f3d011682016040523d82523d6000602084013e6200048b565b606091505b506000815103620004d3576040517f08c379a0000000000000000000000000000000000000000000000000000000008152600401620004ca9062000bc7565b60405180910390fd5b805181602001fd5b63150b7a0260e01b7bffffffffffffffffffffffffffffffffffffffffffffffffffffffff1916817bffffffffffffffffffffffffffffffffffffffffffffffffffffffff19161491505062000531565b600190505b949350505050565b60008073ffffffffffffffffffffffffffffffffffffffff166200056383620005b960201b60201c565b73ffffffffffffffffffffffffffffffffffffffff1614159050919050565b50505050565b50505050565b6000808273ffffffffffffffffffffffffffffffffffffffff163b119050919050565b600033905090565b60006002600083815260200190815260200160002060009054906101000a900473ffffffffffffffffffffffffffffffffffffffff169050919050565b6000604051905090565b600080fd5b600080fd5b600080fd5b600080fd5b6000601f19601f8301169050919050565b7f4e487b7100000000000000000000000000000000000000000000000000000000600052604160045260246000fd5b6200065f8262000614565b810181811067ffffffffffffffff8211171562000681576200068062000625565b5b80604052505050565b600062000696620005f6565b9050620006a4828262000654565b919050565b600067ffffffffffffffff821115620006c757620006c662000625565b5b620006d28262000614565b9050602081019050919050565b60005b83811015620006ff578082015181840152602081019050620006e2565b60008484015250505050565b6000620007226200071c84620006a9565b6200068a565b9050828152602081018484840111156200074157620007406200060f565b5b6200074e848285620006df565b509392505050565b600082601f8301126200076e576200076d6200060a565b5b8151620007808482602086016200070b565b91505092915050565b60008060408385031215620007a357620007a262000600565b5b600083015167ffffffffffffffff811115620007c457620007c362000605565b5b620007d28582860162000756565b925050602083015167ffffffffffffffff811115620007f657620007f562000605565b5b620008048582860162000756565b9150509250929050565b600081519050919050565b7f4e487b7100000000000000000000000000000000000000000000000000000000600052602260045260246000fd5b600060028204905060018216806200086157607f821691505b60208210810362000877576200087662000819565b5b50919050565b60008190508160005260206000209050919050565b60006020601f8301049050919050565b600082821b905092915050565b600060088302620008e17fffffffffffffffffffffffffffffffffffffffffffffffffffffffffffffffff82620008a2565b620008ed8683620008a2565b95508019841693508086168417925050509392505050565b6000819050919050565b6000819050919050565b60006200093a620009346200092e8462000905565b6200090f565b62000905565b9050919050565b6000819050919050565b620009568362000919565b6200096e620009658262000941565b848454620008af565b825550505050565b600090565b6200098562000976565b620009928184846200094b565b505050565b5b81811015620009ba57620009ae6000826200097b565b60018101905062000998565b5050565b601f82111562000a0957620009d3816200087d565b620009de8462000892565b81016020851015620009ee578190505b62000a06620009fd8562000892565b83018262000997565b50505b505050565b600082821c905092915050565b600062000a2e6000198460080262000a0e565b1980831691505092915050565b600062000a49838362000a1b565b9150826002028217905092915050565b62000a64826200080e565b67ffffffffffffffff81111562000a805762000a7f62000625565b5b62000a8c825462000848565b62000a99828285620009be565b600060209050601f83116001811462000ad1576000841562000abc578287015190505b62000ac8858262000a3b565b86555062000b38565b601f19841662000ae1866200087d565b60005b8281101562000b0b5784890151825560018201915060208501945060208101905062000ae4565b8683101562000b2b578489015162000b27601f89168262000a1b565b8355505b6001600288020188555050505b505050505050565b600082825260208201905092915050565b7f4552433732313a207472616e7366657220746f206e6f6e20455243373231526560008201527f63656976657220696d706c656d656e7465720000000000000000000000000000602082015250565b600062000baf60328362000b40565b915062000bbc8262000b51565b604082019050919050565b6000602082019050818103600083015262000be28162000ba0565b9050919050565b7f4552433732313a206d696e7420746f20746865207a65726f2061646472657373600082015250565b600062000c2160208362000b40565b915062000c2e8262000be9565b602082019050919050565b6000602082019050818103600083015262000c548162000c12565b9050919050565b7f4552433732313a20746f6b656e20616c7265616479206d696e74656400000000600082015250565b600062000c93601c8362000b40565b915062000ca08262000c5b565b602082019050919050565b6000602082019050818103600083015262000cc68162000c84565b9050919050565b600073ffffffffffffffffffffffffffffffffffffffff82169050919050565b600062000cfa8262000ccd565b9050919050565b62000d0c8162000ced565b82525050565b62000d1d8162000905565b82525050565b600081519050919050565b600082825260208201905092915050565b600062000d4c8262000d23565b62000d58818562000d2e565b935062000d6a818560208601620006df565b62000d758162000614565b840191505092915050565b600060808201905062000d97600083018762000d01565b62000da6602083018662000d01565b62000db5604083018562000d12565b818103606083015262000dc9818462000d3f565b905095945050505050565b60007fffffffff0000000000000000000000000000000000000000000000000000000082169050919050565b62000e0b8162000dd4565b811462000e1757600080fd5b50565b60008151905062000e2b8162000e00565b92915050565b60006020828403121562000e4a5762000e4962000600565b5b600062000e5a8482850162000e1a565b91505092915050565b6128498062000e736000396000f3fe608060405234801561001057600080fd5b50600436106101165760003560e01c806370a08231116100a257806398d5fdca1161007157806398d5fdca146102f1578063a22cb4651461030f578063b88d4fde1461032b578063c87b56dd14610347578063e985e9c51461037757610116565b806370a082311461025757806389afcb441461028757806391b7f5ed146102a357806395d89b41146102d357610116565b8063095ea7b3116100e9578063095ea7b3146101b557806323b872dd146101d157806342842e0e146101ed57806352556421146102095780636352211e1461022757610116565b806301ffc9a71461011b578063066830711461014b57806306fdde0314610167578063081812fc14610185575b600080fd5b610135600480360381019061013091906119ee565b6103a7565b6040516101429190611a36565b60405180910390f35b61016560048036038101906101609190611aaf565b610489565b005b61016f6104e3565b60405161017c9190611b7f565b60405180910390f35b61019f600480360381019061019a9190611bd7565b610575565b6040516101ac9190611c13565b60405180910390f35b6101cf60048036038101906101ca9190611c2e565b6105bb565b005b6101eb60048036038101906101e69190611c6e565b6106d2565b005b61020760048036038101906102029190611c6e565b610732565b005b610211610752565b60405161021e9190611c13565b60405180910390f35b610241600480360381019061023c9190611bd7565b61077c565b60405161024e9190611c13565b60405180910390f35b610271600480360381019061026c9190611cc1565b610802565b60405161027e9190611cfd565b60405180910390f35b6102a1600480360381019061029c9190611cc1565b6108b9565b005b6102bd60048036038101906102b89190611bd7565b610a46565b6040516102ca9190611a36565b60405180910390f35b6102db610aec565b6040516102e89190611b7f565b60405180910390f35b6102f9610b7e565b6040516103069190611cfd565b60405180910390f35b61032960048036038101906103249190611d44565b610b88565b005b61034560048036038101906103409190611eb9565b610b9e565b005b610361600480360381019061035c9190611bd7565b610c00565b60405161036e9190611b7f565b60405180910390f35b610391600480360381019061038c9190611aaf565b610c68565b60405161039e9190611a36565b60405180910390f35b60007f80ac58cd000000000000000000000000000000000000000000000000000000007bffffffffffffffffffffffffffffffffffffffffffffffffffffffff1916827bffffffffffffffffffffffffffffffffffffffffffffffffffffffff1916148061047257507f5b5e139f000000000000000000000000000000000000000000000000000000007bffffffffffffffffffffffffffffffffffffffffffffffffffffffff1916827bffffffffffffffffffffffffffffffffffffffffffffffffffffffff1916145b80610482575061048182610cfc565b5b9050919050565b610494336000610d66565b6104d3576040517f08c379a00000000000000000000000000000000000000000000000000000000081526004016104ca90611fae565b60405180910390fd5b6104df828260006106d2565b5050565b6060600080546104f290611ffd565b80601f016020809104026020016040519081016040528092919081815260200182805461051e90611ffd565b801561056b5780601f106105405761010080835404028352916020019161056b565b820191906000526020600020905b81548152906001019060200180831161054e57829003601f168201915b5050505050905090565b600061058082610dfb565b6004600083815260200190815260200160002060009054906101000a900473ffffffffffffffffffffffffffffffffffffffff169050919050565b60006105c68261077c565b90508073ffffffffffffffffffffffffffffffffffffffff168373ffffffffffffffffffffffffffffffffffffffff1603610636576040517f08c379a000000000000000000000000000000000000000000000000000000000815260040161062d906120a0565b60405180910390fd5b8073ffffffffffffffffffffffffffffffffffffffff16610655610e46565b73ffffffffffffffffffffffffffffffffffffffff16148061068457506106838161067e610e46565b610c68565b5b6106c3576040517f08c379a00000000000000000000000000000000000000000000000000000000081526004016106ba90612132565b60405180910390fd5b6106cd8383610e4e565b505050565b6106e36106dd610e46565b82610d66565b610722576040517f08c379a0000000000000000000000000000000000000000000000000000000008152600401610719906121c4565b60405180910390fd5b61072d838383610f07565b505050565b61074d83838360405180602001604052806000815250610b9e565b505050565b6000600760009054906101000a900473ffffffffffffffffffffffffffffffffffffffff16905090565b60008061078883611200565b9050600073ffffffffffffffffffffffffffffffffffffffff168173ffffffffffffffffffffffffffffffffffffffff16036107f9576040517f08c379a00000000000000000000000000000000000000000000000000000000081526004016107f090612230565b60405180910390fd5b80915050919050565b60008073ffffffffffffffffffffffffffffffffffffffff168273ffffffffffffffffffffffffffffffffffffffff1603610872576040517f08c379a0000000000000000000000000000000000000000000000000000000008152600401610869906122c2565b60405180910390fd5b600360008373ffffffffffffffffffffffffffffffffffffffff1673ffffffffffffffffffffffffffffffffffffffff168152602001908152602001600020549050919050565b6108c4326000610d66565b610903576040517f08c379a00000000000000000000000000000000000000000000000000000000081526004016108fa9061237a565b60405180910390fd5b60008173ffffffffffffffffffffffffffffffffffffffff166040516024016040516020818303038152906040527f44df8e70000000000000000000000000000000000000000000000000000000007bffffffffffffffffffffffffffffffffffffffffffffffffffffffff19166020820180517bffffffffffffffffffffffffffffffffffffffffffffffffffffffff83818316178352505050506040516109ac91906123e1565b6000604051808303816000865af19150503d80600081146109e9576040519150601f19603f3d011682016040523d82523d6000602084013e6109ee565b606091505b505090508015610a0757610a02600061123d565b610a42565b6040517f08c379a0000000000000000000000000000000000000000000000000000000008152600401610a399061246a565b60405180910390fd5b5050565b6000610a53326000610d66565b610a92576040517f08c379a0000000000000000000000000000000000000000000000000000000008152600401610a899061237a565b60405180910390fd5b610a9d336000610d66565b610adc576040517f08c379a0000000000000000000000000000000000000000000000000000000008152600401610ad390611fae565b60405180910390fd5b8160068190555060019050919050565b606060018054610afb90611ffd565b80601f0160208091040260200160405190810160405280929190818152602001828054610b2790611ffd565b8015610b745780601f10610b4957610100808354040283529160200191610b74565b820191906000526020600020905b815481529060010190602001808311610b5757829003601f168201915b5050505050905090565b6000600654905090565b610b9a610b93610e46565b838361138b565b5050565b610baf610ba9610e46565b83610d66565b610bee576040517f08c379a0000000000000000000000000000000000000000000000000000000008152600401610be5906121c4565b60405180910390fd5b610bfa848484846114f7565b50505050565b6060610c0b82610dfb565b6000610c15611553565b90506000815111610c355760405180602001604052806000815250610c60565b80610c3f8461156a565b604051602001610c509291906124c6565b6040516020818303038152906040525b915050919050565b6000600560008473ffffffffffffffffffffffffffffffffffffffff1673ffffffffffffffffffffffffffffffffffffffff16815260200190815260200160002060008373ffffffffffffffffffffffffffffffffffffffff1673ffffffffffffffffffffffffffffffffffffffff16815260200190815260200160002060009054906101000a900460ff16905092915050565b60007f01ffc9a7000000000000000000000000000000000000000000000000000000007bffffffffffffffffffffffffffffffffffffffffffffffffffffffff1916827bffffffffffffffffffffffffffffffffffffffffffffffffffffffff1916149050919050565b600080610d728361077c565b90508073ffffffffffffffffffffffffffffffffffffffff168473ffffffffffffffffffffffffffffffffffffffff161480610db45750610db38185610c68565b5b80610df257508373ffffffffffffffffffffffffffffffffffffffff16610dda84610575565b73ffffffffffffffffffffffffffffffffffffffff16145b91505092915050565b610e0481611638565b610e43576040517f08c379a0000000000000000000000000000000000000000000000000000000008152600401610e3a90612230565b60405180910390fd5b50565b600033905090565b816004600083815260200190815260200160002060006101000a81548173ffffffffffffffffffffffffffffffffffffffff021916908373ffffffffffffffffffffffffffffffffffffffff160217905550808273ffffffffffffffffffffffffffffffffffffffff16610ec18361077c565b73ffffffffffffffffffffffffffffffffffffffff167f8c5be1e5ebec7d5bd14f71427d1e84f3dd0314c0f7b2291e5b200ac8c7c3b92560405160405180910390a45050565b8273ffffffffffffffffffffffffffffffffffffffff16610f278261077c565b73ffffffffffffffffffffffffffffffffffffffff1614610f7d576040517f08c379a0000000000000000000000000000000000000000000000000000000008152600401610f749061255c565b60405180910390fd5b600073ffffffffffffffffffffffffffffffffffffffff168273ffffffffffffffffffffffffffffffffffffffff1603610fec576040517f08c379a0000000000000000000000000000000000000000000000000000000008152600401610fe3906125ee565b60405180910390fd5b610ff98383836001611679565b8273ffffffffffffffffffffffffffffffffffffffff166110198261077c565b73ffffffffffffffffffffffffffffffffffffffff161461106f576040517f08c379a00000000000000000000000000000000000000000000000000000000081526004016110669061255c565b60405180910390fd5b6004600082815260200190815260200160002060006101000a81549073ffffffffffffffffffffffffffffffffffffffff02191690556001600360008573ffffffffffffffffffffffffffffffffffffffff1673ffffffffffffffffffffffffffffffffffffffff168152602001908152602001600020600082825403925050819055506001600360008473ffffffffffffffffffffffffffffffffffffffff1673ffffffffffffffffffffffffffffffffffffffff16815260200190815260200160002060008282540192505081905550816002600083815260200190815260200160002060006101000a81548173ffffffffffffffffffffffffffffffffffffffff021916908373ffffffffffffffffffffffffffffffffffffffff160217905550808273ffffffffffffffffffffffffffffffffffffffff168473ffffffffffffffffffffffffffffffffffffffff167fddf252ad1be2c89b69c2b068fc378daa952ba7f163c4a11628f55a4df523b3ef60405160405180910390a46111fb838383600161167f565b505050565b60006002600083815260200190815260200160002060009054906101000a900473ffffffffffffffffffffffffffffffffffffffff169050919050565b60006112488261077c565b9050611258816000846001611679565b6112618261077c565b90506004600083815260200190815260200160002060006101000a81549073ffffffffffffffffffffffffffffffffffffffff02191690556001600360008373ffffffffffffffffffffffffffffffffffffffff1673ffffffffffffffffffffffffffffffffffffffff168152602001908152602001600020600082825403925050819055506002600083815260200190815260200160002060006101000a81549073ffffffffffffffffffffffffffffffffffffffff021916905581600073ffffffffffffffffffffffffffffffffffffffff168273ffffffffffffffffffffffffffffffffffffffff167fddf252ad1be2c89b69c2b068fc378daa952ba7f163c4a11628f55a4df523b3ef60405160405180910390a461138781600084600161167f565b5050565b8173ffffffffffffffffffffffffffffffffffffffff168373ffffffffffffffffffffffffffffffffffffffff16036113f9576040517f08c379a00000000000000000000000000000000000000000000000000000000081526004016113f09061265a565b60405180910390fd5b80600560008573ffffffffffffffffffffffffffffffffffffffff1673ffffffffffffffffffffffffffffffffffffffff16815260200190815260200160002060008473ffffffffffffffffffffffffffffffffffffffff1673ffffffffffffffffffffffffffffffffffffffff16815260200190815260200160002060006101000a81548160ff0219169083151502179055508173ffffffffffffffffffffffffffffffffffffffff168373ffffffffffffffffffffffffffffffffffffffff167f17307eab39ab6107e8899845ad3d59bd9653f200f220920489ca2b5937696c31836040516114ea9190611a36565b60405180910390a3505050565b611502848484610f07565b61150e84848484611685565b61154d576040517f08c379a0000000000000000000000000000000000000000000000000000000008152600401611544906126ec565b60405180910390fd5b50505050565b606060405180602001604052806000815250905090565b6060600060016115798461180c565b01905060008167ffffffffffffffff81111561159857611597611d8e565b5b6040519080825280601f01601f1916602001820160405280156115ca5781602001600182028036833780820191505090505b509050600082602001820190505b60011561162d578080600190039150507f3031323334353637383961626364656600000000000000000000000000000000600a86061a8153600a85816116215761162061270c565b5b049450600085036115d8575b819350505050919050565b60008073ffffffffffffffffffffffffffffffffffffffff1661165a83611200565b73ffffffffffffffffffffffffffffffffffffffff1614159050919050565b50505050565b50505050565b60006116a68473ffffffffffffffffffffffffffffffffffffffff1661195f565b156117ff578373ffffffffffffffffffffffffffffffffffffffff1663150b7a026116cf610e46565b8786866040518563ffffffff1660e01b81526004016116f19493929190612785565b6020604051808303816000875af192505050801561172d57506040513d601f19601f8201168201806040525081019061172a91906127e6565b60015b6117af573d806000811461175d576040519150601f19603f3d011682016040523d82523d6000602084013e611762565b606091505b5060008151036117a7576040517f08c379a000000000000000000000000000000000000000000000000000000000815260040161179e906126ec565b60405180910390fd5b805181602001fd5b63150b7a0260e01b7bffffffffffffffffffffffffffffffffffffffffffffffffffffffff1916817bffffffffffffffffffffffffffffffffffffffffffffffffffffffff191614915050611804565b600190505b949350505050565b600080600090507a184f03e93ff9f4daa797ed6e38ed64bf6a1f010000000000000000831061186a577a184f03e93ff9f4daa797ed6e38ed64bf6a1f01000000000000000083816118605761185f61270c565b5b0492506040810190505b6d04ee2d6d415b85acef810000000083106118a7576d04ee2d6d415b85acef8100000000838161189d5761189c61270c565b5b0492506020810190505b662386f26fc1000083106118d657662386f26fc1000083816118cc576118cb61270c565b5b0492506010810190505b6305f5e10083106118ff576305f5e10083816118f5576118f461270c565b5b0492506008810190505b612710831061192457612710838161191a5761191961270c565b5b0492506004810190505b60648310611947576064838161193d5761193c61270c565b5b0492506002810190505b600a8310611956576001810190505b80915050919050565b6000808273ffffffffffffffffffffffffffffffffffffffff163b119050919050565b6000604051905090565b600080fd5b600080fd5b60007fffffffff0000000000000000000000000000000000000000000000000000000082169050919050565b6119cb81611996565b81146119d657600080fd5b50565b6000813590506119e8816119c2565b92915050565b600060208284031215611a0457611a0361198c565b5b6000611a12848285016119d9565b91505092915050565b60008115159050919050565b611a3081611a1b565b82525050565b6000602082019050611a4b6000830184611a27565b92915050565b600073ffffffffffffffffffffffffffffffffffffffff82169050919050565b6000611a7c82611a51565b9050919050565b611a8c81611a71565b8114611a9757600080fd5b50565b600081359050611aa981611a83565b92915050565b60008060408385031215611ac657611ac561198c565b5b6000611ad485828601611a9a565b9250506020611ae585828601611a9a565b9150509250929050565b600081519050919050565b600082825260208201905092915050565b60005b83811015611b29578082015181840152602081019050611b0e565b60008484015250505050565b6000601f19601f8301169050919050565b6000611b5182611aef565b611b5b8185611afa565b9350611b6b818560208601611b0b565b611b7481611b35565b840191505092915050565b60006020820190508181036000830152611b998184611b46565b905092915050565b6000819050919050565b611bb481611ba1565b8114611bbf57600080fd5b50565b600081359050611bd181611bab565b92915050565b600060208284031215611bed57611bec61198c565b5b6000611bfb84828501611bc2565b91505092915050565b611c0d81611a71565b82525050565b6000602082019050611c286000830184611c04565b92915050565b60008060408385031215611c4557611c4461198c565b5b6000611c5385828601611a9a565b9250506020611c6485828601611bc2565b9150509250929050565b600080600060608486031215611c8757611c8661198c565b5b6000611c9586828701611a9a565b9350506020611ca686828701611a9a565b9250506040611cb786828701611bc2565b9150509250925092565b600060208284031215611cd757611cd661198c565b5b6000611ce584828501611a9a565b91505092915050565b611cf781611ba1565b82525050565b6000602082019050611d126000830184611cee565b92915050565b611d2181611a1b565b8114611d2c57600080fd5b50565b600081359050611d3e81611d18565b92915050565b60008060408385031215611d5b57611d5a61198c565b5b6000611d6985828601611a9a565b9250506020611d7a85828601611d2f565b9150509250929050565b600080fd5b600080fd5b7f4e487b7100000000000000000000000000000000000000000000000000000000600052604160045260246000fd5b611dc682611b35565b810181811067ffffffffffffffff82111715611de557611de4611d8e565b5b80604052505050565b6000611df8611982565b9050611e048282611dbd565b919050565b600067ffffffffffffffff821115611e2457611e23611d8e565b5b611e2d82611b35565b9050602081019050919050565b82818337600083830152505050565b6000611e5c611e5784611e09565b611dee565b905082815260208101848484011115611e7857611e77611d89565b5b611e83848285611e3a565b509392505050565b600082601f830112611ea057611e9f611d84565b5b8135611eb0848260208601611e49565b91505092915050565b60008060008060808587031215611ed357611ed261198c565b5b6000611ee187828801611a9a565b9450506020611ef287828801611a9a565b9350506040611f0387828801611bc2565b925050606085013567ffffffffffffffff811115611f2457611f23611991565b5b611f3087828801611e8b565b91505092959194509250565b7f546865207472616e73616374696f6e2063616c6c6572206973206e6f7420616c60008201527f6c6f77656420746f20706572666f726d207468697320616374696f6e00000000602082015250565b6000611f98603c83611afa565b9150611fa382611f3c565b604082019050919050565b60006020820190508181036000830152611fc781611f8b565b9050919050565b7f4e487b7100000000000000000000000000000000000000000000000000000000600052602260045260246000fd5b6000600282049050600182168061201557607f821691505b60208210810361202857612027611fce565b5b50919050565b7f4552433732313a20617070726f76616c20746f2063757272656e74206f776e6560008201527f7200000000000000000000000000000000000000000000000000000000000000602082015250565b600061208a602183611afa565b91506120958261202e565b604082019050919050565b600060208201905081810360008301526120b98161207d565b9050919050565b7f4552433732313a20617070726f76652063616c6c6572206973206e6f7420746f60008201527f6b656e206f776e6572206f7220617070726f76656420666f7220616c6c000000602082015250565b600061211c603d83611afa565b9150612127826120c0565b604082019050919050565b6000602082019050818103600083015261214b8161210f565b9050919050565b7f4552433732313a2063616c6c6572206973206e6f7420746f6b656e206f776e6560008201527f72206f7220617070726f76656400000000000000000000000000000000000000602082015250565b60006121ae602d83611afa565b91506121b982612152565b604082019050919050565b600060208201905081810360008301526121dd816121a1565b9050919050565b7f4552433732313a20696e76616c696420746f6b656e2049440000000000000000600082015250565b600061221a601883611afa565b9150612225826121e4565b602082019050919050565b600060208201905081810360008301526122498161220d565b9050919050565b7f4552433732313a2061646472657373207a65726f206973206e6f74206120766160008201527f6c6964206f776e65720000000000000000000000000000000000000000000000602082015250565b60006122ac602983611afa565b91506122b782612250565b604082019050919050565b600060208201905081810360008301526122db8161229f565b9050919050565b7f546865207472616e73616374696f6e206f726967696e2063616c6c657220697360008201527f206e6f7420616c6c6f77656420746f20706572666f726d20746869732061637460208201527f696f6e0000000000000000000000000000000000000000000000000000000000604082015250565b6000612364604383611afa565b915061236f826122e2565b606082019050919050565b6000602082019050818103600083015261239381612357565b9050919050565b600081519050919050565b600081905092915050565b60006123bb8261239a565b6123c581856123a5565b93506123d5818560208601611b0b565b80840191505092915050565b60006123ed82846123b0565b915081905092915050565b7f6572726f7220696e206d61696e20736d61727420636f6e74726163742062757260008201527f6e00000000000000000000000000000000000000000000000000000000000000602082015250565b6000612454602183611afa565b915061245f826123f8565b604082019050919050565b6000602082019050818103600083015261248381612447565b9050919050565b600081905092915050565b60006124a082611aef565b6124aa818561248a565b93506124ba818560208601611b0b565b80840191505092915050565b60006124d28285612495565b91506124de8284612495565b91508190509392505050565b7f4552433732313a207472616e736665722066726f6d20696e636f72726563742060008201527f6f776e6572000000000000000000000000000000000000000000000000000000602082015250565b6000612546602583611afa565b9150612551826124ea565b604082019050919050565b6000602082019050818103600083015261257581612539565b9050919050565b7f4552433732313a207472616e7366657220746f20746865207a65726f2061646460008201527f7265737300000000000000000000000000000000000000000000000000000000602082015250565b60006125d8602483611afa565b91506125e38261257c565b604082019050919050565b60006020820190508181036000830152612607816125cb565b9050919050565b7f4552433732313a20617070726f766520746f2063616c6c657200000000000000600082015250565b6000612644601983611afa565b915061264f8261260e565b602082019050919050565b6000602082019050818103600083015261267381612637565b9050919050565b7f4552433732313a207472616e7366657220746f206e6f6e20455243373231526560008201527f63656976657220696d706c656d656e7465720000000000000000000000000000602082015250565b60006126d6603283611afa565b91506126e18261267a565b604082019050919050565b60006020820190508181036000830152612705816126c9565b9050919050565b7f4e487b7100000000000000000000000000000000000000000000000000000000600052601260045260246000fd5b600082825260208201905092915050565b60006127578261239a565b612761818561273b565b9350612771818560208601611b0b565b61277a81611b35565b840191505092915050565b600060808201905061279a6000830187611c04565b6127a76020830186611c04565b6127b46040830185611cee565b81810360608301526127c6818461274c565b905095945050505050565b6000815190506127e0816119c2565b92915050565b6000602082840312156127fc576127fb61198c565b5b600061280a848285016127d1565b9150509291505056fea264697066735822122037d2faef848ea4e5b6a7822546a3ca31cb316c4ed3bb836a7351dcab2bfd4f8a64736f6c63430008130033",
  "immutableReferences": {},
  "source": "// SPDX-License-Identifier: MIT\npragma solidity ^0.8.13;\n\nimport \"@openzeppelin/contracts/token/ERC721/ERC721.sol\";\n\n//add for debugging purpuse\n//import \"truffle/console.sol\";\n\ncontract HNFT is ERC721 {\n    uint price;\n    address issuer;\n\n    constructor(\n        string memory _name,\n        string memory _symbol\n    ) ERC721(_name, _symbol) {\n        issuer = msg.sender;\n        _safeMint(msg.sender, 0);\n    }\n\n    function getIssuer() external view returns (address) {\n        return issuer;\n    }\n\n    function getPrice() external view returns (uint) {\n        return price;\n    }\n\n    function setPrice(uint _price) public returns (bool) {\n        require(\n            _isApprovedOrOwner(tx.origin, 0),\n            \"The transaction origin caller is not allowed to perform this action\"\n        );\n        require(\n            _isApprovedOrOwner(msg.sender, 0),\n            \"The transaction caller is not allowed to perform this action\"\n        );\n        price = _price;\n        return true;\n    }\n\n    function transferBuy(address from, address to) public {\n        require(\n            _isApprovedOrOwner(msg.sender, 0),\n            \"The transaction caller is not allowed to perform this action\"\n        );\n        super.transferFrom(from, to, 0);\n    }\n\n    function burn(address mainSmartContractAddress) public {\n        require(\n            _isApprovedOrOwner(tx.origin, 0),\n            \"The transaction origin caller is not allowed to perform this action\"\n        );\n        (bool resb, ) = mainSmartContractAddress.call(\n            abi.encodeWithSignature(\"burn()\")\n        );\n        if (resb) {\n            super._burn(0);\n        } else {\n            revert(\"error in main smart contract burn\");\n        }\n    }\n}\n",
  "sourcePath": "/home/andrea/BlockchainProject/contracts/HNFT.sol",
  "compiler": {
    "name": "solc",
    "version": "0.8.19+commit.7dd6d404.Emscripten.clang"
  },
  "schemaVersion": "3.4.13",
  "updatedAt": "2023-06-07T07:54:39.174Z",
  "devdoc": {
    "events": {
      "Approval(address,address,uint256)": {
        "details": "Emitted when `owner` enables `approved` to manage the `tokenId` token."
      },
      "ApprovalForAll(address,address,bool)": {
        "details": "Emitted when `owner` enables or disables (`approved`) `operator` to manage all of its assets."
      },
      "Transfer(address,address,uint256)": {
        "details": "Emitted when `tokenId` token is transferred from `from` to `to`."
      }
    },
    "kind": "dev",
    "methods": {
      "approve(address,uint256)": {
        "details": "See {IERC721-approve}."
      },
      "balanceOf(address)": {
        "details": "See {IERC721-balanceOf}."
      },
      "getApproved(uint256)": {
        "details": "See {IERC721-getApproved}."
      },
      "isApprovedForAll(address,address)": {
        "details": "See {IERC721-isApprovedForAll}."
      },
      "name()": {
        "details": "See {IERC721Metadata-name}."
      },
      "ownerOf(uint256)": {
        "details": "See {IERC721-ownerOf}."
      },
      "safeTransferFrom(address,address,uint256)": {
        "details": "See {IERC721-safeTransferFrom}."
      },
      "safeTransferFrom(address,address,uint256,bytes)": {
        "details": "See {IERC721-safeTransferFrom}."
      },
      "setApprovalForAll(address,bool)": {
        "details": "See {IERC721-setApprovalForAll}."
      },
      "supportsInterface(bytes4)": {
        "details": "See {IERC165-supportsInterface}."
      },
      "symbol()": {
        "details": "See {IERC721Metadata-symbol}."
      },
      "tokenURI(uint256)": {
        "details": "See {IERC721Metadata-tokenURI}."
      },
      "transferFrom(address,address,uint256)": {
        "details": "See {IERC721-transferFrom}."
      }
    },
    "version": 1
  },
  "userdoc": {
    "kind": "user",
    "methods": {},
    "version": 1
  }
}