{
  "contractName": "HNFT",
  "abi": [
    {
      "inputs": [
        {
          "internalType": "string",
          "name": "_name",
          "type": "string"
        },
        {
          "internalType": "string",
          "name": "_symbol",
          "type": "string"
        }
      ],
      "stateMutability": "nonpayable",
      "type": "constructor"
    },
    {
      "anonymous": false,
      "inputs": [
        {
          "indexed": true,
          "internalType": "address",
          "name": "owner",
          "type": "address"
        },
        {
          "indexed": true,
          "internalType": "address",
          "name": "approved",
          "type": "address"
        },
        {
          "indexed": true,
          "internalType": "uint256",
          "name": "tokenId",
          "type": "uint256"
        }
      ],
      "name": "Approval",
      "type": "event"
    },
    {
      "anonymous": false,
      "inputs": [
        {
          "indexed": true,
          "internalType": "address",
          "name": "owner",
          "type": "address"
        },
        {
          "indexed": true,
          "internalType": "address",
          "name": "operator",
          "type": "address"
        },
        {
          "indexed": false,
          "internalType": "bool",
          "name": "approved",
          "type": "bool"
        }
      ],
      "name": "ApprovalForAll",
      "type": "event"
    },
    {
      "anonymous": false,
      "inputs": [
        {
          "indexed": true,
          "internalType": "address",
          "name": "from",
          "type": "address"
        },
        {
          "indexed": true,
          "internalType": "address",
          "name": "to",
          "type": "address"
        },
        {
          "indexed": true,
          "internalType": "uint256",
          "name": "tokenId",
          "type": "uint256"
        }
      ],
      "name": "Transfer",
      "type": "event"
    },
    {
      "inputs": [
        {
          "internalType": "address",
          "name": "to",
          "type": "address"
        },
        {
          "internalType": "uint256",
          "name": "tokenId",
          "type": "uint256"
        }
      ],
      "name": "approve",
      "outputs": [],
      "stateMutability": "nonpayable",
      "type": "function"
    },
    {
      "inputs": [
        {
          "internalType": "address",
          "name": "owner",
          "type": "address"
        }
      ],
      "name": "balanceOf",
      "outputs": [
        {
          "internalType": "uint256",
          "name": "",
          "type": "uint256"
        }
      ],
      "stateMutability": "view",
      "type": "function"
    },
    {
      "inputs": [
        {
          "internalType": "uint256",
          "name": "tokenId",
          "type": "uint256"
        }
      ],
      "name": "getApproved",
      "outputs": [
        {
          "internalType": "address",
          "name": "",
          "type": "address"
        }
      ],
      "stateMutability": "view",
      "type": "function"
    },
    {
      "inputs": [
        {
          "internalType": "address",
          "name": "owner",
          "type": "address"
        },
        {
          "internalType": "address",
          "name": "operator",
          "type": "address"
        }
      ],
      "name": "isApprovedForAll",
      "outputs": [
        {
          "internalType": "bool",
          "name": "",
          "type": "bool"
        }
      ],
      "stateMutability": "view",
      "type": "function"
    },
    {
      "inputs": [],
      "name": "name",
      "outputs": [
        {
          "internalType": "string",
          "name": "",
          "type": "string"
        }
      ],
      "stateMutability": "view",
      "type": "function"
    },
    {
      "inputs": [
        {
          "internalType": "uint256",
          "name": "tokenId",
          "type": "uint256"
        }
      ],
      "name": "ownerOf",
      "outputs": [
        {
          "internalType": "address",
          "name": "",
          "type": "address"
        }
      ],
      "stateMutability": "view",
      "type": "function"
    },
    {
      "inputs": [
        {
          "internalType": "address",
          "name": "from",
          "type": "address"
        },
        {
          "internalType": "address",
          "name": "to",
          "type": "address"
        },
        {
          "internalType": "uint256",
          "name": "tokenId",
          "type": "uint256"
        }
      ],
      "name": "safeTransferFrom",
      "outputs": [],
      "stateMutability": "nonpayable",
      "type": "function"
    },
    {
      "inputs": [
        {
          "internalType": "address",
          "name": "from",
          "type": "address"
        },
        {
          "internalType": "address",
          "name": "to",
          "type": "address"
        },
        {
          "internalType": "uint256",
          "name": "tokenId",
          "type": "uint256"
        },
        {
          "internalType": "bytes",
          "name": "data",
          "type": "bytes"
        }
      ],
      "name": "safeTransferFrom",
      "outputs": [],
      "stateMutability": "nonpayable",
      "type": "function"
    },
    {
      "inputs": [
        {
          "internalType": "address",
          "name": "operator",
          "type": "address"
        },
        {
          "internalType": "bool",
          "name": "approved",
          "type": "bool"
        }
      ],
      "name": "setApprovalForAll",
      "outputs": [],
      "stateMutability": "nonpayable",
      "type": "function"
    },
    {
      "inputs": [
        {
          "internalType": "bytes4",
          "name": "interfaceId",
          "type": "bytes4"
        }
      ],
      "name": "supportsInterface",
      "outputs": [
        {
          "internalType": "bool",
          "name": "",
          "type": "bool"
        }
      ],
      "stateMutability": "view",
      "type": "function"
    },
    {
      "inputs": [],
      "name": "symbol",
      "outputs": [
        {
          "internalType": "string",
          "name": "",
          "type": "string"
        }
      ],
      "stateMutability": "view",
      "type": "function"
    },
    {
      "inputs": [
        {
          "internalType": "uint256",
          "name": "tokenId",
          "type": "uint256"
        }
      ],
      "name": "tokenURI",
      "outputs": [
        {
          "internalType": "string",
          "name": "",
          "type": "string"
        }
      ],
      "stateMutability": "view",
      "type": "function"
    },
    {
      "inputs": [
        {
          "internalType": "address",
          "name": "from",
          "type": "address"
        },
        {
          "internalType": "address",
          "name": "to",
          "type": "address"
        },
        {
          "internalType": "uint256",
          "name": "tokenId",
          "type": "uint256"
        }
      ],
      "name": "transferFrom",
      "outputs": [],
      "stateMutability": "nonpayable",
      "type": "function"
    },
    {
      "inputs": [],
      "name": "getIssuer",
      "outputs": [
        {
          "internalType": "address",
          "name": "",
          "type": "address"
        }
      ],
      "stateMutability": "view",
      "type": "function"
    },
    {
      "inputs": [],
      "name": "getPrice",
      "outputs": [
        {
          "internalType": "uint256",
          "name": "",
          "type": "uint256"
        }
      ],
      "stateMutability": "view",
      "type": "function"
    },
    {
      "inputs": [
        {
          "internalType": "uint256",
          "name": "_price",
          "type": "uint256"
        }
      ],
      "name": "setPrice",
      "outputs": [
        {
          "internalType": "bool",
          "name": "",
          "type": "bool"
        }
      ],
      "stateMutability": "nonpayable",
      "type": "function"
    },
    {
      "inputs": [
        {
          "internalType": "address",
          "name": "from",
          "type": "address"
        },
        {
          "internalType": "address",
          "name": "to",
          "type": "address"
        }
      ],
      "name": "transferBuy",
      "outputs": [],
      "stateMutability": "nonpayable",
      "type": "function"
    },
    {
      "inputs": [],
      "name": "burn",
      "outputs": [],
      "stateMutability": "nonpayable",
      "type": "function"
    }
  ],
  "bytecode": "0x60806040523480156200001157600080fd5b50604051620033be380380620033be833981810160405281019062000037919062000789565b818181600090816200004a919062000a59565b5080600190816200005c919062000a59565b50505033600760006101000a81548173ffffffffffffffffffffffffffffffffffffffff021916908373ffffffffffffffffffffffffffffffffffffffff160217905550620000b3336000620000bb60201b60201c565b505062000e63565b620000dd828260405180602001604052806000815250620000e160201b60201c565b5050565b620000f383836200014f60201b60201c565b6200010860008484846200039560201b60201c565b6200014a576040517f08c379a0000000000000000000000000000000000000000000000000000000008152600401620001419062000bc7565b60405180910390fd5b505050565b600073ffffffffffffffffffffffffffffffffffffffff168273ffffffffffffffffffffffffffffffffffffffff1603620001c1576040517f08c379a0000000000000000000000000000000000000000000000000000000008152600401620001b89062000c39565b60405180910390fd5b620001d2816200053960201b60201c565b1562000215576040517f08c379a00000000000000000000000000000000000000000000000000000000081526004016200020c9062000cab565b60405180910390fd5b6200022b6000838360016200058260201b60201c565b6200023c816200053960201b60201c565b156200027f576040517f08c379a0000000000000000000000000000000000000000000000000000000008152600401620002769062000cab565b60405180910390fd5b6001600360008473ffffffffffffffffffffffffffffffffffffffff1673ffffffffffffffffffffffffffffffffffffffff16815260200190815260200160002060008282540192505081905550816002600083815260200190815260200160002060006101000a81548173ffffffffffffffffffffffffffffffffffffffff021916908373ffffffffffffffffffffffffffffffffffffffff160217905550808273ffffffffffffffffffffffffffffffffffffffff16600073ffffffffffffffffffffffffffffffffffffffff167fddf252ad1be2c89b69c2b068fc378daa952ba7f163c4a11628f55a4df523b3ef60405160405180910390a4620003916000838360016200058860201b60201c565b5050565b6000620003be8473ffffffffffffffffffffffffffffffffffffffff166200058e60201b60201c565b156200052c578373ffffffffffffffffffffffffffffffffffffffff1663150b7a02620003f0620005b160201b60201c565b8786866040518563ffffffff1660e01b815260040162000414949392919062000d80565b6020604051808303816000875af19250505080156200045357506040513d601f19601f8201168201806040525081019062000450919062000e31565b60015b620004db573d806000811462000486576040519150601f19603f3d011682016040523d82523d6000602084013e6200048b565b606091505b506000815103620004d3576040517f08c379a0000000000000000000000000000000000000000000000000000000008152600401620004ca9062000bc7565b60405180910390fd5b805181602001fd5b63150b7a0260e01b7bffffffffffffffffffffffffffffffffffffffffffffffffffffffff1916817bffffffffffffffffffffffffffffffffffffffffffffffffffffffff19161491505062000531565b600190505b949350505050565b60008073ffffffffffffffffffffffffffffffffffffffff166200056383620005b960201b60201c565b73ffffffffffffffffffffffffffffffffffffffff1614159050919050565b50505050565b50505050565b6000808273ffffffffffffffffffffffffffffffffffffffff163b119050919050565b600033905090565b60006002600083815260200190815260200160002060009054906101000a900473ffffffffffffffffffffffffffffffffffffffff169050919050565b6000604051905090565b600080fd5b600080fd5b600080fd5b600080fd5b6000601f19601f8301169050919050565b7f4e487b7100000000000000000000000000000000000000000000000000000000600052604160045260246000fd5b6200065f8262000614565b810181811067ffffffffffffffff8211171562000681576200068062000625565b5b80604052505050565b600062000696620005f6565b9050620006a4828262000654565b919050565b600067ffffffffffffffff821115620006c757620006c662000625565b5b620006d28262000614565b9050602081019050919050565b60005b83811015620006ff578082015181840152602081019050620006e2565b60008484015250505050565b6000620007226200071c84620006a9565b6200068a565b9050828152602081018484840111156200074157620007406200060f565b5b6200074e848285620006df565b509392505050565b600082601f8301126200076e576200076d6200060a565b5b8151620007808482602086016200070b565b91505092915050565b60008060408385031215620007a357620007a262000600565b5b600083015167ffffffffffffffff811115620007c457620007c362000605565b5b620007d28582860162000756565b925050602083015167ffffffffffffffff811115620007f657620007f562000605565b5b620008048582860162000756565b9150509250929050565b600081519050919050565b7f4e487b7100000000000000000000000000000000000000000000000000000000600052602260045260246000fd5b600060028204905060018216806200086157607f821691505b60208210810362000877576200087662000819565b5b50919050565b60008190508160005260206000209050919050565b60006020601f8301049050919050565b600082821b905092915050565b600060088302620008e17fffffffffffffffffffffffffffffffffffffffffffffffffffffffffffffffff82620008a2565b620008ed8683620008a2565b95508019841693508086168417925050509392505050565b6000819050919050565b6000819050919050565b60006200093a620009346200092e8462000905565b6200090f565b62000905565b9050919050565b6000819050919050565b620009568362000919565b6200096e620009658262000941565b848454620008af565b825550505050565b600090565b6200098562000976565b620009928184846200094b565b505050565b5b81811015620009ba57620009ae6000826200097b565b60018101905062000998565b5050565b601f82111562000a0957620009d3816200087d565b620009de8462000892565b81016020851015620009ee578190505b62000a06620009fd8562000892565b83018262000997565b50505b505050565b600082821c905092915050565b600062000a2e6000198460080262000a0e565b1980831691505092915050565b600062000a49838362000a1b565b9150826002028217905092915050565b62000a64826200080e565b67ffffffffffffffff81111562000a805762000a7f62000625565b5b62000a8c825462000848565b62000a99828285620009be565b600060209050601f83116001811462000ad1576000841562000abc578287015190505b62000ac8858262000a3b565b86555062000b38565b601f19841662000ae1866200087d565b60005b8281101562000b0b5784890151825560018201915060208501945060208101905062000ae4565b8683101562000b2b578489015162000b27601f89168262000a1b565b8355505b6001600288020188555050505b505050505050565b600082825260208201905092915050565b7f4552433732313a207472616e7366657220746f206e6f6e20455243373231526560008201527f63656976657220696d706c656d656e7465720000000000000000000000000000602082015250565b600062000baf60328362000b40565b915062000bbc8262000b51565b604082019050919050565b6000602082019050818103600083015262000be28162000ba0565b9050919050565b7f4552433732313a206d696e7420746f20746865207a65726f2061646472657373600082015250565b600062000c2160208362000b40565b915062000c2e8262000be9565b602082019050919050565b6000602082019050818103600083015262000c548162000c12565b9050919050565b7f4552433732313a20746f6b656e20616c7265616479206d696e74656400000000600082015250565b600062000c93601c8362000b40565b915062000ca08262000c5b565b602082019050919050565b6000602082019050818103600083015262000cc68162000c84565b9050919050565b600073ffffffffffffffffffffffffffffffffffffffff82169050919050565b600062000cfa8262000ccd565b9050919050565b62000d0c8162000ced565b82525050565b62000d1d8162000905565b82525050565b600081519050919050565b600082825260208201905092915050565b600062000d4c8262000d23565b62000d58818562000d2e565b935062000d6a818560208601620006df565b62000d758162000614565b840191505092915050565b600060808201905062000d97600083018762000d01565b62000da6602083018662000d01565b62000db5604083018562000d12565b818103606083015262000dc9818462000d3f565b905095945050505050565b60007fffffffff0000000000000000000000000000000000000000000000000000000082169050919050565b62000e0b8162000dd4565b811462000e1757600080fd5b50565b60008151905062000e2b8162000e00565b92915050565b60006020828403121562000e4a5762000e4962000600565b5b600062000e5a8482850162000e1a565b91505092915050565b61254b8062000e736000396000f3fe608060405234801561001057600080fd5b50600436106101165760003560e01c80636352211e116100a257806398d5fdca1161007157806398d5fdca146102df578063a22cb465146102fd578063b88d4fde14610319578063c87b56dd14610335578063e985e9c51461036557610116565b80636352211e1461023157806370a082311461026157806391b7f5ed1461029157806395d89b41146102c157610116565b8063095ea7b3116100e9578063095ea7b3146101b557806323b872dd146101d157806342842e0e146101ed57806344df8e7014610209578063525564211461021357610116565b806301ffc9a71461011b578063066830711461014b57806306fdde0314610167578063081812fc14610185575b600080fd5b61013560048036038101906101309190611867565b610395565b60405161014291906118af565b60405180910390f35b61016560048036038101906101609190611928565b610477565b005b61016f6104d1565b60405161017c91906119f8565b60405180910390f35b61019f600480360381019061019a9190611a50565b610563565b6040516101ac9190611a8c565b60405180910390f35b6101cf60048036038101906101ca9190611aa7565b6105a9565b005b6101eb60048036038101906101e69190611ae7565b6106c0565b005b61020760048036038101906102029190611ae7565b610720565b005b610211610740565b005b61021b610758565b6040516102289190611a8c565b60405180910390f35b61024b60048036038101906102469190611a50565b610782565b6040516102589190611a8c565b60405180910390f35b61027b60048036038101906102769190611b3a565b610808565b6040516102889190611b76565b60405180910390f35b6102ab60048036038101906102a69190611a50565b6108bf565b6040516102b891906118af565b60405180910390f35b6102c9610965565b6040516102d691906119f8565b60405180910390f35b6102e76109f7565b6040516102f49190611b76565b60405180910390f35b61031760048036038101906103129190611bbd565b610a01565b005b610333600480360381019061032e9190611d32565b610a17565b005b61034f600480360381019061034a9190611a50565b610a79565b60405161035c91906119f8565b60405180910390f35b61037f600480360381019061037a9190611928565b610ae1565b60405161038c91906118af565b60405180910390f35b60007f80ac58cd000000000000000000000000000000000000000000000000000000007bffffffffffffffffffffffffffffffffffffffffffffffffffffffff1916827bffffffffffffffffffffffffffffffffffffffffffffffffffffffff1916148061046057507f5b5e139f000000000000000000000000000000000000000000000000000000007bffffffffffffffffffffffffffffffffffffffffffffffffffffffff1916827bffffffffffffffffffffffffffffffffffffffffffffffffffffffff1916145b80610470575061046f82610b75565b5b9050919050565b610482336000610bdf565b6104c1576040517f08c379a00000000000000000000000000000000000000000000000000000000081526004016104b890611e4d565b60405180910390fd5b6104cd828260006106c0565b5050565b6060600080546104e090611e9c565b80601f016020809104026020016040519081016040528092919081815260200182805461050c90611e9c565b80156105595780601f1061052e57610100808354040283529160200191610559565b820191906000526020600020905b81548152906001019060200180831161053c57829003601f168201915b5050505050905090565b600061056e82610c74565b6004600083815260200190815260200160002060009054906101000a900473ffffffffffffffffffffffffffffffffffffffff169050919050565b60006105b482610782565b90508073ffffffffffffffffffffffffffffffffffffffff168373ffffffffffffffffffffffffffffffffffffffff1603610624576040517f08c379a000000000000000000000000000000000000000000000000000000000815260040161061b90611f3f565b60405180910390fd5b8073ffffffffffffffffffffffffffffffffffffffff16610643610cbf565b73ffffffffffffffffffffffffffffffffffffffff16148061067257506106718161066c610cbf565b610ae1565b5b6106b1576040517f08c379a00000000000000000000000000000000000000000000000000000000081526004016106a890611fd1565b60405180910390fd5b6106bb8383610cc7565b505050565b6106d16106cb610cbf565b82610bdf565b610710576040517f08c379a000000000000000000000000000000000000000000000000000000000815260040161070790612063565b60405180910390fd5b61071b838383610d80565b505050565b61073b83838360405180602001604052806000815250610a17565b505050565b61074b326000610bdf565b506107566000611079565b565b6000600760009054906101000a900473ffffffffffffffffffffffffffffffffffffffff16905090565b60008061078e836111c7565b9050600073ffffffffffffffffffffffffffffffffffffffff168173ffffffffffffffffffffffffffffffffffffffff16036107ff576040517f08c379a00000000000000000000000000000000000000000000000000000000081526004016107f6906120cf565b60405180910390fd5b80915050919050565b60008073ffffffffffffffffffffffffffffffffffffffff168273ffffffffffffffffffffffffffffffffffffffff1603610878576040517f08c379a000000000000000000000000000000000000000000000000000000000815260040161086f90612161565b60405180910390fd5b600360008373ffffffffffffffffffffffffffffffffffffffff1673ffffffffffffffffffffffffffffffffffffffff168152602001908152602001600020549050919050565b60006108cc326000610bdf565b61090b576040517f08c379a000000000000000000000000000000000000000000000000000000000815260040161090290611e4d565b60405180910390fd5b610916336000610bdf565b610955576040517f08c379a000000000000000000000000000000000000000000000000000000000815260040161094c90611e4d565b60405180910390fd5b8160068190555060019050919050565b60606001805461097490611e9c565b80601f01602080910402602001604051908101604052809291908181526020018280546109a090611e9c565b80156109ed5780601f106109c2576101008083540402835291602001916109ed565b820191906000526020600020905b8154815290600101906020018083116109d057829003601f168201915b5050505050905090565b6000600654905090565b610a13610a0c610cbf565b8383611204565b5050565b610a28610a22610cbf565b83610bdf565b610a67576040517f08c379a0000000000000000000000000000000000000000000000000000000008152600401610a5e90612063565b60405180910390fd5b610a7384848484611370565b50505050565b6060610a8482610c74565b6000610a8e6113cc565b90506000815111610aae5760405180602001604052806000815250610ad9565b80610ab8846113e3565b604051602001610ac99291906121bd565b6040516020818303038152906040525b915050919050565b6000600560008473ffffffffffffffffffffffffffffffffffffffff1673ffffffffffffffffffffffffffffffffffffffff16815260200190815260200160002060008373ffffffffffffffffffffffffffffffffffffffff1673ffffffffffffffffffffffffffffffffffffffff16815260200190815260200160002060009054906101000a900460ff16905092915050565b60007f01ffc9a7000000000000000000000000000000000000000000000000000000007bffffffffffffffffffffffffffffffffffffffffffffffffffffffff1916827bffffffffffffffffffffffffffffffffffffffffffffffffffffffff1916149050919050565b600080610beb83610782565b90508073ffffffffffffffffffffffffffffffffffffffff168473ffffffffffffffffffffffffffffffffffffffff161480610c2d5750610c2c8185610ae1565b5b80610c6b57508373ffffffffffffffffffffffffffffffffffffffff16610c5384610563565b73ffffffffffffffffffffffffffffffffffffffff16145b91505092915050565b610c7d816114b1565b610cbc576040517f08c379a0000000000000000000000000000000000000000000000000000000008152600401610cb3906120cf565b60405180910390fd5b50565b600033905090565b816004600083815260200190815260200160002060006101000a81548173ffffffffffffffffffffffffffffffffffffffff021916908373ffffffffffffffffffffffffffffffffffffffff160217905550808273ffffffffffffffffffffffffffffffffffffffff16610d3a83610782565b73ffffffffffffffffffffffffffffffffffffffff167f8c5be1e5ebec7d5bd14f71427d1e84f3dd0314c0f7b2291e5b200ac8c7c3b92560405160405180910390a45050565b8273ffffffffffffffffffffffffffffffffffffffff16610da082610782565b73ffffffffffffffffffffffffffffffffffffffff1614610df6576040517f08c379a0000000000000000000000000000000000000000000000000000000008152600401610ded90612253565b60405180910390fd5b600073ffffffffffffffffffffffffffffffffffffffff168273ffffffffffffffffffffffffffffffffffffffff1603610e65576040517f08c379a0000000000000000000000000000000000000000000000000000000008152600401610e5c906122e5565b60405180910390fd5b610e7283838360016114f2565b8273ffffffffffffffffffffffffffffffffffffffff16610e9282610782565b73ffffffffffffffffffffffffffffffffffffffff1614610ee8576040517f08c379a0000000000000000000000000000000000000000000000000000000008152600401610edf90612253565b60405180910390fd5b6004600082815260200190815260200160002060006101000a81549073ffffffffffffffffffffffffffffffffffffffff02191690556001600360008573ffffffffffffffffffffffffffffffffffffffff1673ffffffffffffffffffffffffffffffffffffffff168152602001908152602001600020600082825403925050819055506001600360008473ffffffffffffffffffffffffffffffffffffffff1673ffffffffffffffffffffffffffffffffffffffff16815260200190815260200160002060008282540192505081905550816002600083815260200190815260200160002060006101000a81548173ffffffffffffffffffffffffffffffffffffffff021916908373ffffffffffffffffffffffffffffffffffffffff160217905550808273ffffffffffffffffffffffffffffffffffffffff168473ffffffffffffffffffffffffffffffffffffffff167fddf252ad1be2c89b69c2b068fc378daa952ba7f163c4a11628f55a4df523b3ef60405160405180910390a461107483838360016114f8565b505050565b600061108482610782565b90506110948160008460016114f2565b61109d82610782565b90506004600083815260200190815260200160002060006101000a81549073ffffffffffffffffffffffffffffffffffffffff02191690556001600360008373ffffffffffffffffffffffffffffffffffffffff1673ffffffffffffffffffffffffffffffffffffffff168152602001908152602001600020600082825403925050819055506002600083815260200190815260200160002060006101000a81549073ffffffffffffffffffffffffffffffffffffffff021916905581600073ffffffffffffffffffffffffffffffffffffffff168273ffffffffffffffffffffffffffffffffffffffff167fddf252ad1be2c89b69c2b068fc378daa952ba7f163c4a11628f55a4df523b3ef60405160405180910390a46111c38160008460016114f8565b5050565b60006002600083815260200190815260200160002060009054906101000a900473ffffffffffffffffffffffffffffffffffffffff169050919050565b8173ffffffffffffffffffffffffffffffffffffffff168373ffffffffffffffffffffffffffffffffffffffff1603611272576040517f08c379a000000000000000000000000000000000000000000000000000000000815260040161126990612351565b60405180910390fd5b80600560008573ffffffffffffffffffffffffffffffffffffffff1673ffffffffffffffffffffffffffffffffffffffff16815260200190815260200160002060008473ffffffffffffffffffffffffffffffffffffffff1673ffffffffffffffffffffffffffffffffffffffff16815260200190815260200160002060006101000a81548160ff0219169083151502179055508173ffffffffffffffffffffffffffffffffffffffff168373ffffffffffffffffffffffffffffffffffffffff167f17307eab39ab6107e8899845ad3d59bd9653f200f220920489ca2b5937696c318360405161136391906118af565b60405180910390a3505050565b61137b848484610d80565b611387848484846114fe565b6113c6576040517f08c379a00000000000000000000000000000000000000000000000000000000081526004016113bd906123e3565b60405180910390fd5b50505050565b606060405180602001604052806000815250905090565b6060600060016113f284611685565b01905060008167ffffffffffffffff81111561141157611410611c07565b5b6040519080825280601f01601f1916602001820160405280156114435781602001600182028036833780820191505090505b509050600082602001820190505b6001156114a6578080600190039150507f3031323334353637383961626364656600000000000000000000000000000000600a86061a8153600a858161149a57611499612403565b5b04945060008503611451575b819350505050919050565b60008073ffffffffffffffffffffffffffffffffffffffff166114d3836111c7565b73ffffffffffffffffffffffffffffffffffffffff1614159050919050565b50505050565b50505050565b600061151f8473ffffffffffffffffffffffffffffffffffffffff166117d8565b15611678578373ffffffffffffffffffffffffffffffffffffffff1663150b7a02611548610cbf565b8786866040518563ffffffff1660e01b815260040161156a9493929190612487565b6020604051808303816000875af19250505080156115a657506040513d601f19601f820116820180604052508101906115a391906124e8565b60015b611628573d80600081146115d6576040519150601f19603f3d011682016040523d82523d6000602084013e6115db565b606091505b506000815103611620576040517f08c379a0000000000000000000000000000000000000000000000000000000008152600401611617906123e3565b60405180910390fd5b805181602001fd5b63150b7a0260e01b7bffffffffffffffffffffffffffffffffffffffffffffffffffffffff1916817bffffffffffffffffffffffffffffffffffffffffffffffffffffffff19161491505061167d565b600190505b949350505050565b600080600090507a184f03e93ff9f4daa797ed6e38ed64bf6a1f01000000000000000083106116e3577a184f03e93ff9f4daa797ed6e38ed64bf6a1f01000000000000000083816116d9576116d8612403565b5b0492506040810190505b6d04ee2d6d415b85acef81000000008310611720576d04ee2d6d415b85acef8100000000838161171657611715612403565b5b0492506020810190505b662386f26fc10000831061174f57662386f26fc10000838161174557611744612403565b5b0492506010810190505b6305f5e1008310611778576305f5e100838161176e5761176d612403565b5b0492506008810190505b612710831061179d57612710838161179357611792612403565b5b0492506004810190505b606483106117c057606483816117b6576117b5612403565b5b0492506002810190505b600a83106117cf576001810190505b80915050919050565b6000808273ffffffffffffffffffffffffffffffffffffffff163b119050919050565b6000604051905090565b600080fd5b600080fd5b60007fffffffff0000000000000000000000000000000000000000000000000000000082169050919050565b6118448161180f565b811461184f57600080fd5b50565b6000813590506118618161183b565b92915050565b60006020828403121561187d5761187c611805565b5b600061188b84828501611852565b91505092915050565b60008115159050919050565b6118a981611894565b82525050565b60006020820190506118c460008301846118a0565b92915050565b600073ffffffffffffffffffffffffffffffffffffffff82169050919050565b60006118f5826118ca565b9050919050565b611905816118ea565b811461191057600080fd5b50565b600081359050611922816118fc565b92915050565b6000806040838503121561193f5761193e611805565b5b600061194d85828601611913565b925050602061195e85828601611913565b9150509250929050565b600081519050919050565b600082825260208201905092915050565b60005b838110156119a2578082015181840152602081019050611987565b60008484015250505050565b6000601f19601f8301169050919050565b60006119ca82611968565b6119d48185611973565b93506119e4818560208601611984565b6119ed816119ae565b840191505092915050565b60006020820190508181036000830152611a1281846119bf565b905092915050565b6000819050919050565b611a2d81611a1a565b8114611a3857600080fd5b50565b600081359050611a4a81611a24565b92915050565b600060208284031215611a6657611a65611805565b5b6000611a7484828501611a3b565b91505092915050565b611a86816118ea565b82525050565b6000602082019050611aa16000830184611a7d565b92915050565b60008060408385031215611abe57611abd611805565b5b6000611acc85828601611913565b9250506020611add85828601611a3b565b9150509250929050565b600080600060608486031215611b0057611aff611805565b5b6000611b0e86828701611913565b9350506020611b1f86828701611913565b9250506040611b3086828701611a3b565b9150509250925092565b600060208284031215611b5057611b4f611805565b5b6000611b5e84828501611913565b91505092915050565b611b7081611a1a565b82525050565b6000602082019050611b8b6000830184611b67565b92915050565b611b9a81611894565b8114611ba557600080fd5b50565b600081359050611bb781611b91565b92915050565b60008060408385031215611bd457611bd3611805565b5b6000611be285828601611913565b9250506020611bf385828601611ba8565b9150509250929050565b600080fd5b600080fd5b7f4e487b7100000000000000000000000000000000000000000000000000000000600052604160045260246000fd5b611c3f826119ae565b810181811067ffffffffffffffff82111715611c5e57611c5d611c07565b5b80604052505050565b6000611c716117fb565b9050611c7d8282611c36565b919050565b600067ffffffffffffffff821115611c9d57611c9c611c07565b5b611ca6826119ae565b9050602081019050919050565b82818337600083830152505050565b6000611cd5611cd084611c82565b611c67565b905082815260208101848484011115611cf157611cf0611c02565b5b611cfc848285611cb3565b509392505050565b600082601f830112611d1957611d18611bfd565b5b8135611d29848260208601611cc2565b91505092915050565b60008060008060808587031215611d4c57611d4b611805565b5b6000611d5a87828801611913565b9450506020611d6b87828801611913565b9350506040611d7c87828801611a3b565b925050606085013567ffffffffffffffff811115611d9d57611d9c61180a565b5b611da987828801611d04565b91505092959194509250565b7f546865207472616e73616374696f6e206f726967696e2063616c6c657220697360008201527f206e6f7420616c6c6f77656420746f20706572666f726d20746869732061637460208201527f696f6e0000000000000000000000000000000000000000000000000000000000604082015250565b6000611e37604383611973565b9150611e4282611db5565b606082019050919050565b60006020820190508181036000830152611e6681611e2a565b9050919050565b7f4e487b7100000000000000000000000000000000000000000000000000000000600052602260045260246000fd5b60006002820490506001821680611eb457607f821691505b602082108103611ec757611ec6611e6d565b5b50919050565b7f4552433732313a20617070726f76616c20746f2063757272656e74206f776e6560008201527f7200000000000000000000000000000000000000000000000000000000000000602082015250565b6000611f29602183611973565b9150611f3482611ecd565b604082019050919050565b60006020820190508181036000830152611f5881611f1c565b9050919050565b7f4552433732313a20617070726f76652063616c6c6572206973206e6f7420746f60008201527f6b656e206f776e6572206f7220617070726f76656420666f7220616c6c000000602082015250565b6000611fbb603d83611973565b9150611fc682611f5f565b604082019050919050565b60006020820190508181036000830152611fea81611fae565b9050919050565b7f4552433732313a2063616c6c6572206973206e6f7420746f6b656e206f776e6560008201527f72206f7220617070726f76656400000000000000000000000000000000000000602082015250565b600061204d602d83611973565b915061205882611ff1565b604082019050919050565b6000602082019050818103600083015261207c81612040565b9050919050565b7f4552433732313a20696e76616c696420746f6b656e2049440000000000000000600082015250565b60006120b9601883611973565b91506120c482612083565b602082019050919050565b600060208201905081810360008301526120e8816120ac565b9050919050565b7f4552433732313a2061646472657373207a65726f206973206e6f74206120766160008201527f6c6964206f776e65720000000000000000000000000000000000000000000000602082015250565b600061214b602983611973565b9150612156826120ef565b604082019050919050565b6000602082019050818103600083015261217a8161213e565b9050919050565b600081905092915050565b600061219782611968565b6121a18185612181565b93506121b1818560208601611984565b80840191505092915050565b60006121c9828561218c565b91506121d5828461218c565b91508190509392505050565b7f4552433732313a207472616e736665722066726f6d20696e636f72726563742060008201527f6f776e6572000000000000000000000000000000000000000000000000000000602082015250565b600061223d602583611973565b9150612248826121e1565b604082019050919050565b6000602082019050818103600083015261226c81612230565b9050919050565b7f4552433732313a207472616e7366657220746f20746865207a65726f2061646460008201527f7265737300000000000000000000000000000000000000000000000000000000602082015250565b60006122cf602483611973565b91506122da82612273565b604082019050919050565b600060208201905081810360008301526122fe816122c2565b9050919050565b7f4552433732313a20617070726f766520746f2063616c6c657200000000000000600082015250565b600061233b601983611973565b915061234682612305565b602082019050919050565b6000602082019050818103600083015261236a8161232e565b9050919050565b7f4552433732313a207472616e7366657220746f206e6f6e20455243373231526560008201527f63656976657220696d706c656d656e7465720000000000000000000000000000602082015250565b60006123cd603283611973565b91506123d882612371565b604082019050919050565b600060208201905081810360008301526123fc816123c0565b9050919050565b7f4e487b7100000000000000000000000000000000000000000000000000000000600052601260045260246000fd5b600081519050919050565b600082825260208201905092915050565b600061245982612432565b612463818561243d565b9350612473818560208601611984565b61247c816119ae565b840191505092915050565b600060808201905061249c6000830187611a7d565b6124a96020830186611a7d565b6124b66040830185611b67565b81810360608301526124c8818461244e565b905095945050505050565b6000815190506124e28161183b565b92915050565b6000602082840312156124fe576124fd611805565b5b600061250c848285016124d3565b9150509291505056fea26469706673582212201dbbb4426b4870ee01e372b96833ded119a2d23cce75adce252a828ef270cbcc64736f6c63430008130033",
  "immutableReferences": {},
  "source": "// SPDX-License-Identifier: MIT\npragma solidity ^0.8.13;\n\nimport \"@openzeppelin/contracts/token/ERC721/ERC721.sol\";\n//add for debugging purpuse\n//import \"truffle/console.sol\";\n\ncontract HNFT is ERC721 {\n    uint price;\n    address issuer;\n\n    constructor(\n        string memory _name,\n        string memory _symbol\n    ) ERC721(_name, _symbol) {\n        issuer = msg.sender;\n        _safeMint(msg.sender, 0);\n    }\n\n    function getIssuer() external view returns (address) {\n        return issuer;\n    }\n\n    function getPrice() external view returns (uint) {\n        return price;\n    }\n\n    function setPrice(uint _price) public returns (bool) {\n        require(\n            _isApprovedOrOwner(tx.origin, 0),\n            \"The transaction origin caller is not allowed to perform this action\"\n        );\n        require(\n            _isApprovedOrOwner(msg.sender, 0),\n            \"The transaction origin caller is not allowed to perform this action\"\n        );\n        price = _price;\n        return true;\n    }\n\n    function transferBuy(address from, address to) public {\n        require(\n            _isApprovedOrOwner(msg.sender, 0),\n            \"The transaction origin caller is not allowed to perform this action\"\n        );\n        super.transferFrom(from, to, 0);\n    }\n\n    function burn() public {\n        _isApprovedOrOwner(tx.origin, 0);\n        super._burn(0);\n    }\n}\n",
  "sourcePath": "/home/andrea/BlockchainProject/contracts/HNFT.sol",
  "compiler": {
    "name": "solc",
    "version": "0.8.19+commit.7dd6d404.Emscripten.clang"
  },
  "schemaVersion": "3.4.13",
  "updatedAt": "2023-06-03T10:20:33.503Z",
  "devdoc": {
    "events": {
      "Approval(address,address,uint256)": {
        "details": "Emitted when `owner` enables `approved` to manage the `tokenId` token."
      },
      "ApprovalForAll(address,address,bool)": {
        "details": "Emitted when `owner` enables or disables (`approved`) `operator` to manage all of its assets."
      },
      "Transfer(address,address,uint256)": {
        "details": "Emitted when `tokenId` token is transferred from `from` to `to`."
      }
    },
    "kind": "dev",
    "methods": {
      "approve(address,uint256)": {
        "details": "See {IERC721-approve}."
      },
      "balanceOf(address)": {
        "details": "See {IERC721-balanceOf}."
      },
      "getApproved(uint256)": {
        "details": "See {IERC721-getApproved}."
      },
      "isApprovedForAll(address,address)": {
        "details": "See {IERC721-isApprovedForAll}."
      },
      "name()": {
        "details": "See {IERC721Metadata-name}."
      },
      "ownerOf(uint256)": {
        "details": "See {IERC721-ownerOf}."
      },
      "safeTransferFrom(address,address,uint256)": {
        "details": "See {IERC721-safeTransferFrom}."
      },
      "safeTransferFrom(address,address,uint256,bytes)": {
        "details": "See {IERC721-safeTransferFrom}."
      },
      "setApprovalForAll(address,bool)": {
        "details": "See {IERC721-setApprovalForAll}."
      },
      "supportsInterface(bytes4)": {
        "details": "See {IERC165-supportsInterface}."
      },
      "symbol()": {
        "details": "See {IERC721Metadata-symbol}."
      },
      "tokenURI(uint256)": {
        "details": "See {IERC721Metadata-tokenURI}."
      },
      "transferFrom(address,address,uint256)": {
        "details": "See {IERC721-transferFrom}."
      }
    },
    "version": 1
  },
  "userdoc": {
    "kind": "user",
    "methods": {},
    "version": 1
  }
}