{
  "contractName": "MainSmartContract",
  "abi": [
    {
      "inputs": [],
      "stateMutability": "nonpayable",
      "type": "constructor"
    },
    {
      "anonymous": false,
      "inputs": [
        {
          "indexed": true,
          "internalType": "address",
          "name": "HNFTAddress",
          "type": "address"
        },
        {
          "indexed": false,
          "internalType": "string",
          "name": "message",
          "type": "string"
        },
        {
          "indexed": false,
          "internalType": "address",
          "name": "requester",
          "type": "address"
        }
      ],
      "name": "GetPhysicalHoney",
      "type": "event"
    },
    {
      "inputs": [],
      "name": "getIssuedItems",
      "outputs": [
        {
          "internalType": "address[]",
          "name": "",
          "type": "address[]"
        }
      ],
      "stateMutability": "view",
      "type": "function"
    },
    {
      "inputs": [],
      "name": "getInSellItems",
      "outputs": [
        {
          "internalType": "address[]",
          "name": "",
          "type": "address[]"
        }
      ],
      "stateMutability": "view",
      "type": "function"
    },
    {
      "inputs": [
        {
          "internalType": "address",
          "name": "NFTAddress",
          "type": "address"
        },
        {
          "internalType": "uint256",
          "name": "_price",
          "type": "uint256"
        }
      ],
      "name": "sell",
      "outputs": [
        {
          "internalType": "bytes",
          "name": "",
          "type": "bytes"
        }
      ],
      "stateMutability": "nonpayable",
      "type": "function"
    },
    {
      "inputs": [
        {
          "internalType": "address",
          "name": "NFTAddress",
          "type": "address"
        },
        {
          "internalType": "uint256",
          "name": "_price",
          "type": "uint256"
        }
      ],
      "name": "setPrice",
      "outputs": [
        {
          "internalType": "bool",
          "name": "",
          "type": "bool"
        }
      ],
      "stateMutability": "nonpayable",
      "type": "function"
    },
    {
      "inputs": [
        {
          "internalType": "address",
          "name": "NFTAddress",
          "type": "address"
        },
        {
          "internalType": "address",
          "name": "ownerOfNft",
          "type": "address"
        }
      ],
      "name": "buy",
      "outputs": [],
      "stateMutability": "payable",
      "type": "function"
    },
    {
      "inputs": [
        {
          "internalType": "address",
          "name": "NFTAddress",
          "type": "address"
        }
      ],
      "name": "CheckValidity",
      "outputs": [
        {
          "internalType": "bool",
          "name": "",
          "type": "bool"
        }
      ],
      "stateMutability": "view",
      "type": "function"
    },
    {
      "inputs": [
        {
          "internalType": "address",
          "name": "NFTAddress",
          "type": "address"
        }
      ],
      "name": "removeInSellItem",
      "outputs": [],
      "stateMutability": "nonpayable",
      "type": "function"
    },
    {
      "inputs": [],
      "name": "burn",
      "outputs": [
        {
          "internalType": "bool",
          "name": "",
          "type": "bool"
        }
      ],
      "stateMutability": "nonpayable",
      "type": "function"
    }
  ],
  "bytecode": "0x608060405234801561001057600080fd5b50336000806101000a81548173ffffffffffffffffffffffffffffffffffffffff021916908373ffffffffffffffffffffffffffffffffffffffff160217905550611d1e806100606000396000f3fe60806040526004361061007a5760003560e01c80636c197ff51161004e5780636c197ff51461013b5780638e61171414610178578063ad7fadc5146101b5578063ccee9261146101d15761007a565b8062e4768b1461007f5780630a485550146100bc57806344df8e70146100e75780635021bd8514610112575b600080fd5b34801561008b57600080fd5b506100a660048036038101906100a191906112e8565b6101fc565b6040516100b39190611343565b60405180910390f35b3480156100c857600080fd5b506100d16103d2565b6040516100de919061141c565b60405180910390f35b3480156100f357600080fd5b506100fc610460565b6040516101099190611343565b60405180910390f35b34801561011e57600080fd5b506101396004803603810190610134919061143e565b610710565b005b34801561014757600080fd5b50610162600480360381019061015d91906112e8565b6107eb565b60405161016f91906114fb565b60405180910390f35b34801561018457600080fd5b5061019f600480360381019061019a919061143e565b610abb565b6040516101ac9190611343565b60405180910390f35b6101cf60048036038101906101ca919061151d565b610b65565b005b3480156101dd57600080fd5b506101e6610e9b565b6040516101f3919061141c565b60405180910390f35b60008060009054906101000a900473ffffffffffffffffffffffffffffffffffffffff1673ffffffffffffffffffffffffffffffffffffffff163373ffffffffffffffffffffffffffffffffffffffff161461028d576040517f08c379a0000000000000000000000000000000000000000000000000000000008152600401610284906115e0565b60405180910390fd5b60008373ffffffffffffffffffffffffffffffffffffffff16836040516024016102b7919061160f565b6040516020818303038152906040527f91b7f5ed000000000000000000000000000000000000000000000000000000007bffffffffffffffffffffffffffffffffffffffffffffffffffffffff19166020820180517bffffffffffffffffffffffffffffffffffffffffffffffffffffffff83818316178352505050506040516103419190611666565b6000604051808303816000865af19150503d806000811461037e576040519150601f19603f3d011682016040523d82523d6000602084013e610383565b606091505b50509050806103c7576040517f08c379a00000000000000000000000000000000000000000000000000000000081526004016103be906116c9565b60405180910390fd5b600191505092915050565b6060600180548060200260200160405190810160405280929190818152602001828054801561045657602002820191906000526020600020905b8160009054906101000a900473ffffffffffffffffffffffffffffffffffffffff1673ffffffffffffffffffffffffffffffffffffffff168152602001906001019080831161040c575b5050505050905090565b600080606060003390508073ffffffffffffffffffffffffffffffffffffffff166000604051602401610493919061173b565b6040516020818303038152906040527f6352211e000000000000000000000000000000000000000000000000000000007bffffffffffffffffffffffffffffffffffffffffffffffffffffffff19166020820180517bffffffffffffffffffffffffffffffffffffffffffffffffffffffff838183161783525050505060405161051d9190611666565b6000604051808303816000865af19150503d806000811461055a576040519150601f19603f3d011682016040523d82523d6000602084013e61055f565b606091505b5080935081945050506105f83360018054806020026020016040519081016040528092919081815260200182805480156105ee57602002820191906000526020600020905b8160009054906101000a900473ffffffffffffffffffffffffffffffffffffffff1673ffffffffffffffffffffffffffffffffffffffff16815260200190600101908083116105a4575b5050505050610f29565b610637576040517f08c379a000000000000000000000000000000000000000000000000000000000815260040161062e906117c8565b60405180910390fd5b3273ffffffffffffffffffffffffffffffffffffffff16828060200190518101906106629190611826565b73ffffffffffffffffffffffffffffffffffffffff16146106b8576040517f08c379a00000000000000000000000000000000000000000000000000000000081526004016106af906118c5565b60405180910390fd5b8073ffffffffffffffffffffffffffffffffffffffff167f77cd49935b3697bb6b1454fc79d2450e25a35f6ff1f5f0ed6c3a1300cb4edf45326040516106fe9190611966565b60405180910390a26001935050505090565b60008054906101000a900473ffffffffffffffffffffffffffffffffffffffff1673ffffffffffffffffffffffffffffffffffffffff163373ffffffffffffffffffffffffffffffffffffffff161461079e576040517f08c379a0000000000000000000000000000000000000000000000000000000008152600401610795906115e0565b60405180910390fd5b6107a9600282610fb0565b6107e8576040517f08c379a00000000000000000000000000000000000000000000000000000000081526004016107df90611a06565b60405180910390fd5b50565b606060008054906101000a900473ffffffffffffffffffffffffffffffffffffffff1673ffffffffffffffffffffffffffffffffffffffff163373ffffffffffffffffffffffffffffffffffffffff161461087b576040517f08c379a0000000000000000000000000000000000000000000000000000000008152600401610872906115e0565b60405180910390fd5b61090b83600280548060200260200160405190810160405280929190818152602001828054801561090157602002820191906000526020600020905b8160009054906101000a900473ffffffffffffffffffffffffffffffffffffffff1673ffffffffffffffffffffffffffffffffffffffff16815260200190600101908083116108b7575b5050505050610f29565b6109b75761091883611183565b6109a883600180548060200260200160405190810160405280929190818152602001828054801561099e57602002820191906000526020600020905b8160009054906101000a900473ffffffffffffffffffffffffffffffffffffffff1673ffffffffffffffffffffffffffffffffffffffff1681526020019060010190808311610954575b5050505050610f29565b6109b6576109b5836111e9565b5b5b60008373ffffffffffffffffffffffffffffffffffffffff16836040516024016109e1919061160f565b6040516020818303038152906040527f91b7f5ed000000000000000000000000000000000000000000000000000000007bffffffffffffffffffffffffffffffffffffffffffffffffffffffff19166020820180517bffffffffffffffffffffffffffffffffffffffffffffffffffffffff8381831617835250505050604051610a6b9190611666565b6000604051808303816000865af19150503d8060008114610aa8576040519150601f19603f3d011682016040523d82523d6000602084013e610aad565b606091505b509150508091505092915050565b6000610b4d826001805480602002602001604051908101604052809291908181526020018280548015610b4357602002820191906000526020600020905b8160009054906101000a900473ffffffffffffffffffffffffffffffffffffffff1673ffffffffffffffffffffffffffffffffffffffff1681526020019060010190808311610af9575b5050505050610f29565b15610b5b5760019050610b60565b600090505b919050565b60008273ffffffffffffffffffffffffffffffffffffffff166040516024016040516020818303038152906040527f98d5fdca000000000000000000000000000000000000000000000000000000007bffffffffffffffffffffffffffffffffffffffffffffffffffffffff19166020820180517bffffffffffffffffffffffffffffffffffffffffffffffffffffffff8381831617835250505050604051610c0e9190611666565b6000604051808303816000865af19150503d8060008114610c4b576040519150601f19603f3d011682016040523d82523d6000602084013e610c50565b606091505b50915050600081806020019051810190610c6a9190611a3b565b9050670de0b6b3a764000081610c809190611a97565b3414610cc1576040517f08c379a0000000000000000000000000000000000000000000000000000000008152600401610cb890611b25565b60405180910390fd5b60008390508073ffffffffffffffffffffffffffffffffffffffff166108fc349081150290604051600060405180830381858888f19350505050158015610d0c573d6000803e3d6000fd5b5060008573ffffffffffffffffffffffffffffffffffffffff168533604051602401610d39929190611b45565b6040516020818303038152906040527f06683071000000000000000000000000000000000000000000000000000000007bffffffffffffffffffffffffffffffffffffffffffffffffffffffff19166020820180517bffffffffffffffffffffffffffffffffffffffffffffffffffffffff8381831617835250505050604051610dc39190611666565b6000604051808303816000865af19150503d8060008114610e00576040519150601f19603f3d011682016040523d82523d6000602084013e610e05565b606091505b5050905080610e49576040517f08c379a0000000000000000000000000000000000000000000000000000000008152600401610e4090611bba565b60405180910390fd5b610e54600287610fb0565b610e93576040517f08c379a0000000000000000000000000000000000000000000000000000000008152600401610e8a90611a06565b60405180910390fd5b505050505050565b60606002805480602002602001604051908101604052809291908181526020018280548015610f1f57602002820191906000526020600020905b8160009054906101000a900473ffffffffffffffffffffffffffffffffffffffff1673ffffffffffffffffffffffffffffffffffffffff1681526020019060010190808311610ed5575b5050505050905090565b600080600090505b8251811015610fa457828181518110610f4d57610f4c611bda565b5b602002602001015173ffffffffffffffffffffffffffffffffffffffff168473ffffffffffffffffffffffffffffffffffffffff1603610f91576001915050610faa565b8080610f9c90611c09565b915050610f31565b50600090505b92915050565b600080600090506000600190505b60018580549050610fcf9190611c51565b8110156110695784600182610fe49190611c85565b81548110610ff557610ff4611bda565b5b9060005260206000200160009054906101000a900473ffffffffffffffffffffffffffffffffffffffff1673ffffffffffffffffffffffffffffffffffffffff168473ffffffffffffffffffffffffffffffffffffffff1603611056578091505b808061106190611c09565b915050610fbe565b50600081146111775783600185805490506110849190611c85565b8154811061109557611094611bda565b5b9060005260206000200160009054906101000a900473ffffffffffffffffffffffffffffffffffffffff16846001836110ce9190611c85565b815481106110df576110de611bda565b5b9060005260206000200160006101000a81548173ffffffffffffffffffffffffffffffffffffffff021916908373ffffffffffffffffffffffffffffffffffffffff1602179055508380548061113857611137611cb9565b5b6001900381819060005260206000200160006101000a81549073ffffffffffffffffffffffffffffffffffffffff02191690559055600191505061117d565b60009150505b92915050565b6002819080600181540180825580915050600190039060005260206000200160009091909190916101000a81548173ffffffffffffffffffffffffffffffffffffffff021916908373ffffffffffffffffffffffffffffffffffffffff16021790555050565b6001819080600181540180825580915050600190039060005260206000200160009091909190916101000a81548173ffffffffffffffffffffffffffffffffffffffff021916908373ffffffffffffffffffffffffffffffffffffffff16021790555050565b600080fd5b600073ffffffffffffffffffffffffffffffffffffffff82169050919050565b600061127f82611254565b9050919050565b61128f81611274565b811461129a57600080fd5b50565b6000813590506112ac81611286565b92915050565b6000819050919050565b6112c5816112b2565b81146112d057600080fd5b50565b6000813590506112e2816112bc565b92915050565b600080604083850312156112ff576112fe61124f565b5b600061130d8582860161129d565b925050602061131e858286016112d3565b9150509250929050565b60008115159050919050565b61133d81611328565b82525050565b60006020820190506113586000830184611334565b92915050565b600081519050919050565b600082825260208201905092915050565b6000819050602082019050919050565b61139381611274565b82525050565b60006113a5838361138a565b60208301905092915050565b6000602082019050919050565b60006113c98261135e565b6113d38185611369565b93506113de8361137a565b8060005b8381101561140f5781516113f68882611399565b9750611401836113b1565b9250506001810190506113e2565b5085935050505092915050565b6000602082019050818103600083015261143681846113be565b905092915050565b6000602082840312156114545761145361124f565b5b60006114628482850161129d565b91505092915050565b600081519050919050565b600082825260208201905092915050565b60005b838110156114a557808201518184015260208101905061148a565b60008484015250505050565b6000601f19601f8301169050919050565b60006114cd8261146b565b6114d78185611476565b93506114e7818560208601611487565b6114f0816114b1565b840191505092915050565b6000602082019050818103600083015261151581846114c2565b905092915050565b600080604083850312156115345761153361124f565b5b60006115428582860161129d565b92505060206115538582860161129d565b9150509250929050565b600082825260208201905092915050565b7f4f6e6c7920746865206f776e65722063616e2072756e20746869732066756e6360008201527f74696f6e2e000000000000000000000000000000000000000000000000000000602082015250565b60006115ca60258361155d565b91506115d58261156e565b604082019050919050565b600060208201905081810360008301526115f9816115bd565b9050919050565b611609816112b2565b82525050565b60006020820190506116246000830184611600565b92915050565b600081905092915050565b60006116408261146b565b61164a818561162a565b935061165a818560208601611487565b80840191505092915050565b60006116728284611635565b915081905092915050565b7f6572726f7220696e207365742050726963650000000000000000000000000000600082015250565b60006116b360128361155d565b91506116be8261167d565b602082019050919050565b600060208201905081810360008301526116e2816116a6565b9050919050565b6000819050919050565b600060ff82169050919050565b6000819050919050565b600061172561172061171b846116e9565b611700565b6116f3565b9050919050565b6117358161170a565b82525050565b6000602082019050611750600083018461172c565b92915050565b7f546865206974656d206973206e6f7420696e207468652069737375656420484e60008201527f4654000000000000000000000000000000000000000000000000000000000000602082015250565b60006117b260228361155d565b91506117bd82611756565b604082019050919050565b600060208201905081810360008301526117e1816117a5565b9050919050565b60006117f382611254565b9050919050565b611803816117e8565b811461180e57600080fd5b50565b600081519050611820816117fa565b92915050565b60006020828403121561183c5761183b61124f565b5b600061184a84828501611811565b91505092915050565b7f746865207472616e73616374696f6e206f726967696e2063616c6c657220697360008201527f206e6f7420746865206f776e6572206f662074686520484e4654000000000000602082015250565b60006118af603a8361155d565b91506118ba82611853565b604082019050919050565b600060208201905081810360008301526118de816118a2565b9050919050565b7f486f6e657920697320706879736963616c207265717565737465642066726f6d60008201527f20697473206f776e657200000000000000000000000000000000000000000000602082015250565b6000611941602a8361155d565b915061194c826118e5565b604082019050919050565b61196081611274565b82525050565b6000604082019050818103600083015261197f81611934565b905061198e6020830184611957565b92915050565b7f546865204e465420646f6573206e6f742065786973747320696e20746865207360008201527f656c6c206d61726b657400000000000000000000000000000000000000000000602082015250565b60006119f0602a8361155d565b91506119fb82611994565b604082019050919050565b60006020820190508181036000830152611a1f816119e3565b9050919050565b600081519050611a35816112bc565b92915050565b600060208284031215611a5157611a5061124f565b5b6000611a5f84828501611a26565b91505092915050565b7f4e487b7100000000000000000000000000000000000000000000000000000000600052601160045260246000fd5b6000611aa2826112b2565b9150611aad836112b2565b9250828202611abb816112b2565b91508282048414831517611ad257611ad1611a68565b5b5092915050565b7f6e6f7420656e6f7567682076616c75652070726f766964656400000000000000600082015250565b6000611b0f60198361155d565b9150611b1a82611ad9565b602082019050919050565b60006020820190508181036000830152611b3e81611b02565b9050919050565b6000604082019050611b5a6000830185611957565b611b676020830184611957565b9392505050565b7f546865204e465420776173206e6f74207472616e736665726564000000000000600082015250565b6000611ba4601a8361155d565b9150611baf82611b6e565b602082019050919050565b60006020820190508181036000830152611bd381611b97565b9050919050565b7f4e487b7100000000000000000000000000000000000000000000000000000000600052603260045260246000fd5b6000611c14826112b2565b91507fffffffffffffffffffffffffffffffffffffffffffffffffffffffffffffffff8203611c4657611c45611a68565b5b600182019050919050565b6000611c5c826112b2565b9150611c67836112b2565b9250828201905080821115611c7f57611c7e611a68565b5b92915050565b6000611c90826112b2565b9150611c9b836112b2565b9250828203905081811115611cb357611cb2611a68565b5b92915050565b7f4e487b7100000000000000000000000000000000000000000000000000000000600052603160045260246000fdfea2646970667358221220d2397dbd901fc7b48073fc18d7fb82e614894abaf437d60f88a23dc982e30f2064736f6c63430008130033",
  "immutableReferences": {},
  "source": "// SPDX-License-Identifier: MIT\npragma solidity ^0.8.13;\n\nimport \"./HNFT.sol\";\n\n//add for debugging purpuse\n//import \"truffle/console.sol\";\n\ncontract MainSmartContract {\n    address private owner;\n    address[] private issuedItems;\n    address[] private inSellItems;\n\n    // Modifier to check that the caller is the owner of\n    // the contract.\n    modifier onlyOwner() {\n        require(msg.sender == owner, \"Only the owner can run this function.\");\n        _;\n    }\n    event GetPhysicalHoney(\n        address indexed HNFTAddress,\n        string message,\n        address requester\n    );\n\n    constructor() {\n        owner = msg.sender;\n    }\n\n    function getIssuedItems() external view returns (address[] memory) {\n        return issuedItems;\n    }\n\n    function getInSellItems() external view returns (address[] memory) {\n        return inSellItems;\n    }\n\n    function sell(\n        address NFTAddress,\n        uint256 _price\n    ) external onlyOwner returns (bytes memory) {\n        if (!containsAddress(NFTAddress, inSellItems)) {\n            addNewInSellItem(NFTAddress);\n            if (!containsAddress(NFTAddress, issuedItems))\n                addNewIssuedItem(NFTAddress);\n        }\n\n        (, bytes memory res) = NFTAddress.call(\n            abi.encodeWithSignature(\"setPrice(uint256)\", _price)\n        );\n        return res;\n    }\n\n    function setPrice(\n        address NFTAddress,\n        uint256 _price\n    ) external onlyOwner returns (bool) {\n        (bool resb, ) = NFTAddress.call(\n            abi.encodeWithSignature(\"setPrice(uint256)\", _price)\n        );\n        if (!resb) {\n            revert(\"error in set Price\");\n        } else {\n            return true;\n        }\n    }\n\n    function buy(address NFTAddress, address ownerOfNft) external payable {\n        (, bytes memory res) = NFTAddress.call(\n            abi.encodeWithSignature(\"getPrice()\")\n        );\n        uint256 price = abi.decode(res, (uint));\n        require(msg.value == price * 1 ether, \"not enough value provided\");\n\n        address payable _owner = payable(ownerOfNft);\n        _owner.transfer(msg.value);\n\n        (bool resb, ) = NFTAddress.call(\n            abi.encodeWithSignature(\n                \"transferBuy(address,address)\",\n                ownerOfNft,\n                msg.sender\n            )\n        );\n        if (!resb) {\n            revert(\"The NFT was not transfered\");\n        }\n        if (!removeElement(inSellItems, NFTAddress)) {\n            revert(\"The NFT does not exists in the sell market\");\n        }\n    }\n\n    function CheckValidity(address NFTAddress) external view returns (bool) {\n        if (containsAddress(NFTAddress, issuedItems)) {\n            return true;\n        }\n        return false;\n    }\n\n    function removeInSellItem(address NFTAddress) external onlyOwner {\n        if (!removeElement(inSellItems, NFTAddress)) {\n            revert(\"The NFT does not exists in the sell market\");\n        }\n    }\n\n    function burn() external returns (bool) {\n        //change name to getRealHoney\n        bool resb;\n        bytes memory res;\n        address NFTAddress = msg.sender;\n        (resb, res) = NFTAddress.call(\n            abi.encodeWithSignature(\"ownerOf(uint256)\", 0)\n        );\n\n        require(\n            containsAddress(msg.sender, issuedItems),\n            \"The item is not in the issued HNFT\"\n        );\n\n        require(\n            abi.decode(res, (address)) == tx.origin,\n            \"the transaction origin caller is not the owner of the HNFT\"\n        );\n\n        emit GetPhysicalHoney(\n            NFTAddress,\n            \"Honey is physical requested from its owner\",\n            tx.origin\n        );\n        return true;\n    }\n\n    function addNewInSellItem(address newItem) internal {\n        inSellItems.push(newItem);\n    }\n\n    function addNewIssuedItem(address newItem) internal {\n        issuedItems.push(newItem);\n    }\n\n    function containsAddress(\n        address _address,\n        address[] memory array\n    ) internal pure returns (bool) {\n        for (uint256 index = 0; index < array.length; index++) {\n            if (_address == array[index]) {\n                return true;\n            }\n        }\n        return false;\n    }\n\n    function removeElement(\n        address[] storage array,\n        address elem\n    ) internal returns (bool) {\n        uint _index = 0;\n        for (uint256 index = 1; index < array.length + 1; index++) {\n            if (elem == array[index - 1]) {\n                _index = index;\n            }\n        }\n        if (_index != 0) {\n            array[_index - 1] = array[array.length - 1];\n            array.pop();\n            return true;\n        } else {\n            return false;\n        }\n    }\n}\n",
  "sourcePath": "/home/fabri/BlockchainProject/contracts/MainSmartContract.sol",
  "compiler": {
    "name": "solc",
    "version": "0.8.19+commit.7dd6d404.Emscripten.clang"
  },
  "schemaVersion": "3.4.13",
  "updatedAt": "2023-06-08T20:45:10.537Z",
  "devdoc": {
    "kind": "dev",
    "methods": {},
    "version": 1
  },
  "userdoc": {
    "kind": "user",
    "methods": {},
    "version": 1
  }
}