{
  "contractName": "MainSmartContract",
  "abi": [
    {
      "inputs": [],
      "stateMutability": "nonpayable",
      "type": "constructor"
    },
    {
      "anonymous": false,
      "inputs": [
        {
          "indexed": true,
          "internalType": "address",
          "name": "HNFTAddress",
          "type": "address"
        },
        {
          "indexed": false,
          "internalType": "string",
          "name": "message",
          "type": "string"
        },
        {
          "indexed": false,
          "internalType": "address",
          "name": "requester",
          "type": "address"
        }
      ],
      "name": "GetPhysicalHoney",
      "type": "event"
    },
    {
      "inputs": [],
      "name": "getIssuedItems",
      "outputs": [
        {
          "internalType": "address[]",
          "name": "",
          "type": "address[]"
        }
      ],
      "stateMutability": "view",
      "type": "function",
      "constant": true
    },
    {
      "inputs": [],
      "name": "getInSellItems",
      "outputs": [
        {
          "internalType": "address[]",
          "name": "",
          "type": "address[]"
        }
      ],
      "stateMutability": "view",
      "type": "function",
      "constant": true
    },
    {
      "inputs": [
        {
          "internalType": "address",
          "name": "NFTAddress",
          "type": "address"
        },
        {
          "internalType": "uint256",
          "name": "_price",
          "type": "uint256"
        }
      ],
      "name": "sell",
      "outputs": [
        {
          "internalType": "bytes",
          "name": "",
          "type": "bytes"
        }
      ],
      "stateMutability": "nonpayable",
      "type": "function"
    },
    {
      "inputs": [
        {
          "internalType": "address",
          "name": "NFTAddress",
          "type": "address"
        },
        {
          "internalType": "address",
          "name": "ownerOfNft",
          "type": "address"
        }
      ],
      "name": "buy",
      "outputs": [],
      "stateMutability": "payable",
      "type": "function",
      "payable": true
    },
    {
      "inputs": [
        {
          "internalType": "address",
          "name": "NFTAddress",
          "type": "address"
        }
      ],
      "name": "CheckValidity",
      "outputs": [
        {
          "internalType": "bool",
          "name": "",
          "type": "bool"
        }
      ],
      "stateMutability": "view",
      "type": "function",
      "constant": true
    },
    {
      "inputs": [
        {
          "internalType": "address",
          "name": "NFTAddress",
          "type": "address"
        }
      ],
      "name": "removeInSellItem",
      "outputs": [],
      "stateMutability": "nonpayable",
      "type": "function"
    },
    {
      "inputs": [],
      "name": "getRealHoney",
      "outputs": [
        {
          "internalType": "bool",
          "name": "",
          "type": "bool"
        }
      ],
      "stateMutability": "nonpayable",
      "type": "function"
    }
  ],
  "bytecode": "0x608060405234801561001057600080fd5b50336000806101000a81548173ffffffffffffffffffffffffffffffffffffffff021916908373ffffffffffffffffffffffffffffffffffffffff1602179055506118f3806100606000396000f3fe6080604052600436106100705760003560e01c80638e6117141161004e5780638e611714146101065780639f4fa79a14610143578063ad7fadc51461016e578063ccee92611461018a57610070565b80630a485550146100755780635021bd85146100a05780636c197ff5146100c9575b600080fd5b34801561008157600080fd5b5061008a6101b5565b6040516100979190611012565b60405180910390f35b3480156100ac57600080fd5b506100c760048036038101906100c29190611065565b610243565b005b3480156100d557600080fd5b506100f060048036038101906100eb91906110c8565b61031e565b6040516100fd9190611198565b60405180910390f35b34801561011257600080fd5b5061012d60048036038101906101289190611065565b610631565b60405161013a91906111d5565b60405180910390f35b34801561014f57600080fd5b506101586106ca565b60405161016591906111d5565b60405180910390f35b610188600480360381019061018391906111f0565b6107f5565b005b34801561019657600080fd5b5061019f610b6e565b6040516101ac9190611012565b60405180910390f35b6060600180548060200260200160405190810160405280929190818152602001828054801561023957602002820191906000526020600020905b8160009054906101000a900473ffffffffffffffffffffffffffffffffffffffff1673ffffffffffffffffffffffffffffffffffffffff16815260200190600101908083116101ef575b5050505050905090565b60008054906101000a900473ffffffffffffffffffffffffffffffffffffffff1673ffffffffffffffffffffffffffffffffffffffff163373ffffffffffffffffffffffffffffffffffffffff16146102d1576040517f08c379a00000000000000000000000000000000000000000000000000000000081526004016102c8906112b3565b60405180910390fd5b6102dc600282610bfc565b61031b576040517f08c379a000000000000000000000000000000000000000000000000000000000815260040161031290611345565b60405180910390fd5b50565b606060008054906101000a900473ffffffffffffffffffffffffffffffffffffffff1673ffffffffffffffffffffffffffffffffffffffff163373ffffffffffffffffffffffffffffffffffffffff16146103ae576040517f08c379a00000000000000000000000000000000000000000000000000000000081526004016103a5906112b3565b60405180910390fd5b61043e83600280548060200260200160405190810160405280929190818152602001828054801561043457602002820191906000526020600020905b8160009054906101000a900473ffffffffffffffffffffffffffffffffffffffff1673ffffffffffffffffffffffffffffffffffffffff16815260200190600101908083116103ea575b5050505050610dcf565b6104ea5761044b83610e56565b6104db8360018054806020026020016040519081016040528092919081815260200182805480156104d157602002820191906000526020600020905b8160009054906101000a900473ffffffffffffffffffffffffffffffffffffffff1673ffffffffffffffffffffffffffffffffffffffff1681526020019060010190808311610487575b5050505050610dcf565b6104e9576104e883610ebc565b5b5b6000808473ffffffffffffffffffffffffffffffffffffffff16846040516024016105159190611374565b6040516020818303038152906040527f91b7f5ed000000000000000000000000000000000000000000000000000000007bffffffffffffffffffffffffffffffffffffffffffffffffffffffff19166020820180517bffffffffffffffffffffffffffffffffffffffffffffffffffffffff838183161783525050505060405161059f91906113cb565b6000604051808303816000865af19150503d80600081146105dc576040519150601f19603f3d011682016040523d82523d6000602084013e6105e1565b606091505b509150915081610626576040517f08c379a000000000000000000000000000000000000000000000000000000000815260040161061d9061142e565b60405180910390fd5b809250505092915050565b60006106c38260018054806020026020016040519081016040528092919081815260200182805480156106b957602002820191906000526020600020905b8160009054906101000a900473ffffffffffffffffffffffffffffffffffffffff1673ffffffffffffffffffffffffffffffffffffffff168152602001906001019080831161066f575b5050505050610dcf565b9050919050565b60008033905061076033600180548060200260200160405190810160405280929190818152602001828054801561075657602002820191906000526020600020905b8160009054906101000a900473ffffffffffffffffffffffffffffffffffffffff1673ffffffffffffffffffffffffffffffffffffffff168152602001906001019080831161070c575b5050505050610dcf565b61079f576040517f08c379a0000000000000000000000000000000000000000000000000000000008152600401610796906114c0565b60405180910390fd5b8073ffffffffffffffffffffffffffffffffffffffff167f77cd49935b3697bb6b1454fc79d2450e25a35f6ff1f5f0ed6c3a1300cb4edf45326040516107e59190611561565b60405180910390a2600191505090565b6000808373ffffffffffffffffffffffffffffffffffffffff166040516024016040516020818303038152906040527f98d5fdca000000000000000000000000000000000000000000000000000000007bffffffffffffffffffffffffffffffffffffffffffffffffffffffff19166020820180517bffffffffffffffffffffffffffffffffffffffffffffffffffffffff838183161783525050505060405161089f91906113cb565b6000604051808303816000865af19150503d80600081146108dc576040519150601f19603f3d011682016040523d82523d6000602084013e6108e1565b606091505b509150915081610926576040517f08c379a000000000000000000000000000000000000000000000000000000000815260040161091d906115db565b60405180910390fd5b60008180602001905181019061093c9190611610565b9050670de0b6b3a764000081610952919061166c565b3414610993576040517f08c379a000000000000000000000000000000000000000000000000000000000815260040161098a906116fa565b60405180910390fd5b60008490508073ffffffffffffffffffffffffffffffffffffffff166108fc349081150290604051600060405180830381858888f193505050501580156109de573d6000803e3d6000fd5b5060008673ffffffffffffffffffffffffffffffffffffffff168633604051602401610a0b92919061171a565b6040516020818303038152906040527f06683071000000000000000000000000000000000000000000000000000000007bffffffffffffffffffffffffffffffffffffffffffffffffffffffff19166020820180517bffffffffffffffffffffffffffffffffffffffffffffffffffffffff8381831617835250505050604051610a9591906113cb565b6000604051808303816000865af19150503d8060008114610ad2576040519150601f19603f3d011682016040523d82523d6000602084013e610ad7565b606091505b5050905080610b1b576040517f08c379a0000000000000000000000000000000000000000000000000000000008152600401610b129061178f565b60405180910390fd5b610b26600288610bfc565b610b65576040517f08c379a0000000000000000000000000000000000000000000000000000000008152600401610b5c90611345565b60405180910390fd5b50505050505050565b60606002805480602002602001604051908101604052809291908181526020018280548015610bf257602002820191906000526020600020905b8160009054906101000a900473ffffffffffffffffffffffffffffffffffffffff1673ffffffffffffffffffffffffffffffffffffffff1681526020019060010190808311610ba8575b5050505050905090565b600080600090506000600190505b60018580549050610c1b91906117af565b811015610cb55784600182610c3091906117e3565b81548110610c4157610c40611817565b5b9060005260206000200160009054906101000a900473ffffffffffffffffffffffffffffffffffffffff1673ffffffffffffffffffffffffffffffffffffffff168473ffffffffffffffffffffffffffffffffffffffff1603610ca2578091505b8080610cad90611846565b915050610c0a565b5060008114610dc3578360018580549050610cd091906117e3565b81548110610ce157610ce0611817565b5b9060005260206000200160009054906101000a900473ffffffffffffffffffffffffffffffffffffffff1684600183610d1a91906117e3565b81548110610d2b57610d2a611817565b5b9060005260206000200160006101000a81548173ffffffffffffffffffffffffffffffffffffffff021916908373ffffffffffffffffffffffffffffffffffffffff16021790555083805480610d8457610d8361188e565b5b6001900381819060005260206000200160006101000a81549073ffffffffffffffffffffffffffffffffffffffff021916905590556001915050610dc9565b60009150505b92915050565b600080600090505b8251811015610e4a57828181518110610df357610df2611817565b5b602002602001015173ffffffffffffffffffffffffffffffffffffffff168473ffffffffffffffffffffffffffffffffffffffff1603610e37576001915050610e50565b8080610e4290611846565b915050610dd7565b50600090505b92915050565b6002819080600181540180825580915050600190039060005260206000200160009091909190916101000a81548173ffffffffffffffffffffffffffffffffffffffff021916908373ffffffffffffffffffffffffffffffffffffffff16021790555050565b6001819080600181540180825580915050600190039060005260206000200160009091909190916101000a81548173ffffffffffffffffffffffffffffffffffffffff021916908373ffffffffffffffffffffffffffffffffffffffff16021790555050565b600081519050919050565b600082825260208201905092915050565b6000819050602082019050919050565b600073ffffffffffffffffffffffffffffffffffffffff82169050919050565b6000610f7982610f4e565b9050919050565b610f8981610f6e565b82525050565b6000610f9b8383610f80565b60208301905092915050565b6000602082019050919050565b6000610fbf82610f22565b610fc98185610f2d565b9350610fd483610f3e565b8060005b83811015611005578151610fec8882610f8f565b9750610ff783610fa7565b925050600181019050610fd8565b5085935050505092915050565b6000602082019050818103600083015261102c8184610fb4565b905092915050565b600080fd5b61104281610f6e565b811461104d57600080fd5b50565b60008135905061105f81611039565b92915050565b60006020828403121561107b5761107a611034565b5b600061108984828501611050565b91505092915050565b6000819050919050565b6110a581611092565b81146110b057600080fd5b50565b6000813590506110c28161109c565b92915050565b600080604083850312156110df576110de611034565b5b60006110ed85828601611050565b92505060206110fe858286016110b3565b9150509250929050565b600081519050919050565b600082825260208201905092915050565b60005b83811015611142578082015181840152602081019050611127565b60008484015250505050565b6000601f19601f8301169050919050565b600061116a82611108565b6111748185611113565b9350611184818560208601611124565b61118d8161114e565b840191505092915050565b600060208201905081810360008301526111b2818461115f565b905092915050565b60008115159050919050565b6111cf816111ba565b82525050565b60006020820190506111ea60008301846111c6565b92915050565b6000806040838503121561120757611206611034565b5b600061121585828601611050565b925050602061122685828601611050565b9150509250929050565b600082825260208201905092915050565b7f4f6e6c7920746865206f776e65722063616e2072756e20746869732066756e6360008201527f74696f6e2e000000000000000000000000000000000000000000000000000000602082015250565b600061129d602583611230565b91506112a882611241565b604082019050919050565b600060208201905081810360008301526112cc81611290565b9050919050565b7f546865204e465420646f6573206e6f742065786973747320696e20746865207360008201527f656c6c206d61726b657400000000000000000000000000000000000000000000602082015250565b600061132f602a83611230565b915061133a826112d3565b604082019050919050565b6000602082019050818103600083015261135e81611322565b9050919050565b61136e81611092565b82525050565b60006020820190506113896000830184611365565b92915050565b600081905092915050565b60006113a582611108565b6113af818561138f565b93506113bf818560208601611124565b80840191505092915050565b60006113d7828461139a565b915081905092915050565b7f6572726f7220696e2073657450726963652043616c6c696e6700000000000000600082015250565b6000611418601983611230565b9150611423826113e2565b602082019050919050565b600060208201905081810360008301526114478161140b565b9050919050565b7f546865206974656d206973206e6f7420696e207468652069737375656420484e60008201527f4654000000000000000000000000000000000000000000000000000000000000602082015250565b60006114aa602283611230565b91506114b58261144e565b604082019050919050565b600060208201905081810360008301526114d98161149d565b9050919050565b7f486f6e657920697320706879736963616c207265717565737465642066726f6d60008201527f20697473206f776e657200000000000000000000000000000000000000000000602082015250565b600061153c602a83611230565b9150611547826114e0565b604082019050919050565b61155b81610f6e565b82525050565b6000604082019050818103600083015261157a8161152f565b90506115896020830184611552565b92915050565b7f6572726f7220696e2067657474696e6720746865207072696365000000000000600082015250565b60006115c5601a83611230565b91506115d08261158f565b602082019050919050565b600060208201905081810360008301526115f4816115b8565b9050919050565b60008151905061160a8161109c565b92915050565b60006020828403121561162657611625611034565b5b6000611634848285016115fb565b91505092915050565b7f4e487b7100000000000000000000000000000000000000000000000000000000600052601160045260246000fd5b600061167782611092565b915061168283611092565b925082820261169081611092565b915082820484148315176116a7576116a661163d565b5b5092915050565b7f6e6f7420656e6f7567682076616c75652070726f766964656400000000000000600082015250565b60006116e4601983611230565b91506116ef826116ae565b602082019050919050565b60006020820190508181036000830152611713816116d7565b9050919050565b600060408201905061172f6000830185611552565b61173c6020830184611552565b9392505050565b7f546865204e465420776173206e6f74207472616e736665726564000000000000600082015250565b6000611779601a83611230565b915061178482611743565b602082019050919050565b600060208201905081810360008301526117a88161176c565b9050919050565b60006117ba82611092565b91506117c583611092565b92508282019050808211156117dd576117dc61163d565b5b92915050565b60006117ee82611092565b91506117f983611092565b92508282039050818111156118115761181061163d565b5b92915050565b7f4e487b7100000000000000000000000000000000000000000000000000000000600052603260045260246000fd5b600061185182611092565b91507fffffffffffffffffffffffffffffffffffffffffffffffffffffffffffffffff82036118835761188261163d565b5b600182019050919050565b7f4e487b7100000000000000000000000000000000000000000000000000000000600052603160045260246000fdfea2646970667358221220e3ae49c83557ed9e97e6600a0418bd4a5a18da2e5ecd3d812a255abc982b748f64736f6c63430008130033",
  "immutableReferences": {},
  "source": "// SPDX-License-Identifier: MIT\npragma solidity ^0.8.13;\n\nimport \"./HNFT.sol\";\n\n//add for debugging purpuse\n//import \"truffle/console.sol\";\n\ncontract MainSmartContract {\n    address private owner;\n    address[] private issuedItems;\n    address[] private inSellItems;\n\n    // Modifier to check that the caller is the owner of\n    // the contract.\n    modifier onlyOwner() {\n        require(msg.sender == owner, \"Only the owner can run this function.\");\n        _;\n    }\n    event GetPhysicalHoney(\n        address indexed HNFTAddress,\n        string message,\n        address requester\n    );\n\n    constructor() {\n        owner = msg.sender;\n    }\n\n    function getIssuedItems() external view returns (address[] memory) {\n        return issuedItems;\n    }\n\n    function getInSellItems() external view returns (address[] memory) {\n        return inSellItems;\n    }\n\n    function sell(\n        address NFTAddress,\n        uint256 _price\n    ) external onlyOwner returns (bytes memory) {\n        if (!containsAddress(NFTAddress, inSellItems)) {\n            addNewInSellItem(NFTAddress);\n            if (!containsAddress(NFTAddress, issuedItems))\n                addNewIssuedItem(NFTAddress);\n        }\n\n        (bool resb, bytes memory res) = NFTAddress.call(\n            abi.encodeWithSignature(\"setPrice(uint256)\", _price)\n        );\n        if (!resb) {\n            revert(\"error in setPrice Calling\");\n        }\n        return res;\n    }\n\n    function buy(address NFTAddress, address ownerOfNft) external payable {\n        (bool resb, bytes memory res) = NFTAddress.call(\n            abi.encodeWithSignature(\"getPrice()\")\n        );\n        if (!resb) {\n            revert(\"error in getting the price\");\n        }\n        uint256 price = abi.decode(res, (uint));\n        require(msg.value == price * 1 ether, \"not enough value provided\");\n\n        address payable _owner = payable(ownerOfNft);\n        _owner.transfer(msg.value);\n\n        (bool resb1, ) = NFTAddress.call(\n            abi.encodeWithSignature(\n                \"transferBuy(address,address)\",\n                ownerOfNft,\n                msg.sender\n            )\n        );\n        if (!resb1) {\n            revert(\"The NFT was not transfered\");\n        }\n        if (!removeElement(inSellItems, NFTAddress)) {\n            revert(\"The NFT does not exists in the sell market\");\n        }\n    }\n\n    function CheckValidity(address NFTAddress) external view returns (bool) {\n        return containsAddress(NFTAddress, issuedItems);\n    }\n\n    function removeInSellItem(address NFTAddress) external onlyOwner {\n        if (!removeElement(inSellItems, NFTAddress)) {\n            revert(\"The NFT does not exists in the sell market\");\n        }\n    }\n\n    function getRealHoney() external returns (bool) {\n        address NFTAddress = msg.sender;\n\n        require(\n            containsAddress(msg.sender, issuedItems),\n            \"The item is not in the issued HNFT\"\n        );\n\n        emit GetPhysicalHoney(\n            NFTAddress,\n            \"Honey is physical requested from its owner\",\n            tx.origin\n        );\n        return true;\n    }\n\n    /* Internal functions */\n    function addNewInSellItem(address newItem) internal {\n        inSellItems.push(newItem);\n    }\n\n    function addNewIssuedItem(address newItem) internal {\n        issuedItems.push(newItem);\n    }\n\n    function containsAddress(\n        address _address,\n        address[] memory array\n    ) internal pure returns (bool) {\n        for (uint256 index = 0; index < array.length; index++) {\n            if (_address == array[index]) {\n                return true;\n            }\n        }\n        return false;\n    }\n\n    function removeElement(\n        address[] storage array,\n        address elem\n    ) internal returns (bool) {\n        uint _index = 0;\n        for (uint256 index = 1; index < array.length + 1; index++) {\n            if (elem == array[index - 1]) {\n                _index = index;\n            }\n        }\n        if (_index != 0) {\n            array[_index - 1] = array[array.length - 1];\n            array.pop();\n            return true;\n        } else {\n            return false;\n        }\n    }\n}\n",
  "sourcePath": "/home/andrea/BlockchainProject/contracts/MainSmartContract.sol",
  "compiler": {
    "name": "solc",
    "version": "0.8.19+commit.7dd6d404.Emscripten.clang"
  },
  "schemaVersion": "3.4.13",
  "updatedAt": "2023-06-16T15:12:05.045Z",
  "networkType": "ethereum",
  "devdoc": {
    "kind": "dev",
    "methods": {},
    "version": 1
  },
  "userdoc": {
    "kind": "user",
    "methods": {},
    "version": 1
  }
}