{
  "contractName": "MainSmartContract",
  "abi": [
    {
      "inputs": [],
      "stateMutability": "nonpayable",
      "type": "constructor"
    },
    {
      "anonymous": false,
      "inputs": [
        {
          "indexed": true,
          "internalType": "address",
          "name": "HNFTAddress",
          "type": "address"
        },
        {
          "indexed": false,
          "internalType": "string",
          "name": "message",
          "type": "string"
        },
        {
          "indexed": false,
          "internalType": "address",
          "name": "requester",
          "type": "address"
        }
      ],
      "name": "GetPhysicalHoney",
      "type": "event"
    },
    {
      "inputs": [],
      "name": "getIssuedItems",
      "outputs": [
        {
          "internalType": "address[]",
          "name": "",
          "type": "address[]"
        }
      ],
      "stateMutability": "view",
      "type": "function",
      "constant": true
    },
    {
      "inputs": [],
      "name": "getInSellItems",
      "outputs": [
        {
          "internalType": "address[]",
          "name": "",
          "type": "address[]"
        }
      ],
      "stateMutability": "view",
      "type": "function",
      "constant": true
    },
    {
      "inputs": [
        {
          "internalType": "address",
          "name": "NFTAddress",
          "type": "address"
        },
        {
          "internalType": "uint256",
          "name": "_price",
          "type": "uint256"
        }
      ],
      "name": "sell",
      "outputs": [
        {
          "internalType": "bytes",
          "name": "",
          "type": "bytes"
        }
      ],
      "stateMutability": "nonpayable",
      "type": "function"
    },
    {
      "inputs": [
        {
          "internalType": "address",
          "name": "NFTAddress",
          "type": "address"
        },
        {
          "internalType": "uint256",
          "name": "_price",
          "type": "uint256"
        }
      ],
      "name": "setPrice",
      "outputs": [
        {
          "internalType": "bool",
          "name": "",
          "type": "bool"
        }
      ],
      "stateMutability": "nonpayable",
      "type": "function"
    },
    {
      "inputs": [
        {
          "internalType": "address",
          "name": "NFTAddress",
          "type": "address"
        },
        {
          "internalType": "address",
          "name": "ownerOfNft",
          "type": "address"
        }
      ],
      "name": "buy",
      "outputs": [],
      "stateMutability": "payable",
      "type": "function",
      "payable": true
    },
    {
      "inputs": [
        {
          "internalType": "address",
          "name": "NFTAddress",
          "type": "address"
        }
      ],
      "name": "CheckValidity",
      "outputs": [
        {
          "internalType": "bool",
          "name": "",
          "type": "bool"
        }
      ],
      "stateMutability": "view",
      "type": "function",
      "constant": true
    },
    {
      "inputs": [
        {
          "internalType": "address",
          "name": "NFTAddress",
          "type": "address"
        }
      ],
      "name": "removeInSellItem",
      "outputs": [],
      "stateMutability": "nonpayable",
      "type": "function"
    },
    {
      "inputs": [],
      "name": "burn",
      "outputs": [
        {
          "internalType": "bool",
          "name": "",
          "type": "bool"
        }
      ],
      "stateMutability": "nonpayable",
      "type": "function"
    }
  ],
  "bytecode": "0x608060405234801561001057600080fd5b50336000806101000a81548173ffffffffffffffffffffffffffffffffffffffff021916908373ffffffffffffffffffffffffffffffffffffffff160217905550611bbd806100606000396000f3fe60806040526004361061007a5760003560e01c80636c197ff51161004e5780636c197ff51461013b5780638e61171414610178578063ad7fadc5146101b5578063ccee9261146101d15761007a565b8062e4768b1461007f5780630a485550146100bc57806344df8e70146100e75780635021bd8514610112575b600080fd5b34801561008b57600080fd5b506100a660048036038101906100a19190611219565b6101fc565b6040516100b39190611274565b60405180910390f35b3480156100c857600080fd5b506100d16103d2565b6040516100de919061134d565b60405180910390f35b3480156100f357600080fd5b506100fc610460565b6040516101099190611274565b60405180910390f35b34801561011e57600080fd5b506101396004803603810190610134919061136f565b610641565b005b34801561014757600080fd5b50610162600480360381019061015d9190611219565b61071c565b60405161016f919061142c565b60405180910390f35b34801561018457600080fd5b5061019f600480360381019061019a919061136f565b6109ec565b6040516101ac9190611274565b60405180910390f35b6101cf60048036038101906101ca919061144e565b610a96565b005b3480156101dd57600080fd5b506101e6610dcc565b6040516101f3919061134d565b60405180910390f35b60008060009054906101000a900473ffffffffffffffffffffffffffffffffffffffff1673ffffffffffffffffffffffffffffffffffffffff163373ffffffffffffffffffffffffffffffffffffffff161461028d576040517f08c379a000000000000000000000000000000000000000000000000000000000815260040161028490611511565b60405180910390fd5b60008373ffffffffffffffffffffffffffffffffffffffff16836040516024016102b79190611540565b6040516020818303038152906040527f91b7f5ed000000000000000000000000000000000000000000000000000000007bffffffffffffffffffffffffffffffffffffffffffffffffffffffff19166020820180517bffffffffffffffffffffffffffffffffffffffffffffffffffffffff83818316178352505050506040516103419190611597565b6000604051808303816000865af19150503d806000811461037e576040519150601f19603f3d011682016040523d82523d6000602084013e610383565b606091505b50509050806103c7576040517f08c379a00000000000000000000000000000000000000000000000000000000081526004016103be906115fa565b60405180910390fd5b600191505092915050565b6060600180548060200260200160405190810160405280929190818152602001828054801561045657602002820191906000526020600020905b8160009054906101000a900473ffffffffffffffffffffffffffffffffffffffff1673ffffffffffffffffffffffffffffffffffffffff168152602001906001019080831161040c575b5050505050905090565b600080606060003390508073ffffffffffffffffffffffffffffffffffffffff166000604051602401610493919061166c565b6040516020818303038152906040527f0ad03118000000000000000000000000000000000000000000000000000000007bffffffffffffffffffffffffffffffffffffffffffffffffffffffff19166020820180517bffffffffffffffffffffffffffffffffffffffffffffffffffffffff838183161783525050505060405161051d9190611597565b6000604051808303816000865af19150503d806000811461055a576040519150601f19603f3d011682016040523d82523d6000602084013e61055f565b606091505b5080935081945050503273ffffffffffffffffffffffffffffffffffffffff168280602001905181019061059391906116c5565b73ffffffffffffffffffffffffffffffffffffffff16146105e9576040517f08c379a00000000000000000000000000000000000000000000000000000000081526004016105e090611764565b60405180910390fd5b8073ffffffffffffffffffffffffffffffffffffffff167f77cd49935b3697bb6b1454fc79d2450e25a35f6ff1f5f0ed6c3a1300cb4edf453260405161062f9190611805565b60405180910390a26001935050505090565b60008054906101000a900473ffffffffffffffffffffffffffffffffffffffff1673ffffffffffffffffffffffffffffffffffffffff163373ffffffffffffffffffffffffffffffffffffffff16146106cf576040517f08c379a00000000000000000000000000000000000000000000000000000000081526004016106c690611511565b60405180910390fd5b6106da600282610e5a565b610719576040517f08c379a0000000000000000000000000000000000000000000000000000000008152600401610710906118a5565b60405180910390fd5b50565b606060008054906101000a900473ffffffffffffffffffffffffffffffffffffffff1673ffffffffffffffffffffffffffffffffffffffff163373ffffffffffffffffffffffffffffffffffffffff16146107ac576040517f08c379a00000000000000000000000000000000000000000000000000000000081526004016107a390611511565b60405180910390fd5b61083c83600280548060200260200160405190810160405280929190818152602001828054801561083257602002820191906000526020600020905b8160009054906101000a900473ffffffffffffffffffffffffffffffffffffffff1673ffffffffffffffffffffffffffffffffffffffff16815260200190600101908083116107e8575b505050505061102d565b6108e857610849836110b4565b6108d98360018054806020026020016040519081016040528092919081815260200182805480156108cf57602002820191906000526020600020905b8160009054906101000a900473ffffffffffffffffffffffffffffffffffffffff1673ffffffffffffffffffffffffffffffffffffffff1681526020019060010190808311610885575b505050505061102d565b6108e7576108e68361111a565b5b5b60008373ffffffffffffffffffffffffffffffffffffffff16836040516024016109129190611540565b6040516020818303038152906040527f91b7f5ed000000000000000000000000000000000000000000000000000000007bffffffffffffffffffffffffffffffffffffffffffffffffffffffff19166020820180517bffffffffffffffffffffffffffffffffffffffffffffffffffffffff838183161783525050505060405161099c9190611597565b6000604051808303816000865af19150503d80600081146109d9576040519150601f19603f3d011682016040523d82523d6000602084013e6109de565b606091505b509150508091505092915050565b6000610a7e826001805480602002602001604051908101604052809291908181526020018280548015610a7457602002820191906000526020600020905b8160009054906101000a900473ffffffffffffffffffffffffffffffffffffffff1673ffffffffffffffffffffffffffffffffffffffff1681526020019060010190808311610a2a575b505050505061102d565b15610a8c5760019050610a91565b600090505b919050565b60008273ffffffffffffffffffffffffffffffffffffffff166040516024016040516020818303038152906040527f98d5fdca000000000000000000000000000000000000000000000000000000007bffffffffffffffffffffffffffffffffffffffffffffffffffffffff19166020820180517bffffffffffffffffffffffffffffffffffffffffffffffffffffffff8381831617835250505050604051610b3f9190611597565b6000604051808303816000865af19150503d8060008114610b7c576040519150601f19603f3d011682016040523d82523d6000602084013e610b81565b606091505b50915050600081806020019051810190610b9b91906118da565b9050670de0b6b3a764000081610bb19190611936565b3414610bf2576040517f08c379a0000000000000000000000000000000000000000000000000000000008152600401610be9906119c4565b60405180910390fd5b60008390508073ffffffffffffffffffffffffffffffffffffffff166108fc349081150290604051600060405180830381858888f19350505050158015610c3d573d6000803e3d6000fd5b5060008573ffffffffffffffffffffffffffffffffffffffff168533604051602401610c6a9291906119e4565b6040516020818303038152906040527f06683071000000000000000000000000000000000000000000000000000000007bffffffffffffffffffffffffffffffffffffffffffffffffffffffff19166020820180517bffffffffffffffffffffffffffffffffffffffffffffffffffffffff8381831617835250505050604051610cf49190611597565b6000604051808303816000865af19150503d8060008114610d31576040519150601f19603f3d011682016040523d82523d6000602084013e610d36565b606091505b5050905080610d7a576040517f08c379a0000000000000000000000000000000000000000000000000000000008152600401610d7190611a59565b60405180910390fd5b610d85600287610e5a565b610dc4576040517f08c379a0000000000000000000000000000000000000000000000000000000008152600401610dbb906118a5565b60405180910390fd5b505050505050565b60606002805480602002602001604051908101604052809291908181526020018280548015610e5057602002820191906000526020600020905b8160009054906101000a900473ffffffffffffffffffffffffffffffffffffffff1673ffffffffffffffffffffffffffffffffffffffff1681526020019060010190808311610e06575b5050505050905090565b600080600090506000600190505b60018580549050610e799190611a79565b811015610f135784600182610e8e9190611aad565b81548110610e9f57610e9e611ae1565b5b9060005260206000200160009054906101000a900473ffffffffffffffffffffffffffffffffffffffff1673ffffffffffffffffffffffffffffffffffffffff168473ffffffffffffffffffffffffffffffffffffffff1603610f00578091505b8080610f0b90611b10565b915050610e68565b5060008114611021578360018580549050610f2e9190611aad565b81548110610f3f57610f3e611ae1565b5b9060005260206000200160009054906101000a900473ffffffffffffffffffffffffffffffffffffffff1684600183610f789190611aad565b81548110610f8957610f88611ae1565b5b9060005260206000200160006101000a81548173ffffffffffffffffffffffffffffffffffffffff021916908373ffffffffffffffffffffffffffffffffffffffff16021790555083805480610fe257610fe1611b58565b5b6001900381819060005260206000200160006101000a81549073ffffffffffffffffffffffffffffffffffffffff021916905590556001915050611027565b60009150505b92915050565b600080600090505b82518110156110a85782818151811061105157611050611ae1565b5b602002602001015173ffffffffffffffffffffffffffffffffffffffff168473ffffffffffffffffffffffffffffffffffffffff16036110955760019150506110ae565b80806110a090611b10565b915050611035565b50600090505b92915050565b6002819080600181540180825580915050600190039060005260206000200160009091909190916101000a81548173ffffffffffffffffffffffffffffffffffffffff021916908373ffffffffffffffffffffffffffffffffffffffff16021790555050565b6001819080600181540180825580915050600190039060005260206000200160009091909190916101000a81548173ffffffffffffffffffffffffffffffffffffffff021916908373ffffffffffffffffffffffffffffffffffffffff16021790555050565b600080fd5b600073ffffffffffffffffffffffffffffffffffffffff82169050919050565b60006111b082611185565b9050919050565b6111c0816111a5565b81146111cb57600080fd5b50565b6000813590506111dd816111b7565b92915050565b6000819050919050565b6111f6816111e3565b811461120157600080fd5b50565b600081359050611213816111ed565b92915050565b600080604083850312156112305761122f611180565b5b600061123e858286016111ce565b925050602061124f85828601611204565b9150509250929050565b60008115159050919050565b61126e81611259565b82525050565b60006020820190506112896000830184611265565b92915050565b600081519050919050565b600082825260208201905092915050565b6000819050602082019050919050565b6112c4816111a5565b82525050565b60006112d683836112bb565b60208301905092915050565b6000602082019050919050565b60006112fa8261128f565b611304818561129a565b935061130f836112ab565b8060005b8381101561134057815161132788826112ca565b9750611332836112e2565b925050600181019050611313565b5085935050505092915050565b6000602082019050818103600083015261136781846112ef565b905092915050565b60006020828403121561138557611384611180565b5b6000611393848285016111ce565b91505092915050565b600081519050919050565b600082825260208201905092915050565b60005b838110156113d65780820151818401526020810190506113bb565b60008484015250505050565b6000601f19601f8301169050919050565b60006113fe8261139c565b61140881856113a7565b93506114188185602086016113b8565b611421816113e2565b840191505092915050565b6000602082019050818103600083015261144681846113f3565b905092915050565b6000806040838503121561146557611464611180565b5b6000611473858286016111ce565b9250506020611484858286016111ce565b9150509250929050565b600082825260208201905092915050565b7f4f6e6c7920746865206f776e65722063616e2072756e20746869732066756e6360008201527f74696f6e2e000000000000000000000000000000000000000000000000000000602082015250565b60006114fb60258361148e565b91506115068261149f565b604082019050919050565b6000602082019050818103600083015261152a816114ee565b9050919050565b61153a816111e3565b82525050565b60006020820190506115556000830184611531565b92915050565b600081905092915050565b60006115718261139c565b61157b818561155b565b935061158b8185602086016113b8565b80840191505092915050565b60006115a38284611566565b915081905092915050565b7f6572726f7220696e207365742050726963650000000000000000000000000000600082015250565b60006115e460128361148e565b91506115ef826115ae565b602082019050919050565b60006020820190508181036000830152611613816115d7565b9050919050565b6000819050919050565b600060ff82169050919050565b6000819050919050565b600061165661165161164c8461161a565b611631565b611624565b9050919050565b6116668161163b565b82525050565b6000602082019050611681600083018461165d565b92915050565b600061169282611185565b9050919050565b6116a281611687565b81146116ad57600080fd5b50565b6000815190506116bf81611699565b92915050565b6000602082840312156116db576116da611180565b5b60006116e9848285016116b0565b91505092915050565b7f746865207472616e73616374696f6e206f726967696e2063616c6c657220697360008201527f206e6f7420746865206f776e6572206f662074686520484e4654000000000000602082015250565b600061174e603a8361148e565b9150611759826116f2565b604082019050919050565b6000602082019050818103600083015261177d81611741565b9050919050565b7f697320706879736963616c207265717565737465642066726f6d20697473206f60008201527f776e657200000000000000000000000000000000000000000000000000000000602082015250565b60006117e060248361148e565b91506117eb82611784565b604082019050919050565b6117ff816111a5565b82525050565b6000604082019050818103600083015261181e816117d3565b905061182d60208301846117f6565b92915050565b7f546865204e465420646f6573206e6f742065786973747320696e20746865207360008201527f656c6c206d61726b657400000000000000000000000000000000000000000000602082015250565b600061188f602a8361148e565b915061189a82611833565b604082019050919050565b600060208201905081810360008301526118be81611882565b9050919050565b6000815190506118d4816111ed565b92915050565b6000602082840312156118f0576118ef611180565b5b60006118fe848285016118c5565b91505092915050565b7f4e487b7100000000000000000000000000000000000000000000000000000000600052601160045260246000fd5b6000611941826111e3565b915061194c836111e3565b925082820261195a816111e3565b9150828204841483151761197157611970611907565b5b5092915050565b7f6e6f7420656e6f7567682076616c75652070726f766964656400000000000000600082015250565b60006119ae60198361148e565b91506119b982611978565b602082019050919050565b600060208201905081810360008301526119dd816119a1565b9050919050565b60006040820190506119f960008301856117f6565b611a0660208301846117f6565b9392505050565b7f546865204e465420776173206e6f74207472616e736665726564000000000000600082015250565b6000611a43601a8361148e565b9150611a4e82611a0d565b602082019050919050565b60006020820190508181036000830152611a7281611a36565b9050919050565b6000611a84826111e3565b9150611a8f836111e3565b9250828201905080821115611aa757611aa6611907565b5b92915050565b6000611ab8826111e3565b9150611ac3836111e3565b9250828203905081811115611adb57611ada611907565b5b92915050565b7f4e487b7100000000000000000000000000000000000000000000000000000000600052603260045260246000fd5b6000611b1b826111e3565b91507fffffffffffffffffffffffffffffffffffffffffffffffffffffffffffffffff8203611b4d57611b4c611907565b5b600182019050919050565b7f4e487b7100000000000000000000000000000000000000000000000000000000600052603160045260246000fdfea2646970667358221220fc76a9badd33bd5c428910008d9ecd49788626bb3a11c10285d23e3449306d8b64736f6c63430008130033",
  "immutableReferences": {},
  "source": "// SPDX-License-Identifier: MIT\npragma solidity ^0.8.13;\n\nimport \"./HNFT.sol\";\n\n//add for debugging purpuse\n//import \"truffle/console.sol\";\n\ncontract MainSmartContract {\n    address private owner;\n    address[] private issuedItems;\n    address[] private inSellItems;\n\n    // Modifier to check that the caller is the owner of\n    // the contract.\n    modifier onlyOwner() {\n        require(msg.sender == owner, \"Only the owner can run this function.\");\n        _;\n    }\n    event GetPhysicalHoney(\n        address indexed HNFTAddress,\n        string message,\n        address requester\n    );\n\n    constructor() {\n        owner = msg.sender;\n    }\n\n    function getIssuedItems() external view returns (address[] memory) {\n        return issuedItems;\n    }\n\n    function getInSellItems() external view returns (address[] memory) {\n        return inSellItems;\n    }\n\n    function sell(\n        address NFTAddress,\n        uint256 _price\n    ) external onlyOwner returns (bytes memory) {\n        if (!containsAddress(NFTAddress, inSellItems)) {\n            addNewInSellItem(NFTAddress);\n            if (!containsAddress(NFTAddress, issuedItems))\n                addNewIssuedItem(NFTAddress);\n        }\n\n        (, bytes memory res) = NFTAddress.call(\n            abi.encodeWithSignature(\"setPrice(uint256)\", _price)\n        );\n        return res;\n    }\n\n    function setPrice(\n        address NFTAddress,\n        uint256 _price\n    ) external onlyOwner returns (bool) {\n        (bool resb, ) = NFTAddress.call(\n            abi.encodeWithSignature(\"setPrice(uint256)\", _price)\n        );\n        if (!resb) {\n            revert(\"error in set Price\");\n        } else {\n            return true;\n        }\n    }\n\n    function buy(address NFTAddress, address ownerOfNft) external payable {\n        (, bytes memory res) = NFTAddress.call(\n            abi.encodeWithSignature(\"getPrice()\")\n        );\n        uint256 price = abi.decode(res, (uint));\n        require(msg.value == price * 1 ether, \"not enough value provided\");\n\n        address payable _owner = payable(ownerOfNft);\n        _owner.transfer(msg.value);\n\n        (bool resb, ) = NFTAddress.call(\n            abi.encodeWithSignature(\n                \"transferBuy(address,address)\",\n                ownerOfNft,\n                msg.sender\n            )\n        );\n        if (!resb) {\n            revert(\"The NFT was not transfered\");\n        }\n        if (!removeElement(inSellItems, NFTAddress)) {\n            revert(\"The NFT does not exists in the sell market\");\n        }\n    }\n\n    function CheckValidity(address NFTAddress) external view returns (bool) {\n        if (containsAddress(NFTAddress, issuedItems)) {\n            return true;\n        }\n        return false;\n    }\n\n    function removeInSellItem(address NFTAddress) external onlyOwner {\n        if (!removeElement(inSellItems, NFTAddress)) {\n            revert(\"The NFT does not exists in the sell market\");\n        }\n    }\n\n    function burn() external returns (bool) {\n        //change name to getRealHoney\n        bool resb;\n        bytes memory res;\n        address NFTAddress = msg.sender;\n        (resb, res) = NFTAddress.call(\n            abi.encodeWithSignature(\"_ownerof(uint256)\", 0)\n        );\n        require(\n            abi.decode(res, (address)) == tx.origin,\n            \"the transaction origin caller is not the owner of the HNFT\"\n        );\n        emit GetPhysicalHoney(\n            NFTAddress,\n            \"is physical requested from its owner\",\n            tx.origin\n        );\n        return true;\n    }\n\n    function addNewInSellItem(address newItem) internal {\n        inSellItems.push(newItem);\n    }\n\n    function addNewIssuedItem(address newItem) internal {\n        issuedItems.push(newItem);\n    }\n\n    function containsAddress(\n        address _address,\n        address[] memory array\n    ) internal pure returns (bool) {\n        for (uint256 index = 0; index < array.length; index++) {\n            if (_address == array[index]) {\n                return true;\n            }\n        }\n        return false;\n    }\n\n    function removeElement(\n        address[] storage array,\n        address elem\n    ) internal returns (bool) {\n        uint _index = 0;\n        for (uint256 index = 1; index < array.length + 1; index++) {\n            if (elem == array[index - 1]) {\n                _index = index;\n            }\n        }\n        if (_index != 0) {\n            array[_index - 1] = array[array.length - 1];\n            array.pop();\n            return true;\n        } else {\n            return false;\n        }\n    }\n}\n",
  "sourcePath": "/home/andrea/BlockchainProject/contracts/MainSmartContract.sol",
  "compiler": {
    "name": "solc",
    "version": "0.8.19+commit.7dd6d404.Emscripten.clang"
  },
  "schemaVersion": "3.4.13",
  "updatedAt": "2023-06-06T10:12:10.589Z",
  "networkType": "ethereum",
  "devdoc": {
    "kind": "dev",
    "methods": {},
    "version": 1
  },
  "userdoc": {
    "kind": "user",
    "methods": {},
    "version": 1
  }
}