{
  "contractName": "MainSmartContract",
  "abi": [
    {
      "inputs": [],
      "stateMutability": "nonpayable",
      "type": "constructor"
    },
    {
      "inputs": [],
      "name": "getIssuedItems",
      "outputs": [
        {
          "internalType": "address[]",
          "name": "",
          "type": "address[]"
        }
      ],
      "stateMutability": "view",
      "type": "function"
    },
    {
      "inputs": [],
      "name": "getInSellItems",
      "outputs": [
        {
          "internalType": "address[]",
          "name": "",
          "type": "address[]"
        }
      ],
      "stateMutability": "view",
      "type": "function"
    },
    {
      "inputs": [
        {
          "internalType": "address",
          "name": "NFTAddress",
          "type": "address"
        },
        {
          "internalType": "uint256",
          "name": "_price",
          "type": "uint256"
        }
      ],
      "name": "sell",
      "outputs": [
        {
          "internalType": "bytes",
          "name": "",
          "type": "bytes"
        }
      ],
      "stateMutability": "nonpayable",
      "type": "function"
    },
    {
      "inputs": [
        {
          "internalType": "address",
          "name": "NFTAddress",
          "type": "address"
        },
        {
          "internalType": "uint256",
          "name": "_price",
          "type": "uint256"
        }
      ],
      "name": "setPrice",
      "outputs": [
        {
          "internalType": "bool",
          "name": "",
          "type": "bool"
        }
      ],
      "stateMutability": "nonpayable",
      "type": "function"
    },
    {
      "inputs": [
        {
          "internalType": "address",
          "name": "NFTAddress",
          "type": "address"
        },
        {
          "internalType": "address",
          "name": "ownerOfNft",
          "type": "address"
        }
      ],
      "name": "buy",
      "outputs": [],
      "stateMutability": "payable",
      "type": "function"
    },
    {
      "inputs": [
        {
          "internalType": "address",
          "name": "NFTAddress",
          "type": "address"
        }
      ],
      "name": "CheckValidity",
      "outputs": [
        {
          "internalType": "bool",
          "name": "",
          "type": "bool"
        }
      ],
      "stateMutability": "view",
      "type": "function"
    },
    {
      "inputs": [
        {
          "internalType": "address",
          "name": "NFTAddress",
          "type": "address"
        }
      ],
      "name": "removeInSellItem",
      "outputs": [],
      "stateMutability": "nonpayable",
      "type": "function"
    },
    {
      "inputs": [
        {
          "internalType": "address",
          "name": "NFTAddress",
          "type": "address"
        }
      ],
      "name": "burn",
      "outputs": [
        {
          "internalType": "bool",
          "name": "",
          "type": "bool"
        }
      ],
      "stateMutability": "nonpayable",
      "type": "function"
    }
  ],
  "bytecode": "0x608060405234801561001057600080fd5b50336000806101000a81548173ffffffffffffffffffffffffffffffffffffffff021916908373ffffffffffffffffffffffffffffffffffffffff1602179055506116a1806100606000396000f3fe60806040526004361061007a5760003560e01c806389afcb441161004e57806389afcb441461014d5780638e6117141461018a578063ad7fadc5146101c7578063ccee9261146101e35761007a565b8062e4768b1461007f5780630a485550146100bc5780635021bd85146100e75780636c197ff514610110575b600080fd5b34801561008b57600080fd5b506100a660048036038101906100a19190610f99565b61020e565b6040516100b39190610ff4565b60405180910390f35b3480156100c857600080fd5b506100d1610354565b6040516100de91906110cd565b60405180910390f35b3480156100f357600080fd5b5061010e600480360381019061010991906110ef565b6103e2565b005b34801561011c57600080fd5b5061013760048036038101906101329190610f99565b61042f565b60405161014491906111ac565b60405180910390f35b34801561015957600080fd5b50610174600480360381019061016f91906110ef565b610671565b6040516101819190610ff4565b60405180910390f35b34801561019657600080fd5b506101b160048036038101906101ac91906110ef565b61076c565b6040516101be9190610ff4565b60405180910390f35b6101e160048036038101906101dc91906111ce565b610816565b005b3480156101ef57600080fd5b506101f8610b4c565b60405161020591906110cd565b60405180910390f35b6000808373ffffffffffffffffffffffffffffffffffffffff1683604051602401610239919061121d565b6040516020818303038152906040527f91b7f5ed000000000000000000000000000000000000000000000000000000007bffffffffffffffffffffffffffffffffffffffffffffffffffffffff19166020820180517bffffffffffffffffffffffffffffffffffffffffffffffffffffffff83818316178352505050506040516102c39190611274565b6000604051808303816000865af19150503d8060008114610300576040519150601f19603f3d011682016040523d82523d6000602084013e610305565b606091505b5050905080610349576040517f08c379a0000000000000000000000000000000000000000000000000000000008152600401610340906112e8565b60405180910390fd5b600191505092915050565b606060018054806020026020016040519081016040528092919081815260200182805480156103d857602002820191906000526020600020905b8160009054906101000a900473ffffffffffffffffffffffffffffffffffffffff1673ffffffffffffffffffffffffffffffffffffffff168152602001906001019080831161038e575b5050505050905090565b6103ed600282610bda565b61042c576040517f08c379a00000000000000000000000000000000000000000000000000000000081526004016104239061137a565b60405180910390fd5b50565b60606104c18360028054806020026020016040519081016040528092919081815260200182805480156104b757602002820191906000526020600020905b8160009054906101000a900473ffffffffffffffffffffffffffffffffffffffff1673ffffffffffffffffffffffffffffffffffffffff168152602001906001019080831161046d575b5050505050610dad565b61056d576104ce83610e34565b61055e83600180548060200260200160405190810160405280929190818152602001828054801561055457602002820191906000526020600020905b8160009054906101000a900473ffffffffffffffffffffffffffffffffffffffff1673ffffffffffffffffffffffffffffffffffffffff168152602001906001019080831161050a575b5050505050610dad565b61056c5761056b83610e9a565b5b5b60008373ffffffffffffffffffffffffffffffffffffffff1683604051602401610597919061121d565b6040516020818303038152906040527f91b7f5ed000000000000000000000000000000000000000000000000000000007bffffffffffffffffffffffffffffffffffffffffffffffffffffffff19166020820180517bffffffffffffffffffffffffffffffffffffffffffffffffffffffff83818316178352505050506040516106219190611274565b6000604051808303816000865af19150503d806000811461065e576040519150601f19603f3d011682016040523d82523d6000602084013e610663565b606091505b509150508091505092915050565b6000808273ffffffffffffffffffffffffffffffffffffffff166040516024016040516020818303038152906040527f44df8e70000000000000000000000000000000000000000000000000000000007bffffffffffffffffffffffffffffffffffffffffffffffffffffffff19166020820180517bffffffffffffffffffffffffffffffffffffffffffffffffffffffff838183161783525050505060405161071b9190611274565b6000604051808303816000865af19150503d8060008114610758576040519150601f19603f3d011682016040523d82523d6000602084013e61075d565b606091505b50508091505080915050919050565b60006107fe8260018054806020026020016040519081016040528092919081815260200182805480156107f457602002820191906000526020600020905b8160009054906101000a900473ffffffffffffffffffffffffffffffffffffffff1673ffffffffffffffffffffffffffffffffffffffff16815260200190600101908083116107aa575b5050505050610dad565b1561080c5760019050610811565b600090505b919050565b60008273ffffffffffffffffffffffffffffffffffffffff166040516024016040516020818303038152906040527f98d5fdca000000000000000000000000000000000000000000000000000000007bffffffffffffffffffffffffffffffffffffffffffffffffffffffff19166020820180517bffffffffffffffffffffffffffffffffffffffffffffffffffffffff83818316178352505050506040516108bf9190611274565b6000604051808303816000865af19150503d80600081146108fc576040519150601f19603f3d011682016040523d82523d6000602084013e610901565b606091505b5091505060008180602001905181019061091b91906113af565b9050670de0b6b3a764000081610931919061140b565b3414610972576040517f08c379a000000000000000000000000000000000000000000000000000000000815260040161096990611499565b60405180910390fd5b60008390508073ffffffffffffffffffffffffffffffffffffffff166108fc349081150290604051600060405180830381858888f193505050501580156109bd573d6000803e3d6000fd5b5060008573ffffffffffffffffffffffffffffffffffffffff1685336040516024016109ea9291906114c8565b6040516020818303038152906040527f06683071000000000000000000000000000000000000000000000000000000007bffffffffffffffffffffffffffffffffffffffffffffffffffffffff19166020820180517bffffffffffffffffffffffffffffffffffffffffffffffffffffffff8381831617835250505050604051610a749190611274565b6000604051808303816000865af19150503d8060008114610ab1576040519150601f19603f3d011682016040523d82523d6000602084013e610ab6565b606091505b5050905080610afa576040517f08c379a0000000000000000000000000000000000000000000000000000000008152600401610af19061153d565b60405180910390fd5b610b05600287610bda565b610b44576040517f08c379a0000000000000000000000000000000000000000000000000000000008152600401610b3b9061137a565b60405180910390fd5b505050505050565b60606002805480602002602001604051908101604052809291908181526020018280548015610bd057602002820191906000526020600020905b8160009054906101000a900473ffffffffffffffffffffffffffffffffffffffff1673ffffffffffffffffffffffffffffffffffffffff1681526020019060010190808311610b86575b5050505050905090565b600080600090506000600190505b60018580549050610bf9919061155d565b811015610c935784600182610c0e9190611591565b81548110610c1f57610c1e6115c5565b5b9060005260206000200160009054906101000a900473ffffffffffffffffffffffffffffffffffffffff1673ffffffffffffffffffffffffffffffffffffffff168473ffffffffffffffffffffffffffffffffffffffff1603610c80578091505b8080610c8b906115f4565b915050610be8565b5060008114610da1578360018580549050610cae9190611591565b81548110610cbf57610cbe6115c5565b5b9060005260206000200160009054906101000a900473ffffffffffffffffffffffffffffffffffffffff1684600183610cf89190611591565b81548110610d0957610d086115c5565b5b9060005260206000200160006101000a81548173ffffffffffffffffffffffffffffffffffffffff021916908373ffffffffffffffffffffffffffffffffffffffff16021790555083805480610d6257610d6161163c565b5b6001900381819060005260206000200160006101000a81549073ffffffffffffffffffffffffffffffffffffffff021916905590556001915050610da7565b60009150505b92915050565b600080600090505b8251811015610e2857828181518110610dd157610dd06115c5565b5b602002602001015173ffffffffffffffffffffffffffffffffffffffff168473ffffffffffffffffffffffffffffffffffffffff1603610e15576001915050610e2e565b8080610e20906115f4565b915050610db5565b50600090505b92915050565b6002819080600181540180825580915050600190039060005260206000200160009091909190916101000a81548173ffffffffffffffffffffffffffffffffffffffff021916908373ffffffffffffffffffffffffffffffffffffffff16021790555050565b6001819080600181540180825580915050600190039060005260206000200160009091909190916101000a81548173ffffffffffffffffffffffffffffffffffffffff021916908373ffffffffffffffffffffffffffffffffffffffff16021790555050565b600080fd5b600073ffffffffffffffffffffffffffffffffffffffff82169050919050565b6000610f3082610f05565b9050919050565b610f4081610f25565b8114610f4b57600080fd5b50565b600081359050610f5d81610f37565b92915050565b6000819050919050565b610f7681610f63565b8114610f8157600080fd5b50565b600081359050610f9381610f6d565b92915050565b60008060408385031215610fb057610faf610f00565b5b6000610fbe85828601610f4e565b9250506020610fcf85828601610f84565b9150509250929050565b60008115159050919050565b610fee81610fd9565b82525050565b60006020820190506110096000830184610fe5565b92915050565b600081519050919050565b600082825260208201905092915050565b6000819050602082019050919050565b61104481610f25565b82525050565b6000611056838361103b565b60208301905092915050565b6000602082019050919050565b600061107a8261100f565b611084818561101a565b935061108f8361102b565b8060005b838110156110c05781516110a7888261104a565b97506110b283611062565b925050600181019050611093565b5085935050505092915050565b600060208201905081810360008301526110e7818461106f565b905092915050565b60006020828403121561110557611104610f00565b5b600061111384828501610f4e565b91505092915050565b600081519050919050565b600082825260208201905092915050565b60005b8381101561115657808201518184015260208101905061113b565b60008484015250505050565b6000601f19601f8301169050919050565b600061117e8261111c565b6111888185611127565b9350611198818560208601611138565b6111a181611162565b840191505092915050565b600060208201905081810360008301526111c68184611173565b905092915050565b600080604083850312156111e5576111e4610f00565b5b60006111f385828601610f4e565b925050602061120485828601610f4e565b9150509250929050565b61121781610f63565b82525050565b6000602082019050611232600083018461120e565b92915050565b600081905092915050565b600061124e8261111c565b6112588185611238565b9350611268818560208601611138565b80840191505092915050565b60006112808284611243565b915081905092915050565b600082825260208201905092915050565b7f6572726f7220696e207365742050726963650000000000000000000000000000600082015250565b60006112d260128361128b565b91506112dd8261129c565b602082019050919050565b60006020820190508181036000830152611301816112c5565b9050919050565b7f546865204e465420646f6573206e6f742065786973747320696e20746865207360008201527f656c6c206d61726b657400000000000000000000000000000000000000000000602082015250565b6000611364602a8361128b565b915061136f82611308565b604082019050919050565b6000602082019050818103600083015261139381611357565b9050919050565b6000815190506113a981610f6d565b92915050565b6000602082840312156113c5576113c4610f00565b5b60006113d38482850161139a565b91505092915050565b7f4e487b7100000000000000000000000000000000000000000000000000000000600052601160045260246000fd5b600061141682610f63565b915061142183610f63565b925082820261142f81610f63565b91508282048414831517611446576114456113dc565b5b5092915050565b7f6e6f7420656e6f7567682076616c75652070726f766964656400000000000000600082015250565b600061148360198361128b565b915061148e8261144d565b602082019050919050565b600060208201905081810360008301526114b281611476565b9050919050565b6114c281610f25565b82525050565b60006040820190506114dd60008301856114b9565b6114ea60208301846114b9565b9392505050565b7f546865204e465420776173206e6f74207472616e736665726564000000000000600082015250565b6000611527601a8361128b565b9150611532826114f1565b602082019050919050565b600060208201905081810360008301526115568161151a565b9050919050565b600061156882610f63565b915061157383610f63565b925082820190508082111561158b5761158a6113dc565b5b92915050565b600061159c82610f63565b91506115a783610f63565b92508282039050818111156115bf576115be6113dc565b5b92915050565b7f4e487b7100000000000000000000000000000000000000000000000000000000600052603260045260246000fd5b60006115ff82610f63565b91507fffffffffffffffffffffffffffffffffffffffffffffffffffffffffffffffff8203611631576116306113dc565b5b600182019050919050565b7f4e487b7100000000000000000000000000000000000000000000000000000000600052603160045260246000fdfea2646970667358221220bf55f245171969243e6c33ee1659b77ca43bcbea5f7eb80f3b810802c9861b5b64736f6c63430008130033",
  "immutableReferences": {},
  "source": "// SPDX-License-Identifier: MIT\npragma solidity ^0.8.13;\n\nimport \"./HNFT.sol\";\n\n//add for debugging purpuse\n//import \"truffle/console.sol\";\n\ncontract MainSmartContract {\n    address private owner;\n    address[] private issuedItems;\n    address[] private inSellItems;\n\n    constructor() {\n        owner = msg.sender;\n    }\n\n    function getIssuedItems() external view returns (address[] memory) {\n        return issuedItems;\n    }\n\n    function getInSellItems() external view returns (address[] memory) {\n        return inSellItems;\n    }\n\n    function sell(\n        address NFTAddress,\n        uint256 _price\n    ) external returns (bytes memory) {\n        if (!containsAddress(NFTAddress, inSellItems)) {\n            addNewInSellItem(NFTAddress);\n            if (!containsAddress(NFTAddress, issuedItems))\n                addNewIssuedItem(NFTAddress);\n        }\n\n        (, bytes memory res) = NFTAddress.call(\n            abi.encodeWithSignature(\"setPrice(uint256)\", _price)\n        );\n        return res;\n    }\n\n    function setPrice(\n        address NFTAddress,\n        uint256 _price\n    ) external returns (bool) {\n        (bool resb, ) = NFTAddress.call(\n            abi.encodeWithSignature(\"setPrice(uint256)\", _price)\n        );\n        if (!resb) {\n            revert(\"error in set Price\");\n        } else {\n            return true;\n        }\n    }\n\n    function buy(address NFTAddress, address ownerOfNft) external payable {\n        (, bytes memory res) = NFTAddress.call(\n            abi.encodeWithSignature(\"getPrice()\")\n        );\n        uint256 price = abi.decode(res, (uint));\n        require(msg.value == price * 1 ether, \"not enough value provided\");\n\n        address payable _owner = payable(ownerOfNft);\n        _owner.transfer(msg.value);\n\n        (bool resb, ) = NFTAddress.call(\n            abi.encodeWithSignature(\n                \"transferBuy(address,address)\",\n                ownerOfNft,\n                msg.sender\n            )\n        );\n        if (!resb) {\n            revert(\"The NFT was not transfered\");\n        }\n        if (!removeElement(inSellItems, NFTAddress)) {\n            revert(\"The NFT does not exists in the sell market\");\n        }\n    }\n\n    function CheckValidity(address NFTAddress) external view returns (bool) {\n        if (containsAddress(NFTAddress, issuedItems)) {\n            return true;\n        }\n        return false;\n    }\n\n    function removeInSellItem(address NFTAddress) external {\n        if (!removeElement(inSellItems, NFTAddress)) {\n            revert(\"The NFT does not exists in the sell market\");\n        }\n    }\n\n    function burn(address NFTAddress) external returns (bool) {\n        bool resb;\n        (resb, ) = NFTAddress.call(abi.encodeWithSignature(\"burn()\"));\n        return resb;\n    }\n\n    function addNewInSellItem(address newItem) internal {\n        inSellItems.push(newItem);\n    }\n\n    function addNewIssuedItem(address newItem) internal {\n        issuedItems.push(newItem);\n    }\n\n    function containsAddress(\n        address _address,\n        address[] memory array\n    ) internal pure returns (bool) {\n        for (uint256 index = 0; index < array.length; index++) {\n            if (_address == array[index]) {\n                return true;\n            }\n        }\n        return false;\n    }\n\n    function removeElement(\n        address[] storage array,\n        address elem\n    ) internal returns (bool) {\n        uint _index = 0;\n        for (uint256 index = 1; index < array.length + 1; index++) {\n            if (elem == array[index - 1]) {\n                _index = index;\n            }\n        }\n        if (_index != 0) {\n            array[_index - 1] = array[array.length - 1];\n            array.pop();\n            return true;\n        } else {\n            return false;\n        }\n    }\n}\n",
  "sourcePath": "/home/andrea/BlockchainProject/contracts/MainSmartContract.sol",
  "compiler": {
    "name": "solc",
    "version": "0.8.19+commit.7dd6d404.Emscripten.clang"
  },
  "schemaVersion": "3.4.13",
  "updatedAt": "2023-06-03T10:20:33.509Z",
  "devdoc": {
    "kind": "dev",
    "methods": {},
    "version": 1
  },
  "userdoc": {
    "kind": "user",
    "methods": {},
    "version": 1
  }
}