{
  "contractName": "MainSmartContract",
  "abi": [
    {
      "inputs": [],
      "stateMutability": "nonpayable",
      "type": "constructor"
    },
    {
      "anonymous": false,
      "inputs": [
        {
          "indexed": true,
          "internalType": "address",
          "name": "HNFTAddress",
          "type": "address"
        },
        {
          "indexed": false,
          "internalType": "string",
          "name": "message",
          "type": "string"
        },
        {
          "indexed": false,
          "internalType": "address",
          "name": "requester",
          "type": "address"
        }
      ],
      "name": "GetPhysicalHoney",
      "type": "event"
    },
    {
      "inputs": [],
      "name": "getIssuedItems",
      "outputs": [
        {
          "internalType": "address[]",
          "name": "",
          "type": "address[]"
        }
      ],
      "stateMutability": "view",
      "type": "function"
    },
    {
      "inputs": [],
      "name": "getInSellItems",
      "outputs": [
        {
          "internalType": "address[]",
          "name": "",
          "type": "address[]"
        }
      ],
      "stateMutability": "view",
      "type": "function"
    },
    {
      "inputs": [
        {
          "internalType": "address",
          "name": "NFTAddress",
          "type": "address"
        },
        {
          "internalType": "uint256",
          "name": "_price",
          "type": "uint256"
        }
      ],
      "name": "sell",
      "outputs": [
        {
          "internalType": "bytes",
          "name": "",
          "type": "bytes"
        }
      ],
      "stateMutability": "nonpayable",
      "type": "function"
    },
    {
      "inputs": [
        {
          "internalType": "address",
          "name": "NFTAddress",
          "type": "address"
        },
        {
          "internalType": "address",
          "name": "ownerOfNft",
          "type": "address"
        }
      ],
      "name": "buy",
      "outputs": [],
      "stateMutability": "payable",
      "type": "function"
    },
    {
      "inputs": [
        {
          "internalType": "address",
          "name": "NFTAddress",
          "type": "address"
        }
      ],
      "name": "CheckValidity",
      "outputs": [
        {
          "internalType": "bool",
          "name": "",
          "type": "bool"
        }
      ],
      "stateMutability": "view",
      "type": "function"
    },
    {
      "inputs": [
        {
          "internalType": "address",
          "name": "NFTAddress",
          "type": "address"
        }
      ],
      "name": "removeInSellItem",
      "outputs": [],
      "stateMutability": "nonpayable",
      "type": "function"
    },
    {
      "inputs": [],
      "name": "getRealHoney",
      "outputs": [
        {
          "internalType": "bool",
          "name": "",
          "type": "bool"
        }
      ],
      "stateMutability": "nonpayable",
      "type": "function"
    }
  ],
  "bytecode": "0x608060405234801561001057600080fd5b50336000806101000a81548173ffffffffffffffffffffffffffffffffffffffff021916908373ffffffffffffffffffffffffffffffffffffffff1602179055506117a6806100606000396000f3fe6080604052600436106100705760003560e01c80638e6117141161004e5780638e611714146101065780639f4fa79a14610143578063ad7fadc51461016e578063ccee92611461018a57610070565b80630a485550146100755780635021bd85146100a05780636c197ff5146100c9575b600080fd5b34801561008157600080fd5b5061008a6101b5565b6040516100979190610f9d565b60405180910390f35b3480156100ac57600080fd5b506100c760048036038101906100c29190610ff0565b610243565b005b3480156100d557600080fd5b506100f060048036038101906100eb9190611053565b61031e565b6040516100fd9190611123565b60405180910390f35b34801561011257600080fd5b5061012d60048036038101906101289190610ff0565b6105ee565b60405161013a9190611160565b60405180910390f35b34801561014f57600080fd5b50610158610698565b6040516101659190611160565b60405180910390f35b6101886004803603810190610183919061117b565b6107c3565b005b34801561019657600080fd5b5061019f610af9565b6040516101ac9190610f9d565b60405180910390f35b6060600180548060200260200160405190810160405280929190818152602001828054801561023957602002820191906000526020600020905b8160009054906101000a900473ffffffffffffffffffffffffffffffffffffffff1673ffffffffffffffffffffffffffffffffffffffff16815260200190600101908083116101ef575b5050505050905090565b60008054906101000a900473ffffffffffffffffffffffffffffffffffffffff1673ffffffffffffffffffffffffffffffffffffffff163373ffffffffffffffffffffffffffffffffffffffff16146102d1576040517f08c379a00000000000000000000000000000000000000000000000000000000081526004016102c89061123e565b60405180910390fd5b6102dc600282610b87565b61031b576040517f08c379a0000000000000000000000000000000000000000000000000000000008152600401610312906112d0565b60405180910390fd5b50565b606060008054906101000a900473ffffffffffffffffffffffffffffffffffffffff1673ffffffffffffffffffffffffffffffffffffffff163373ffffffffffffffffffffffffffffffffffffffff16146103ae576040517f08c379a00000000000000000000000000000000000000000000000000000000081526004016103a59061123e565b60405180910390fd5b61043e83600280548060200260200160405190810160405280929190818152602001828054801561043457602002820191906000526020600020905b8160009054906101000a900473ffffffffffffffffffffffffffffffffffffffff1673ffffffffffffffffffffffffffffffffffffffff16815260200190600101908083116103ea575b5050505050610d5a565b6104ea5761044b83610de1565b6104db8360018054806020026020016040519081016040528092919081815260200182805480156104d157602002820191906000526020600020905b8160009054906101000a900473ffffffffffffffffffffffffffffffffffffffff1673ffffffffffffffffffffffffffffffffffffffff1681526020019060010190808311610487575b5050505050610d5a565b6104e9576104e883610e47565b5b5b60008373ffffffffffffffffffffffffffffffffffffffff168360405160240161051491906112ff565b6040516020818303038152906040527f91b7f5ed000000000000000000000000000000000000000000000000000000007bffffffffffffffffffffffffffffffffffffffffffffffffffffffff19166020820180517bffffffffffffffffffffffffffffffffffffffffffffffffffffffff838183161783525050505060405161059e9190611356565b6000604051808303816000865af19150503d80600081146105db576040519150601f19603f3d011682016040523d82523d6000602084013e6105e0565b606091505b509150508091505092915050565b600061068082600180548060200260200160405190810160405280929190818152602001828054801561067657602002820191906000526020600020905b8160009054906101000a900473ffffffffffffffffffffffffffffffffffffffff1673ffffffffffffffffffffffffffffffffffffffff168152602001906001019080831161062c575b5050505050610d5a565b1561068e5760019050610693565b600090505b919050565b60008033905061072e33600180548060200260200160405190810160405280929190818152602001828054801561072457602002820191906000526020600020905b8160009054906101000a900473ffffffffffffffffffffffffffffffffffffffff1673ffffffffffffffffffffffffffffffffffffffff16815260200190600101908083116106da575b5050505050610d5a565b61076d576040517f08c379a0000000000000000000000000000000000000000000000000000000008152600401610764906113df565b60405180910390fd5b8073ffffffffffffffffffffffffffffffffffffffff167f77cd49935b3697bb6b1454fc79d2450e25a35f6ff1f5f0ed6c3a1300cb4edf45326040516107b39190611480565b60405180910390a2600191505090565b60008273ffffffffffffffffffffffffffffffffffffffff166040516024016040516020818303038152906040527f98d5fdca000000000000000000000000000000000000000000000000000000007bffffffffffffffffffffffffffffffffffffffffffffffffffffffff19166020820180517bffffffffffffffffffffffffffffffffffffffffffffffffffffffff838183161783525050505060405161086c9190611356565b6000604051808303816000865af19150503d80600081146108a9576040519150601f19603f3d011682016040523d82523d6000602084013e6108ae565b606091505b509150506000818060200190518101906108c891906114c3565b9050670de0b6b3a7640000816108de919061151f565b341461091f576040517f08c379a0000000000000000000000000000000000000000000000000000000008152600401610916906115ad565b60405180910390fd5b60008390508073ffffffffffffffffffffffffffffffffffffffff166108fc349081150290604051600060405180830381858888f1935050505015801561096a573d6000803e3d6000fd5b5060008573ffffffffffffffffffffffffffffffffffffffff1685336040516024016109979291906115cd565b6040516020818303038152906040527f06683071000000000000000000000000000000000000000000000000000000007bffffffffffffffffffffffffffffffffffffffffffffffffffffffff19166020820180517bffffffffffffffffffffffffffffffffffffffffffffffffffffffff8381831617835250505050604051610a219190611356565b6000604051808303816000865af19150503d8060008114610a5e576040519150601f19603f3d011682016040523d82523d6000602084013e610a63565b606091505b5050905080610aa7576040517f08c379a0000000000000000000000000000000000000000000000000000000008152600401610a9e90611642565b60405180910390fd5b610ab2600287610b87565b610af1576040517f08c379a0000000000000000000000000000000000000000000000000000000008152600401610ae8906112d0565b60405180910390fd5b505050505050565b60606002805480602002602001604051908101604052809291908181526020018280548015610b7d57602002820191906000526020600020905b8160009054906101000a900473ffffffffffffffffffffffffffffffffffffffff1673ffffffffffffffffffffffffffffffffffffffff1681526020019060010190808311610b33575b5050505050905090565b600080600090506000600190505b60018580549050610ba69190611662565b811015610c405784600182610bbb9190611696565b81548110610bcc57610bcb6116ca565b5b9060005260206000200160009054906101000a900473ffffffffffffffffffffffffffffffffffffffff1673ffffffffffffffffffffffffffffffffffffffff168473ffffffffffffffffffffffffffffffffffffffff1603610c2d578091505b8080610c38906116f9565b915050610b95565b5060008114610d4e578360018580549050610c5b9190611696565b81548110610c6c57610c6b6116ca565b5b9060005260206000200160009054906101000a900473ffffffffffffffffffffffffffffffffffffffff1684600183610ca59190611696565b81548110610cb657610cb56116ca565b5b9060005260206000200160006101000a81548173ffffffffffffffffffffffffffffffffffffffff021916908373ffffffffffffffffffffffffffffffffffffffff16021790555083805480610d0f57610d0e611741565b5b6001900381819060005260206000200160006101000a81549073ffffffffffffffffffffffffffffffffffffffff021916905590556001915050610d54565b60009150505b92915050565b600080600090505b8251811015610dd557828181518110610d7e57610d7d6116ca565b5b602002602001015173ffffffffffffffffffffffffffffffffffffffff168473ffffffffffffffffffffffffffffffffffffffff1603610dc2576001915050610ddb565b8080610dcd906116f9565b915050610d62565b50600090505b92915050565b6002819080600181540180825580915050600190039060005260206000200160009091909190916101000a81548173ffffffffffffffffffffffffffffffffffffffff021916908373ffffffffffffffffffffffffffffffffffffffff16021790555050565b6001819080600181540180825580915050600190039060005260206000200160009091909190916101000a81548173ffffffffffffffffffffffffffffffffffffffff021916908373ffffffffffffffffffffffffffffffffffffffff16021790555050565b600081519050919050565b600082825260208201905092915050565b6000819050602082019050919050565b600073ffffffffffffffffffffffffffffffffffffffff82169050919050565b6000610f0482610ed9565b9050919050565b610f1481610ef9565b82525050565b6000610f268383610f0b565b60208301905092915050565b6000602082019050919050565b6000610f4a82610ead565b610f548185610eb8565b9350610f5f83610ec9565b8060005b83811015610f90578151610f778882610f1a565b9750610f8283610f32565b925050600181019050610f63565b5085935050505092915050565b60006020820190508181036000830152610fb78184610f3f565b905092915050565b600080fd5b610fcd81610ef9565b8114610fd857600080fd5b50565b600081359050610fea81610fc4565b92915050565b60006020828403121561100657611005610fbf565b5b600061101484828501610fdb565b91505092915050565b6000819050919050565b6110308161101d565b811461103b57600080fd5b50565b60008135905061104d81611027565b92915050565b6000806040838503121561106a57611069610fbf565b5b600061107885828601610fdb565b92505060206110898582860161103e565b9150509250929050565b600081519050919050565b600082825260208201905092915050565b60005b838110156110cd5780820151818401526020810190506110b2565b60008484015250505050565b6000601f19601f8301169050919050565b60006110f582611093565b6110ff818561109e565b935061110f8185602086016110af565b611118816110d9565b840191505092915050565b6000602082019050818103600083015261113d81846110ea565b905092915050565b60008115159050919050565b61115a81611145565b82525050565b60006020820190506111756000830184611151565b92915050565b6000806040838503121561119257611191610fbf565b5b60006111a085828601610fdb565b92505060206111b185828601610fdb565b9150509250929050565b600082825260208201905092915050565b7f4f6e6c7920746865206f776e65722063616e2072756e20746869732066756e6360008201527f74696f6e2e000000000000000000000000000000000000000000000000000000602082015250565b60006112286025836111bb565b9150611233826111cc565b604082019050919050565b600060208201905081810360008301526112578161121b565b9050919050565b7f546865204e465420646f6573206e6f742065786973747320696e20746865207360008201527f656c6c206d61726b657400000000000000000000000000000000000000000000602082015250565b60006112ba602a836111bb565b91506112c58261125e565b604082019050919050565b600060208201905081810360008301526112e9816112ad565b9050919050565b6112f98161101d565b82525050565b600060208201905061131460008301846112f0565b92915050565b600081905092915050565b600061133082611093565b61133a818561131a565b935061134a8185602086016110af565b80840191505092915050565b60006113628284611325565b915081905092915050565b7f546865206974656d206973206e6f7420696e207468652069737375656420484e60008201527f4654000000000000000000000000000000000000000000000000000000000000602082015250565b60006113c96022836111bb565b91506113d48261136d565b604082019050919050565b600060208201905081810360008301526113f8816113bc565b9050919050565b7f486f6e657920697320706879736963616c207265717565737465642066726f6d60008201527f20697473206f776e657200000000000000000000000000000000000000000000602082015250565b600061145b602a836111bb565b9150611466826113ff565b604082019050919050565b61147a81610ef9565b82525050565b600060408201905081810360008301526114998161144e565b90506114a86020830184611471565b92915050565b6000815190506114bd81611027565b92915050565b6000602082840312156114d9576114d8610fbf565b5b60006114e7848285016114ae565b91505092915050565b7f4e487b7100000000000000000000000000000000000000000000000000000000600052601160045260246000fd5b600061152a8261101d565b91506115358361101d565b92508282026115438161101d565b9150828204841483151761155a576115596114f0565b5b5092915050565b7f6e6f7420656e6f7567682076616c75652070726f766964656400000000000000600082015250565b60006115976019836111bb565b91506115a282611561565b602082019050919050565b600060208201905081810360008301526115c68161158a565b9050919050565b60006040820190506115e26000830185611471565b6115ef6020830184611471565b9392505050565b7f546865204e465420776173206e6f74207472616e736665726564000000000000600082015250565b600061162c601a836111bb565b9150611637826115f6565b602082019050919050565b6000602082019050818103600083015261165b8161161f565b9050919050565b600061166d8261101d565b91506116788361101d565b92508282019050808211156116905761168f6114f0565b5b92915050565b60006116a18261101d565b91506116ac8361101d565b92508282039050818111156116c4576116c36114f0565b5b92915050565b7f4e487b7100000000000000000000000000000000000000000000000000000000600052603260045260246000fd5b60006117048261101d565b91507fffffffffffffffffffffffffffffffffffffffffffffffffffffffffffffffff8203611736576117356114f0565b5b600182019050919050565b7f4e487b7100000000000000000000000000000000000000000000000000000000600052603160045260246000fdfea26469706673582212202e046d450da670d82903b0d4c4fa46fd394d29ae0546bcc76a51d9b111bfeaf664736f6c63430008130033",
  "immutableReferences": {},
  "source": "// SPDX-License-Identifier: MIT\npragma solidity ^0.8.13;\n\nimport \"./HNFT.sol\";\n\n//add for debugging purpuse\n//import \"truffle/console.sol\";\n\ncontract MainSmartContract {\n    address private owner;\n    address[] private issuedItems;\n    address[] private inSellItems;\n\n    // Modifier to check that the caller is the owner of\n    // the contract.\n    modifier onlyOwner() {\n        require(msg.sender == owner, \"Only the owner can run this function.\");\n        _;\n    }\n    event GetPhysicalHoney(\n        address indexed HNFTAddress,\n        string message,\n        address requester\n    );\n\n    constructor() {\n        owner = msg.sender;\n    }\n\n    function getIssuedItems() external view returns (address[] memory) {\n        return issuedItems;\n    }\n\n    function getInSellItems() external view returns (address[] memory) {\n        return inSellItems;\n    }\n\n    function sell(\n        address NFTAddress,\n        uint256 _price\n    ) external onlyOwner returns (bytes memory) {\n        if (!containsAddress(NFTAddress, inSellItems)) {\n            addNewInSellItem(NFTAddress);\n            if (!containsAddress(NFTAddress, issuedItems))\n                addNewIssuedItem(NFTAddress);\n        }\n\n        (, bytes memory res) = NFTAddress.call(\n            abi.encodeWithSignature(\"setPrice(uint256)\", _price)\n        );\n        return res;\n    }\n\n    function buy(address NFTAddress, address ownerOfNft) external payable {\n        (, bytes memory res) = NFTAddress.call(\n            abi.encodeWithSignature(\"getPrice()\")\n        );\n        uint256 price = abi.decode(res, (uint));\n        require(msg.value == price * 1 ether, \"not enough value provided\");\n\n        address payable _owner = payable(ownerOfNft);\n        _owner.transfer(msg.value);\n\n        (bool resb, ) = NFTAddress.call(\n            abi.encodeWithSignature(\n                \"transferBuy(address,address)\",\n                ownerOfNft,\n                msg.sender\n            )\n        );\n        if (!resb) {\n            revert(\"The NFT was not transfered\");\n        }\n        if (!removeElement(inSellItems, NFTAddress)) {\n            revert(\"The NFT does not exists in the sell market\");\n        }\n    }\n\n    function CheckValidity(address NFTAddress) external view returns (bool) {\n        if (containsAddress(NFTAddress, issuedItems)) {\n            return true;\n        }\n        return false;\n    }\n\n    function removeInSellItem(address NFTAddress) external onlyOwner {\n        if (!removeElement(inSellItems, NFTAddress)) {\n            revert(\"The NFT does not exists in the sell market\");\n        }\n    }\n\n    function getRealHoney() external returns (bool) {\n        address NFTAddress = msg.sender;\n\n        require(\n            containsAddress(msg.sender, issuedItems),\n            \"The item is not in the issued HNFT\"\n        );\n\n        emit GetPhysicalHoney(\n            NFTAddress,\n            \"Honey is physical requested from its owner\",\n            tx.origin\n        );\n        return true;\n    }\n\n    function addNewInSellItem(address newItem) internal {\n        inSellItems.push(newItem);\n    }\n\n    function addNewIssuedItem(address newItem) internal {\n        issuedItems.push(newItem);\n    }\n\n    function containsAddress(\n        address _address,\n        address[] memory array\n    ) internal pure returns (bool) {\n        for (uint256 index = 0; index < array.length; index++) {\n            if (_address == array[index]) {\n                return true;\n            }\n        }\n        return false;\n    }\n\n    function removeElement(\n        address[] storage array,\n        address elem\n    ) internal returns (bool) {\n        uint _index = 0;\n        for (uint256 index = 1; index < array.length + 1; index++) {\n            if (elem == array[index - 1]) {\n                _index = index;\n            }\n        }\n        if (_index != 0) {\n            array[_index - 1] = array[array.length - 1];\n            array.pop();\n            return true;\n        } else {\n            return false;\n        }\n    }\n}\n",
  "sourcePath": "/home/fabri/BlockchainProject/contracts/MainSmartContract.sol",
  "compiler": {
    "name": "solc",
    "version": "0.8.19+commit.7dd6d404.Emscripten.clang"
  },
  "schemaVersion": "3.4.13",
  "updatedAt": "2023-06-16T14:36:22.995Z",
  "devdoc": {
    "kind": "dev",
    "methods": {},
    "version": 1
  },
  "userdoc": {
    "kind": "user",
    "methods": {},
    "version": 1
  }
}