{
  "contractName": "MainSmartContract",
  "abi": [
    {
      "inputs": [],
      "stateMutability": "nonpayable",
      "type": "constructor"
    },
    {
      "anonymous": false,
      "inputs": [
        {
          "indexed": true,
          "internalType": "address",
          "name": "HNFTAddress",
          "type": "address"
        },
        {
          "indexed": false,
          "internalType": "string",
          "name": "message",
          "type": "string"
        },
        {
          "indexed": false,
          "internalType": "address",
          "name": "requester",
          "type": "address"
        }
      ],
      "name": "GetPhysicalHoney",
      "type": "event"
    },
    {
      "inputs": [],
      "name": "getIssuedItems",
      "outputs": [
        {
          "internalType": "address[]",
          "name": "",
          "type": "address[]"
        }
      ],
      "stateMutability": "view",
      "type": "function",
      "constant": true
    },
    {
      "inputs": [],
      "name": "getInSellItems",
      "outputs": [
        {
          "internalType": "address[]",
          "name": "",
          "type": "address[]"
        }
      ],
      "stateMutability": "view",
      "type": "function",
      "constant": true
    },
    {
      "inputs": [
        {
          "internalType": "address",
          "name": "NFTAddress",
          "type": "address"
        },
        {
          "internalType": "uint256",
          "name": "_price",
          "type": "uint256"
        }
      ],
      "name": "sell",
      "outputs": [
        {
          "internalType": "bytes",
          "name": "",
          "type": "bytes"
        }
      ],
      "stateMutability": "nonpayable",
      "type": "function"
    },
    {
      "inputs": [
        {
          "internalType": "address",
          "name": "NFTAddress",
          "type": "address"
        },
        {
          "internalType": "address",
          "name": "ownerOfNft",
          "type": "address"
        }
      ],
      "name": "buy",
      "outputs": [],
      "stateMutability": "payable",
      "type": "function",
      "payable": true
    },
    {
      "inputs": [
        {
          "internalType": "address",
          "name": "NFTAddress",
          "type": "address"
        }
      ],
      "name": "checkValidity",
      "outputs": [
        {
          "internalType": "bool",
          "name": "",
          "type": "bool"
        }
      ],
      "stateMutability": "view",
      "type": "function",
      "constant": true
    },
    {
      "inputs": [
        {
          "internalType": "address",
          "name": "NFTAddress",
          "type": "address"
        }
      ],
      "name": "removeInSellItem",
      "outputs": [],
      "stateMutability": "nonpayable",
      "type": "function"
    },
    {
      "inputs": [],
      "name": "getRealHoney",
      "outputs": [
        {
          "internalType": "bool",
          "name": "",
          "type": "bool"
        }
      ],
      "stateMutability": "nonpayable",
      "type": "function"
    }
  ],
  "bytecode": "0x608060405234801561001057600080fd5b50336000806101000a81548173ffffffffffffffffffffffffffffffffffffffff021916908373ffffffffffffffffffffffffffffffffffffffff16021790555061189e806100606000396000f3fe6080604052600436106100705760003560e01c80636c197ff51161004e5780636c197ff5146101065780639f4fa79a14610143578063ad7fadc51461016e578063ccee92611461018a57610070565b80630a48555014610075578063171ee9f3146100a05780635021bd85146100dd575b600080fd5b34801561008157600080fd5b5061008a6101b5565b6040516100979190610fff565b60405180910390f35b3480156100ac57600080fd5b506100c760048036038101906100c29190611052565b610243565b6040516100d4919061109a565b60405180910390f35b3480156100e957600080fd5b5061010460048036038101906100ff9190611052565b6102dc565b005b34801561011257600080fd5b5061012d600480360381019061012891906110eb565b6103b7565b60405161013a91906111bb565b60405180910390f35b34801561014f57600080fd5b506101586106ca565b604051610165919061109a565b60405180910390f35b610188600480360381019061018391906111dd565b6107f5565b005b34801561019657600080fd5b5061019f610b5b565b6040516101ac9190610fff565b60405180910390f35b6060600180548060200260200160405190810160405280929190818152602001828054801561023957602002820191906000526020600020905b8160009054906101000a900473ffffffffffffffffffffffffffffffffffffffff1673ffffffffffffffffffffffffffffffffffffffff16815260200190600101908083116101ef575b5050505050905090565b60006102d58260018054806020026020016040519081016040528092919081815260200182805480156102cb57602002820191906000526020600020905b8160009054906101000a900473ffffffffffffffffffffffffffffffffffffffff1673ffffffffffffffffffffffffffffffffffffffff1681526020019060010190808311610281575b5050505050610be9565b9050919050565b60008054906101000a900473ffffffffffffffffffffffffffffffffffffffff1673ffffffffffffffffffffffffffffffffffffffff163373ffffffffffffffffffffffffffffffffffffffff161461036a576040517f08c379a0000000000000000000000000000000000000000000000000000000008152600401610361906112a0565b60405180910390fd5b610375600282610c70565b6103b4576040517f08c379a00000000000000000000000000000000000000000000000000000000081526004016103ab90611332565b60405180910390fd5b50565b606060008054906101000a900473ffffffffffffffffffffffffffffffffffffffff1673ffffffffffffffffffffffffffffffffffffffff163373ffffffffffffffffffffffffffffffffffffffff1614610447576040517f08c379a000000000000000000000000000000000000000000000000000000000815260040161043e906112a0565b60405180910390fd5b6104d78360028054806020026020016040519081016040528092919081815260200182805480156104cd57602002820191906000526020600020905b8160009054906101000a900473ffffffffffffffffffffffffffffffffffffffff1673ffffffffffffffffffffffffffffffffffffffff1681526020019060010190808311610483575b5050505050610be9565b610583576104e483610e43565b61057483600180548060200260200160405190810160405280929190818152602001828054801561056a57602002820191906000526020600020905b8160009054906101000a900473ffffffffffffffffffffffffffffffffffffffff1673ffffffffffffffffffffffffffffffffffffffff1681526020019060010190808311610520575b5050505050610be9565b6105825761058183610ea9565b5b5b6000808473ffffffffffffffffffffffffffffffffffffffff16846040516024016105ae9190611361565b6040516020818303038152906040527f91b7f5ed000000000000000000000000000000000000000000000000000000007bffffffffffffffffffffffffffffffffffffffffffffffffffffffff19166020820180517bffffffffffffffffffffffffffffffffffffffffffffffffffffffff838183161783525050505060405161063891906113b8565b6000604051808303816000865af19150503d8060008114610675576040519150601f19603f3d011682016040523d82523d6000602084013e61067a565b606091505b5091509150816106bf576040517f08c379a00000000000000000000000000000000000000000000000000000000081526004016106b69061141b565b60405180910390fd5b809250505092915050565b60008033905061076033600180548060200260200160405190810160405280929190818152602001828054801561075657602002820191906000526020600020905b8160009054906101000a900473ffffffffffffffffffffffffffffffffffffffff1673ffffffffffffffffffffffffffffffffffffffff168152602001906001019080831161070c575b5050505050610be9565b61079f576040517f08c379a0000000000000000000000000000000000000000000000000000000008152600401610796906114ad565b60405180910390fd5b8073ffffffffffffffffffffffffffffffffffffffff167f77cd49935b3697bb6b1454fc79d2450e25a35f6ff1f5f0ed6c3a1300cb4edf45326040516107e5919061154e565b60405180910390a2600191505090565b6000808373ffffffffffffffffffffffffffffffffffffffff166040516024016040516020818303038152906040527f98d5fdca000000000000000000000000000000000000000000000000000000007bffffffffffffffffffffffffffffffffffffffffffffffffffffffff19166020820180517bffffffffffffffffffffffffffffffffffffffffffffffffffffffff838183161783525050505060405161089f91906113b8565b6000604051808303816000865af19150503d80600081146108dc576040519150601f19603f3d011682016040523d82523d6000602084013e6108e1565b606091505b509150915081610926576040517f08c379a000000000000000000000000000000000000000000000000000000000815260040161091d906115c8565b60405180910390fd5b60008180602001905181019061093c91906115fd565b9050803414610980576040517f08c379a000000000000000000000000000000000000000000000000000000000815260040161097790611676565b60405180910390fd5b60008490508073ffffffffffffffffffffffffffffffffffffffff166108fc349081150290604051600060405180830381858888f193505050501580156109cb573d6000803e3d6000fd5b5060008673ffffffffffffffffffffffffffffffffffffffff1686336040516024016109f8929190611696565b6040516020818303038152906040527f06683071000000000000000000000000000000000000000000000000000000007bffffffffffffffffffffffffffffffffffffffffffffffffffffffff19166020820180517bffffffffffffffffffffffffffffffffffffffffffffffffffffffff8381831617835250505050604051610a8291906113b8565b6000604051808303816000865af19150503d8060008114610abf576040519150601f19603f3d011682016040523d82523d6000602084013e610ac4565b606091505b5050905080610b08576040517f08c379a0000000000000000000000000000000000000000000000000000000008152600401610aff9061170b565b60405180910390fd5b610b13600288610c70565b610b52576040517f08c379a0000000000000000000000000000000000000000000000000000000008152600401610b4990611332565b60405180910390fd5b50505050505050565b60606002805480602002602001604051908101604052809291908181526020018280548015610bdf57602002820191906000526020600020905b8160009054906101000a900473ffffffffffffffffffffffffffffffffffffffff1673ffffffffffffffffffffffffffffffffffffffff1681526020019060010190808311610b95575b5050505050905090565b600080600090505b8251811015610c6457828181518110610c0d57610c0c61172b565b5b602002602001015173ffffffffffffffffffffffffffffffffffffffff168473ffffffffffffffffffffffffffffffffffffffff1603610c51576001915050610c6a565b8080610c5c90611789565b915050610bf1565b50600090505b92915050565b600080600090506000600190505b60018580549050610c8f91906117d1565b811015610d295784600182610ca49190611805565b81548110610cb557610cb461172b565b5b9060005260206000200160009054906101000a900473ffffffffffffffffffffffffffffffffffffffff1673ffffffffffffffffffffffffffffffffffffffff168473ffffffffffffffffffffffffffffffffffffffff1603610d16578091505b8080610d2190611789565b915050610c7e565b5060008114610e37578360018580549050610d449190611805565b81548110610d5557610d5461172b565b5b9060005260206000200160009054906101000a900473ffffffffffffffffffffffffffffffffffffffff1684600183610d8e9190611805565b81548110610d9f57610d9e61172b565b5b9060005260206000200160006101000a81548173ffffffffffffffffffffffffffffffffffffffff021916908373ffffffffffffffffffffffffffffffffffffffff16021790555083805480610df857610df7611839565b5b6001900381819060005260206000200160006101000a81549073ffffffffffffffffffffffffffffffffffffffff021916905590556001915050610e3d565b60009150505b92915050565b6002819080600181540180825580915050600190039060005260206000200160009091909190916101000a81548173ffffffffffffffffffffffffffffffffffffffff021916908373ffffffffffffffffffffffffffffffffffffffff16021790555050565b6001819080600181540180825580915050600190039060005260206000200160009091909190916101000a81548173ffffffffffffffffffffffffffffffffffffffff021916908373ffffffffffffffffffffffffffffffffffffffff16021790555050565b600081519050919050565b600082825260208201905092915050565b6000819050602082019050919050565b600073ffffffffffffffffffffffffffffffffffffffff82169050919050565b6000610f6682610f3b565b9050919050565b610f7681610f5b565b82525050565b6000610f888383610f6d565b60208301905092915050565b6000602082019050919050565b6000610fac82610f0f565b610fb68185610f1a565b9350610fc183610f2b565b8060005b83811015610ff2578151610fd98882610f7c565b9750610fe483610f94565b925050600181019050610fc5565b5085935050505092915050565b600060208201905081810360008301526110198184610fa1565b905092915050565b600080fd5b61102f81610f5b565b811461103a57600080fd5b50565b60008135905061104c81611026565b92915050565b60006020828403121561106857611067611021565b5b60006110768482850161103d565b91505092915050565b60008115159050919050565b6110948161107f565b82525050565b60006020820190506110af600083018461108b565b92915050565b6000819050919050565b6110c8816110b5565b81146110d357600080fd5b50565b6000813590506110e5816110bf565b92915050565b6000806040838503121561110257611101611021565b5b60006111108582860161103d565b9250506020611121858286016110d6565b9150509250929050565b600081519050919050565b600082825260208201905092915050565b60005b8381101561116557808201518184015260208101905061114a565b60008484015250505050565b6000601f19601f8301169050919050565b600061118d8261112b565b6111978185611136565b93506111a7818560208601611147565b6111b081611171565b840191505092915050565b600060208201905081810360008301526111d58184611182565b905092915050565b600080604083850312156111f4576111f3611021565b5b60006112028582860161103d565b92505060206112138582860161103d565b9150509250929050565b600082825260208201905092915050565b7f4f6e6c7920746865206f776e65722063616e2072756e20746869732066756e6360008201527f74696f6e2e000000000000000000000000000000000000000000000000000000602082015250565b600061128a60258361121d565b91506112958261122e565b604082019050919050565b600060208201905081810360008301526112b98161127d565b9050919050565b7f546865204e465420646f6573206e6f742065786973747320696e20746865207360008201527f656c6c206d61726b657400000000000000000000000000000000000000000000602082015250565b600061131c602a8361121d565b9150611327826112c0565b604082019050919050565b6000602082019050818103600083015261134b8161130f565b9050919050565b61135b816110b5565b82525050565b60006020820190506113766000830184611352565b92915050565b600081905092915050565b60006113928261112b565b61139c818561137c565b93506113ac818560208601611147565b80840191505092915050565b60006113c48284611387565b915081905092915050565b7f6572726f7220696e2073657450726963652043616c6c696e6700000000000000600082015250565b600061140560198361121d565b9150611410826113cf565b602082019050919050565b60006020820190508181036000830152611434816113f8565b9050919050565b7f546865206974656d206973206e6f7420696e207468652069737375656420484e60008201527f4654000000000000000000000000000000000000000000000000000000000000602082015250565b600061149760228361121d565b91506114a28261143b565b604082019050919050565b600060208201905081810360008301526114c68161148a565b9050919050565b7f486f6e657920697320706879736963616c207265717565737465642066726f6d60008201527f20697473206f776e657200000000000000000000000000000000000000000000602082015250565b6000611529602a8361121d565b9150611534826114cd565b604082019050919050565b61154881610f5b565b82525050565b600060408201905081810360008301526115678161151c565b9050611576602083018461153f565b92915050565b7f6572726f7220696e2067657474696e6720746865207072696365000000000000600082015250565b60006115b2601a8361121d565b91506115bd8261157c565b602082019050919050565b600060208201905081810360008301526115e1816115a5565b9050919050565b6000815190506115f7816110bf565b92915050565b60006020828403121561161357611612611021565b5b6000611621848285016115e8565b91505092915050565b7f6e6f7420656e6f7567682076616c75652070726f766964656400000000000000600082015250565b600061166060198361121d565b915061166b8261162a565b602082019050919050565b6000602082019050818103600083015261168f81611653565b9050919050565b60006040820190506116ab600083018561153f565b6116b8602083018461153f565b9392505050565b7f546865204e465420776173206e6f74207472616e736665726564000000000000600082015250565b60006116f5601a8361121d565b9150611700826116bf565b602082019050919050565b60006020820190508181036000830152611724816116e8565b9050919050565b7f4e487b7100000000000000000000000000000000000000000000000000000000600052603260045260246000fd5b7f4e487b7100000000000000000000000000000000000000000000000000000000600052601160045260246000fd5b6000611794826110b5565b91507fffffffffffffffffffffffffffffffffffffffffffffffffffffffffffffffff82036117c6576117c561175a565b5b600182019050919050565b60006117dc826110b5565b91506117e7836110b5565b92508282019050808211156117ff576117fe61175a565b5b92915050565b6000611810826110b5565b915061181b836110b5565b92508282039050818111156118335761183261175a565b5b92915050565b7f4e487b7100000000000000000000000000000000000000000000000000000000600052603160045260246000fdfea26469706673582212204e36bb0c3d82a21c6020bb6581d2feb2793c47aa320dfca08de4e25089e8e33b64736f6c63430008130033",
  "immutableReferences": {},
  "source": "// SPDX-License-Identifier: MIT\npragma solidity ^0.8.13;\n\nimport \"./HNFT.sol\";\n\n//add for debugging purpuse\n//import \"truffle/console.sol\";\n\ncontract MainSmartContract {\n    address private owner;\n    address[] private issuedItems;\n    address[] private inSellItems;\n\n    // Modifier to check that the caller is the owner of\n    // the contract.\n    modifier onlyOwner() {\n        require(msg.sender == owner, \"Only the owner can run this function.\");\n        _;\n    }\n    event GetPhysicalHoney(\n        address indexed HNFTAddress,\n        string message,\n        address requester\n    );\n\n    constructor() {\n        owner = msg.sender;\n    }\n\n    function getIssuedItems() external view returns (address[] memory) {\n        return issuedItems;\n    }\n\n    function getInSellItems() external view returns (address[] memory) {\n        return inSellItems;\n    }\n\n    function sell(\n        address NFTAddress,\n        uint256 _price\n    ) external onlyOwner returns (bytes memory) {\n        if (!containsAddress(NFTAddress, inSellItems)) {\n            addNewInSellItem(NFTAddress);\n            if (!containsAddress(NFTAddress, issuedItems))\n                addNewIssuedItem(NFTAddress);\n        }\n\n        (bool resb, bytes memory res) = NFTAddress.call(\n            abi.encodeWithSignature(\"setPrice(uint256)\", _price)\n        );\n        if (!resb) {\n            revert(\"error in setPrice Calling\");\n        }\n        return res;\n    }\n\n    function buy(address NFTAddress, address ownerOfNft) external payable {\n        (bool resb, bytes memory res) = NFTAddress.call(\n            abi.encodeWithSignature(\"getPrice()\")\n        );\n        if (!resb) {\n            revert(\"error in getting the price\");\n        }\n        uint256 price = abi.decode(res, (uint256));\n        require(msg.value == price, \"not enough value provided\");\n\n        address payable _owner = payable(ownerOfNft);\n        _owner.transfer(msg.value);\n\n        (bool resb1, ) = NFTAddress.call(\n            abi.encodeWithSignature(\n                \"transferBuy(address,address)\",\n                ownerOfNft,\n                msg.sender\n            )\n        );\n        if (!resb1) {\n            revert(\"The NFT was not transfered\");\n        }\n        if (!removeElement(inSellItems, NFTAddress)) {\n            revert(\"The NFT does not exists in the sell market\");\n        }\n    }\n\n    function checkValidity(address NFTAddress) external view returns (bool) {\n        return containsAddress(NFTAddress, issuedItems);\n    }\n\n    function removeInSellItem(address NFTAddress) external onlyOwner {\n        if (!removeElement(inSellItems, NFTAddress)) {\n            revert(\"The NFT does not exists in the sell market\");\n        }\n    }\n\n    function getRealHoney() external returns (bool) {\n        address NFTAddress = msg.sender;\n\n        require(\n            containsAddress(msg.sender, issuedItems),\n            \"The item is not in the issued HNFT\"\n        );\n\n        emit GetPhysicalHoney(\n            NFTAddress,\n            \"Honey is physical requested from its owner\",\n            tx.origin\n        );\n        return true;\n    }\n\n    /* Internal functions */\n    function addNewInSellItem(address newItem) internal {\n        inSellItems.push(newItem);\n    }\n\n    function addNewIssuedItem(address newItem) internal {\n        issuedItems.push(newItem);\n    }\n\n    function containsAddress(\n        address _address,\n        address[] memory array\n    ) internal pure returns (bool) {\n        for (uint256 index = 0; index < array.length; index++) {\n            if (_address == array[index]) {\n                return true;\n            }\n        }\n        return false;\n    }\n\n    function removeElement(\n        address[] storage array,\n        address elem\n    ) internal returns (bool) {\n        uint _index = 0;\n        for (uint256 index = 1; index < array.length + 1; index++) {\n            if (elem == array[index - 1]) {\n                _index = index;\n            }\n        }\n        if (_index != 0) {\n            array[_index - 1] = array[array.length - 1];\n            array.pop();\n            return true;\n        } else {\n            return false;\n        }\n    }\n}\n",
  "sourcePath": "/home/fabri/BlockchainProject/contracts/MainSmartContract.sol",
  "compiler": {
    "name": "solc",
    "version": "0.8.19+commit.7dd6d404.Emscripten.clang"
  },
  "schemaVersion": "3.4.13",
  "updatedAt": "2023-06-19T16:42:40.493Z",
  "networkType": "ethereum",
  "devdoc": {
    "kind": "dev",
    "methods": {},
    "version": 1
  },
  "userdoc": {
    "kind": "user",
    "methods": {},
    "version": 1
  }
}